:4000000000800020110000006D1600006D16000008B5044B1A6803F53F5302331A6001F045FB00BFFA46004010B5054C237833B9044B13B10448AFF300800123237010BD30
:400040004881FF1F00000000F4350000084B10B51BB108490848AFF300800848036803B910BD074B002BFBD0BDE81040184700BF000000004C81FF1FF4350000C880FF1FB0
:4000800000000000024A136801331360704700BF6481FF1F0028B8BF4042B42817D006DC5A2822D087280FD02D281CD109E0B0F5877F12D040F23B13984211D0E12812D1B2
:4000C00008E040F21450704740F6D860704741F25040704741F64610704741F67860704742F2F0307047002070474FF41660704708B502F01BFD0E4A80FB0223C218C3175D
:40010000C3EB22234FF4B47202FB1303002B00DA1344074883FB00015818DA17C2EBA0105A2202FB1030003018BF012008BD00BFB7600BB60FB410B582B004AA52F8041B5A
:400140000192064C204602F04BFE204601F048FD02B0BDE8104004B0704700BF2087FF1F08B5002001F0FCFA002001F005FB002001F056FD002001F05FFD08BD38B5054C1E
:4001800000252571FFF7ECFF2368A360E56001F007FF38BD6481FF1FF8B504460F46164600E001342578202DFBD0022E2CDD02222149204602F043FD28B102221F49204645
:4001C00002F03DFD10BB1E4B1868A37803445B7813F0040F1CD004F1020E734600E001331A788118497811F0040FF8D1202A00D082B93D7063787B700023BB707046F8BDCC
:40020000BB540134013206E0002204E0002202E0002200E000222378202B03D013B1711E8A42EDDB0023BB5400E001342378202BFBD02046F8BD00BFF8350000FC35000063
:40024000E080FF1F70B50C6894425EDA1E460C4605460B6800EB031301229A600B6800EB03130022DA602B49304602F0D6FC20B12949304602F0D1FC98B9327823681B012F
:40028000662A01D1114600E06221E954206805EB0015662A02D1049B5B4200E0049B6B602EE01E49304602F0B8FC20B11C49304602F0B3FC58BB0498FFF7ECFE024628B9D9
:4002C00004991848FFF736FF002070BD3378216809016C2B01D1184600E072206854216805EB01116C2B00D152424A60206805EB00156C2B02D1049B5B4200E0049BEB6028
:40030000236801332360012070BD002070BD002070BD00BFF8350000FC35000000360000043600000836000038B50546002411E004EB8402D30029460948184402F06DFCBC
:4003400038B904EB8404E0001030054B1844043038BD0134034B1B699C42E9DB002038BDA093FF1F6481FF1F38B5044601F060FE05460D48FFF7D8FF60B103464E2C05D171
:400380000A4A1068186012791A7103E02034047000224270064B0122DA6002221A71284601F04AFE38BD00BF3C360000443600006481FF1F30B587B06C46554D0FCD0FC49E
:4003C00095E8030044F8040B2170524B1B79DBB2022B02D101F0E4FD97E04E4B1B79DBB2032B04D04B4B1B7913F0FF0F12D101F0D7FD484B1B7913F0FF0F40F08680454AFE
:40040000136892689B1AB3F5167F7ED30122414B1A717AE03F4B1B79DBB2012B1FD13D4A136892689B1A40F62722934217D901F0FFFD04463848FFF777FF034620B1374AF6
:400440001068186012791A71324B0122DA6002221A71204601F0F0FD314801F0C1FB01F093FD002851D001F079FD0446A0F16103DBB2192B02D8A0F12004E4B2254B1B7919
:40048000DBB2012B05D0234B1B7D9C4203D0012302E0012300E00023DDB2A4F14103142B33D8DFE803F00B3232320B3232320B32323232200B32323232320B002046FFF7BD
:4004C00053FF8DF8114015B1684601F087FD114B1C751148FFF728FF014600B911491248FFF728FE11E02046FFF73EFF15B10F4801F074FD074B1C750748FFF715FF01462C
:4005000000B908490848FFF715FE07B030BD00BFA43600006481FF1F3C360000443600005C3600004C3600007C3600008C36000070B50C46FFF7F8FE90B1054623783A2BB5
:4005400006D1661C3046FFF7EFFE044600B934462146284602F061FBB0FA80F0400970BD002070BD10B58AB0044617E00A2202A92046FFF711FE9DF80830ABB114220DEB73
:400580000201FFF709FE044605A802F0F5FA009002AB1E2205490648FFF754FE23781BB1044B9B691D2BE1DD0AB010BD7C81FF1FDC84FF1F6481FF1F002208E05B2B01D1BD
:4005C000013203E05D2B01D1013A04D001300378002BF3D1002070472DE9F0479CB004460F4616461D4660E001342378202BFBD0002B5FD006223149204602F020FB002856
:400600003FD1063400E001342378202BFBD0204602F0B2FA804600E001342378202B03D0002BF9D100E001342378202BFBD05B2B3BD12046FFF7C0FF814600283AD0611C34
:40064000C1EB000ABAF1310F01D94FF0310A524602A802F009FB1CAB9A4400240AF8684C0AE002A90FA802F0E2FA2B46324639460FA8FFF7B1FF01344445F2DB09F1010465
:4006800013E00A2202A92046FFF786FD14220FA9FFF782FD04460FA802F06EFA009002AB2A4631463846FFF7CDFD237813B13368AB429ADB1CB0BDE8F08700BFC036000078
:4006C00008B502490248FFF733FF08BDF881FF1F9495FF1F70B50646FFF750FD3F4BDD6925B11A6A3E4B03EB02130DE03B4B5B6A2BB13A4B9A6A3B4B03EB021304E0374BE7
:40070000DA6A394B03EB02131A78662A01D0622A0CD132490A6B01320A635B68002BB8BF5B429A4202DA01224A6370BD2B4C00232363304602F030F90146A06B02F078F8E6
:40074000A06305E02949204602F072F8234B9863224B9C6B0021204602F0C0F90028F1D105E02249204602F061F81C4B98631B4B9C6B1E49204602F0C5F90028F1D1ADB1CF
:40078000164A136A01331362D26B934222DB134B0022DA61DA6A0132DA62DA6A9B699A4218DB0E4B0022DA629A6113E00B4B5B6A23B10A4A936A013393620BE0074BDA6A90
:4007C0000132DA62DA6A9B699A4203DB034B00229A61DA620122014B5A6370BD6481FF1FEC83FF1F0C82FF1FDC84FF1F0000B44308B501F077FD08A3D3E9002301F0D8FD65
:4008000001F0E8FFE630FF2800DDFF20002800DA002008BDAFF30080333333333333C33F10B58AB004460022114B1A6417E00A2202A92046FFF7B0FC9DF80830ABB11422F0
:400840000DEB0201FFF7A8FC044605A802F094F9009002AB1E2207490748FFF7F3FC23781BB1034B1B6C1D2BE1DD0AB010BD00BF6481FF1FA481FF1F0C82FF1FF0B5A9B0F4
:4008800001F08CF9A64B83F84400002800F01E8301F09AF9A24B93F844300D2B02D00A2B40F009839E4B93F84530002B00F00E839C4801F095F99A4C94F845309A4800220B
:4008C000C2540422994902F0BAF92379DBB2022B07D1A36C2BB9636A1BB9E26AA3699A4228DA8F4B1979C9B21B7913F0FF0F0BD08B4B1B79DBB2012B08D0894B1B79DBB2E6
:40090000022B05D18A4A04E08A4A02E08A4A00E08A4A834CA36CE06AA5692668039602950190606A00908648FFF704FC002384F84530CBE218B17A4B00229A61DA627A4CAD
:400940008AE201342578202DFBD0002D00F08B8206227C49204602F072F900283CD1063400E001342378202BFBD0204602F004F9064600E001342378202B03D0002BF9D1AE
:4009800000E001342378202BFBD05B2B40F0648201345D21204602F032F90746002800F06282051B312D00D931252A4621460EA802F05AF928AB2B44002503F8685C07E0CA
:4009C0000EA91BA802F033F91BA8FFF7CBFD0135B542F5DB7C1C3FE204225449204602F02EF900287CD1043400E001342378202BFBD0222B00D10134002305E028A91944EA
:400A000001F8682C013401332278202A02D00AB1122BF3DD28AA1344002203F8682C00E001342378202BFBD0222B00D10134002305E028A9194401F8342C013401332278BD
:400A4000202A02D00AB1122BF3DD28AA1344002503F8345C1CE005EB8502D3000EA93A48184402F0DAF890B905EB8505EB001033354A98181BA9043002F0D9F81BAA0EA9C3
:400A80003248FFF757FB0123254AD36005E00135234B1B699D42DEDB0023002B40F0DC811F4B1D69092D00F3D781AE007319D800254F0EA9384402F0BAF82E44F3001033B8
:400AC000D8191BA9043002F0B2F8154E013535611BAA0EA91E48FFF72DFB0123F360BBE13A2D3ED10134002305E028A9194401F8342C013401332278202A02D00AB1122BDE
:400B0000F3DD28AA1344002203F8342C1BA8FFF70BFC024600B31BA90E48FFF70BFB9BE16481FF1FEC380000BC86FF1FF0360000E8360000D4360000C8360000E036000009
:400B4000F8360000C0360000A093FF1F343700004C370000603700001BA9AE48FFF7EAFA7AE10622AC49204602F069F8002840F0BF80063400E001342378202BFBD03A2BBA
:400B800040F06A810134002305E028A9194401F8902C013401332278202A02D00AB1122BF3DD28AA1344002203F8902C00E001342378202BFBD03D2B02D1013400E00134C6
:400BC0002378202BFBD0222B00D10134002305E028A9194401F87C2C013401332278202A02D00AB1122BF3DD28AA1344002203F87C2C00E001342378202BFBD05B2B40F0C9
:400C00002B81661C2046FFF7D7FC0546002800F02381841B224631460EA802F025F828AB1C44002304F8683C6C1C00E001342378202BFBD05B2B40F00F81661C2046FFF7A5
:400C4000BBFC0546002800F00781841B224631461BA802F009F828AB1C44002304F8343C6C1C6E4B9B691D2B00F3F6806B4DAA696B4B120169219954AA6903EB02120021A5
:400C80005160AA6903EB021201209060AA6903EB0213D960A8696426624F04A906FB007001F0C5FFA86906FB00F01030384409A9043001F0BCFFA86906FB00F028300EA98E
:400CC000384401F0B4FFAB6906FB03F34033D8191BAE3146063001F0AAFF00960EAB09AA04A95148FFF726FAAB690133AB61B3E005224E49204601F0A2FF002879D10534AF
:400D000000E001342378202BFBD03A2B11D10134002303E04649CA54013401332278202A02D00AB1122BF5DD0021414AD15400E001342378202BFBD03D2B02D1013400E0EE
:400D400001342378202BFBD0222B00D10134002203E038498B54013401322378202B02D00BB1122AF5DD0021324B995400E001342378202BFBD05B2B6ED1671C2046FFF7F6
:400D80001BFC0646002867D0C41B632C00D96324294D22463946284601F066FF00222A551E4C0120E064A1691D4B090177275F54A16903EB01114A60A16903EB011188609F
:400DC000A16903EB0113DA60A3690344A3612846FFF726FD216C1948FFF7ACF9154A14491748FFF7A7F929461648FFF7A3F9741C32E00A220EA92046FFF7CEF904460378C9
:400E000013B314221BA9FFF7C7F904461BA801F0B3FE1AE074370000903700006481FF1FDC84FF1FE887FF1F98370000BC3700009495FF1FF881FF1F3095FF1FC437000095
:400E4000DC370000F0370000012000900EAB1E221F492048FFF7F6F9237823B11E4B9B691D2B7FF76FAD1C4B9B69002B1EDD1A4C217922681948FFF75DF9A1691848FFF7FB
:400E800059F900240BE0134A2301D118D25C4B688968009121461348FFF74CF901340E4B9B699C42EFDB01220B4B5A6300220A4B83F845200AE0084A92F84520622A05D8AC
:400EC000501C054981F8450007498B5429B0F0BD7C81FF1FDC84FF1F6481FF1F043800002038000034380000BC86FF1F2DE9F04F85B062B600F044FE01F022F89E4801F013
:400F00006DF89E4800F0E0FF9D4800F069FE9D4800F066FE00F042FD00F076FD00F0F8FE00F02CFFE62000F0F3FCE62000F0AAFE00F042FD814600F0F9FE804600F0B8FCC5
:400F40009149002000F0C2FCFFF718F98F4B1E68FFF730FA8D4B1B7913F0FF0FF8D08B4B1B79DBB2012BF3D0884B9B6C002B2CD0864BDB68002BEBD0844B00229A64DA60F3
:400F8000FFF79EFB48B1824800F02AFE7F4B00229A6201225A625A63DAE77E4800F020FE7A4BDA6A0132DA62DA6A9B699A4203DB764B0022DA629A61744B01225A63D96A38
:400FC0009A697548FFF7B6F8C2E7704B1B689B1B632BBDD96D4B1E685B6B43B100226B4B5A6300F0E9FC814600F0A0FE804600F0E3FC044600F09AFEC9EB0404C8EB000738
:40100000624B5A6A92B1996A1B6C99420EDBFFF7A7F85E4B00225A6201229A64DB680BB9FFF7ACF85D4800F0DBFD91E7574BD96A9B69994202DBFFF793F889E7534BDB6977
:401040002BB1524B1D6A564B03EB05150BE02AB14E4B9D6A534B03EB051504E04B4BDD6A514B03EB05152B78662B05D0622B03D06C2B01D0722B08D16A681AB90020FFF754
:4010800029FB65E70321414A1171623B152B00F29581DFE813F02A01930193019301BF0093019301160093019301FC0093019301930193019301670193019301930193013C
:4010C0009300324B1B6D2BB90122304B1A65FFF755F83DE72D4B00221A65DF6A642202FB07F2324BD518103213441C1D21462846FFF71EFA82460346224629462C48FFF7A1
:4011000019F8BAF1000F01D02A4800E02A4800F067FDBAF1000F06D0642000FB07F02830224B184406E0642000FB07F040301F4B18440630154C2246002342F83C3F0F2339
:401140001749FFF749FAE36B002B05DD0122E261002121626263FBE60C4BDA6A0132DA62DA6A9B699A4203DB084B0022DA629A610122064B5A63EBE6743800007D080000E0
:4011800084380000EC380000850000006481FF1F98380000AC380000B8380000D8380000EC83FF1F0C82FF1FDC84FF1FE887FF1FF03800005C38000068380000814B5B6DDF
:4011C0002BB901227F4B5A65FEF7D8FFC0E600227C4B5A65FFF774FA48B17B4800F000FD784B00229A6201225A625A63B0E6774800F0F6FC734B00225A62DA6A0132DA6235
:40120000DA6A9B699A42FFF6A3AE6E4B0022DA629A619DE66B4B986BFEF76AFF10B140F68C2301E040F26C736A68002A02DA4FF0FF3500E0012505FB03F5C7EB040A504661
:40124000FFF7D6FA8346E62000F01CFD5FFA8BF000F05EFBE6230193CDF800B05346224639465B48FEF766FFAF420CDB002000F077FA012000F080FA002000F0D1FC012042
:4012800000F0DAFC64E60020FFF724FA60E6D5F804B0C7F1000AC4EB0A0A5046FFF7A8FA0390E62000F0EEFC9DF80C0000F030FBE6230193039B0093534622463946454866
:4012C000FEF738FF5F450CDB012000F049FA002000F052FA002000F0A3FC012000F0ACFC36E6E868FFF7F6F932E6364B986BFEF7FFFE10B140F68C2301E040F26C736A68D6
:40130000002A02DA4FF0FF3500E0012505FB03F5C4EB070A5046FFF76BFA8346E62000F0B1FC5FFA8BF000F0F3FAE6230193CDF800B05346224639462548FEF7FBFEAF428A
:401340000CDC012000F00CFA002000F015FA012000F066FC002000F06FFCF9E50020FFF7B9F9F5E5D5F804B004EB070A5046FFF73FFA0390E62000F085FC9DF80C0000F000
:40138000C7FAE6230193039B00935346224639461148FEF7CFFE5F450CDC002000F0E0F9012000F0E9F9012000F03AFC002000F043FCCDE5E868FFF78DF9C9E5FEF7D0FE16
:4013C000C6E500BF6481FF1F0839000018390000283900004C39000074390000FEE700BFF0B40022174611E050F82760F3B226F0FF0608E001EB420511F812406D78A555BF
:401400000132013BDBB2002BF4D10137242FEBD9F0BC7047064B1B78DBB203F00701054A11701B09013213704422034B1A707047CF0100496E5800407658004008B50A46C9
:40144000002101F0D4FB08BD38B517222A4B1A8018232A490B7002310A80294A13704FF49C7204310A8002310B7002310A80254A13700222244B1A7008224FF040231A70D5
:40148000032103F500731970204B1B78DBB220490B70204B1A8041F25122023B1A80002419250CE01C4B1B7803F0010343EA440404F003044FF4F07000F0B2FD013D0DB136
:4014C000032CEFD115B90320FFF788FF134B4FF480721A8007221A70002211490A704820023108701A700222033B1A700D4A137843F00F03137038BD80400040824000408F
:40150000864000408E4000400043004008010049A146004022420040254200400440004006400040A243004008B501F055FB08BD38B572B6394A137843F00403137000245A
:401540000CE0374D630019194A0011462A44084691882858FFF772FF0134E4B2082CF0D900240BE02E49A3001819420088188022C16B806BFFF7D8FF0134E4B2002CF1D0C7
:4015800028494FF09040FFF72BFF274A274B1A60274A03F520731A60264A137843F0020313701032137843F002031370224C237843F040032370A2F58632513A137843F0D0
:4015C000100313700A221D491D48FFF7ADFF08221C491D48FFF7A8FF0A221C491C48FFF7A3FF0A221B491C48FFF79EFF1B4A137843F0080313701A4D61232B70FFF724FFC7
:4016000081232B700122174B1A70FFF703FF0E2221461548FFF788FF38BD00BFE84600409C3900009400004804040044581601400404048403500140A0430040780C004812
:40164000C0510040840C0048F25100408C0C004810510040980C004820510040224300400048004004000840B043004008B501F087FA03680C2B00D1FEE7FEE708B5094B77
:401680001A681044084BC31A802B02DC054B186005E001F075FA0C2303604FF0FF32104608BD00BFCC80FF1FB095FF1F08B5104E104D16E029686B68AC68002204E051F8B0
:4016C000040B43F8040B0432A242F8D1E868002203E0002143F8041B04328242F9D11035013E002EE6D101F051FAFFF7FFFBFEE701000000383B000008B5104A104B1A6040
:40170000104A136843F40073136000230AE0032B03D80D4A52F8231000E00C490C4A42F8231001332F2BF2D90A4B1A780A4B1A70074A0A4B1A60FFF7FBFE08BD0004FA05DF
:401740000CED00E014ED00E0000000006D1600000080FF1FBC760040C080FF1F08ED00E0044A137803F0DF03400100F0200018431070704710510040044A137803F0EF03F9
:40178000000100F010001843107070471051004001BE704770B504460E46074B1D680F2802D90020FFF7F4FF04F00F0455F8240045F8246070BD00BF08ED00E0024A136809
:4017C00043F002031360704710E000E008B5FFF7F5FF034A136843F00103136008BD00BF10E000E020F07F40014B1860704700BF14E000E0012805D1054A136843F004036A
:4018000013607047024A136823F004031360704710E000E0024B1868C0F30040704700BF10E000E010B5FFF7F5FF01280BD107E0054B03EB84035B6803B19847013400E0D2
:401840000024042CF4D910BDC881FF1F0022014B1A60704718E000E008B5002305E00F4A02EB8302002151600133042BF7D90C490F20FFF78FFF0120FFF7BCFF094BDB6896
:401880000948A0FB03308009FFF7ACFFFFF7DEFF4FF40042054B1A6008BD00BFC881FF1F25180000D080FF1FD34D621000E100E008B5054B9B6923B9FFF7CEFF0122024BB4
:4018C0009A61FFF783FF08BDC881FF1F024B03EB8003586859607047C881FF1F084A137843F0010313701032137843F00103137002F64D32137843F001031370704700BFA4
:40190000A3430040014B1880704700BF044F0040014B1880704700BF064F0040014B1870704700BF034F004008B5194A137843F0020313700232137803F08F0343F01003D9
:401940001370144B1A7802F0CF021A701A7842F030021A701A7802F0F0021A701A7842F00F021A70FF20FFF7CDFFFF20FFF7D0FF0020FFF7D3FF084A137843F00103137083
:4019800002F65E32137843F00103137008BD00BF004F00400B4F0040A343004008B5054B1B7823B9FFF7C0FF0122024B1A70FFF795FF08BDE481FF1F08B500F051F8A0F5FF
:4019C000004000B208BD00BF024B187800F00F00704700BF66640040014B1870704700BF8664004008B50F20FFF7F6FFFFF7ECFF00F01EFB034A137843F01003137000F04F
:401A00001BFB08BD9664004008B500F07BF84FF4004000F01FF8044B1B7813B90122024B1A70FFF7DFFF08BDE581FF1F024A137843F080031370704777640040014B18706C
:401A4000704700BF86650040014B1878704700BF66650040014B1880704700BF086A0040024B1B78024B188880B2704704650040886A0040014B188880B27047886A0040C4
:401A8000014B1880704700BF486A0040014B1880704700BF686A004008B501E0FFF7EAFFFFF7D2FF10F0400FF8D108BD08B5134B1A7802F0F8021A701A7802F0FC021A701E
:401AC000FFF7EAFF4FF40040FFF7DAFF4FF40040FFF7C0FF0020FFF7B1FFFFF7B5FF4FF40040FFF7D3FF00F0A3FA054A137843F01003137000F0A0FA08BD00BF7764004069
:401B00009665004008B5054B1B7823B9FFF7CEFF0122024B1A70FFF789FF08BDE681FF1F7222084B1A70202201331A700622683B1A70472210331A70002203F5AA731A70AC
:401B4000704700BF8E64004010B500F071FA04460A4A137843F0200313700132137843F010031370FC32137843F01003137000F049F8204600F060FA10BD00BF9E640040E3
:401B800008B5054B1B7823B9FFF7CAFF0122024B1A70FFF7D9FF08BDE781FF1F084B1B78DBB213F0200F06D0064A1078C0B213F01E0F02D17047002070470020704700BFEB
:401BC0006F6400404D640040034B1B7813F0040FFAD1024B187070476B6500404B65004038B5074B1B782BB938BDFFF7EDFF0134A4B201E005460024285D0028F5D138BDC3
:401C0000E781FF1F054A137843F0080313701032137843F008031370704700BFA2430040044A137803F0FB03800000F0040018431070704720510040044A137803F0FD030D
:401C4000400000F0020018431070704720510040084A137843F0020313701032137843F00203137002F65932137843F001031370704700BFA3430040014B1880704700BF11
:401C8000104F0040014B1880704700BF124F0040014B1870704700BF0F4F004008B5194A137843F0020313700232137803F08F0343F010031370144B1A7802F0CF021A70F1
:401CC0001A7842F030021A701A7802F0F0021A701A7842F00F021A70FF20FFF7CDFFFF20FFF7D0FF0020FFF7D3FF084A137843F00203137002F66A32137843F001031370E7
:401D000008BD00BF0C4F0040174F0040A343004008B5054B1B7823B9FFF7C0FF0122024B1A70FFF795FF08BDE981FF1F08B500F051F8A0F5004000B208BD00BF024B1878D8
:401D400000F00F00704700BF69640040014B1870704700BF8964004008B50F20FFF7F6FFFFF7ECFF00F064F9034A137843F01003137000F061F908BD9964004008B500F0CB
:401D80007BF84FF4004000F01FF8044B1B7813B90122024B1A70FFF7DFFF08BDEA81FF1F024A137843F080031370704779640040014B1870704700BF89650040014B187824
:401DC000704700BF69650040014B1880704700BF106A0040024B1B78024B188880B2704708650040906A0040014B188880B27047906A0040014B1880704700BF506A00404B
:401E0000014B1880704700BF706A004008B501E0FFF7EAFFFFF7D2FF10F0400FF8D108BD08B5134B1A7802F0F8021A701A7802F0FC021A70FFF7EAFF4FF40040FFF7DAFFAD
:401E40004FF40040FFF7C0FF0020FFF7B1FFFFF7B5FF4FF40040FFF7D3FF00F0E9F8054A137843F01003137000F0E6F808BD00BF796400409965004008B5054B1B7823B9D2
:401E8000FFF7CEFF0122024B1A70FFF789FF08BDEB81FF1F014B1B681864704708ED00E04001C0B2014B1870704700BF00E400E00122014B1A60704700E100E00122014B30
:401EC0001A60704780E100E010B50446FFF7F6FF2046FFF7DFFF0720FFF7E2FFFFF7E8FF10BD00BF7222074B1A702022043B1A700622603B1A70472210331A70002253332F
:401F00001A7070478C64004010B500F091F804460A4A137843F020031370043A137843F0100313700332137843F01003137000F067F8204600F080F810BD00BF9C640040EC
:401F400008B5054B1B7823B9FFF7CCFF0122024B1A70FFF7D9FF08BDEC81FF1F084B1B78DBB213F0200F06D0064A1078C0B213F01E0F02D17047002070470020704700BF20
:401F8000686400404B640040044B1B7813F0200F01D0012070470020704700BF6864004008B500F045F8064B1A7842F001021A701A7802F0FE021A7000F03EF808BD00BF83
:401FC0009B640040034B1B7813F0040FFAD1024B187070476B6400404F64004038B5074B1B782BB938BDFFF7EDFF0134A4B201E005460024285D0028F5D138BDEC81FF1FF7
:40200000054A137843F0040313701032137843F004031370704700BFA2430040000000000230800803D000BF01380046FCD17047EFF3108072B6704780F31088704700BFC3
:4020400081F0004102E000BF83F0004330B54FEA41044FEA430594EA050F08BF90EA020F1FBF54EA000C55EA020C7FEA645C7FEA655C00F0E2804FEA5454D4EB5555B8BFB4
:402080006D420CDD2C4480EA020281EA030382EA000083EA010180EA020281EA0303362D88BF30BD11F0004F4FEA01314FF4801C4CEA113102D0404261EB410113F0004FA2
:4020C0004FEA03334CEA133302D0524263EB430394EA050F00F0A780A4F10104D5F1200E0DDB02FA0EFC22FA05F2801841F1000103FA0EF2801843FA05F359410EE0A5F110
:4021000020050EF1200E012A03FA0EFC28BF4CF0020C43FA05F3C01851EBE37101F0004507D54FF0000EDCF1000C7EEB00006EEB0101B1F5801F1BD3B1F5001F0CD3490829
:402140005FEA30004FEA3C0C04F101044FEA445212F5800F80F09A80BCF1004F08BF5FEA500C50F1000041EB045141EA050130BD5FEA4C0C404141EB010111F4801FA4F1AB
:402180000104E9D191F0000F04BF01460020B1FA81F308BF2033A3F10B03B3F120020CDA0C3208DD02F1140CC2F10C0201FA0CF021FA02F10CE002F11402D8BFC2F1200CB8
:4021C00001FA02F120FA0CFCDCBF41EA0C019040E41AA2BF01EB0451294330BD6FEA04041F3C1CDA0C340EDC04F11404C4F1200220FA04F001FA02F340EA030021FA04F336
:4022000045EA030130BDC4F10C04C4F1200220FA02F001FA04F340EA0300294630BD21FA04F0294630BD94F0000F83F4801306BF81F480110134013D4EE77FEA645C18BFE0
:402240007FEA655C29D094EA050F08BF90EA020F05D054EA000C04BF1946104630BD91EA030F1EBF0021002030BD5FEA545C05D14000494128BF41F0004130BD14F58004CF
:402280003CBF01F5801130BD01F0004545F0FE4141F470014FF0000030BD7FEA645C1ABF194610467FEA655C1CBF0B46024650EA013406BF52EA033591EA030F41F4002153
:4022C00030BD00BF90F0000F04BF0021704730B54FF4806404F132044FF000054FF0000150E700BF90F0000F04BF0021704730B54FF4806404F1320410F0004548BF404228
:402300004FF000013EE700BF42004FEAE2014FEA31014FEA02701FBF12F07F4393F07F4F81F06051704792F0000F14BF93F07F4F704730B54FF4607401F0004521F0004149
:4023400020E700BF50EA010208BF704730B54FF000050AE050EA010208BF704730B511F0004502D5404261EB41014FF4806404F132045FEA915C3FF4DCAE4FF003025FEA2A
:40238000DC0C18BF03325FEADC0C18BF033202EBDC02C2F1200300FA03FC20FA02F001FA03FE40EA0E0021FA02F11444C1E600BF70B54FF0FF0C4CF4E06C1CEA11541DBF04
:4023C0001CEA135594EA0C0F95EA0C0F00F0DEF82C4481EA030621EA4C5123EA4C5350EA013518BF52EA033541F4801143F4801338D0A0FB02CE4FF00005E1FB02E506F083
:402400000042E0FB03E54FF00006E1FB03569CF0000F18BF4EF0010EA4F1FF04B6F5007F64F5407404D25FEA4E0E6D4146EB060642EAC62141EA55514FEAC52040EA5E504F
:402440004FEACE2EB4F1FD0C88BFBCF5E06F1ED8BEF1004F08BF5FEA500E50F1000041EB045170BD06F0004646EA010140EA020081EA0301B4EB5C04C2BFD4EB0C0541EA5D
:40248000045170BD41F480114FF0000E013C00F3AB8014F1360FDEBF002001F0004170BDC4F10004203C35DA0C341BDC04F11404C4F1200500FA05F320FA04F001FA05F292
:4024C00040EA020001F0004221F0004110EBD37021FA04F642EB06015EEA430E08BF20EAD37070BDC4F10C04C4F1200500FA04F320FA05F001FA04F240EA020001F00041DC
:4025000010EBD37041F100015EEA430E08BF20EAD37070BDC4F1200500FA05F24EEA020E20FA04F301FA05F243EA020321FA04F001F0004121FA04F220EA020000EBD3707C
:402540005EEA430E08BF20EAD37070BD94F0000F0FD101F00046400041EB010111F4801F08BF013CF7D041EA060195F0000F18BF704703F00046520043EB030313F4801F41
:4025800008BF013DF7D043EA0603704794EA0C0F0CEA135518BF95EA0C0F0CD050EA410618BF52EA4306D1D181EA030101F000414FF0000070BD50EA410606BF1046194697
:4025C00052EA430619D094EA0C0F02D150EA013613D195EA0C0F05D152EA03361CBF104619460AD181EA030101F0004141F0FE4141F470014FF0000070BD41F0FE4141F494
:40260000780170BD70B54FF0FF0C4CF4E06C1CEA11541DBF1CEA135594EA0C0F95EA0C0F00F0A7F8A4EB050481EA030E52EA03354FEA013100F088804FEA03334FF0805514
:4026400045EA131343EA12634FEA022245EA111545EA10654FEA00260EF000419D4208BF964244F1FD0404F5407402D25B084FEA3202B61A65EB03055B084FEA32024FF42F
:4026800080104FF4002CB6EB020E75EB030E22BFB61A754640EA0C005B084FEA3202B6EB020E75EB030E22BFB61A754640EA5C005B084FEA3202B6EB020E75EB030E22BFA0
:4026C000B61A754640EA9C005B084FEA3202B6EB020E75EB030E22BFB61A754640EADC0055EA060E18D04FEA051545EA16754FEA06164FEAC30343EA52734FEAC2025FEA51
:402700001C1CC0D111F4801F0BD141EA00014FF000004FF0004CB6E711F4801F04BF01430020B4F1FD0C88BFBCF5E06F3FF6AFAEB5EB030C04BFB6EB020C5FEA500C50F164
:40274000000041EB045170BD0EF0004E4EEA113114EB5C04C2BFD4EB0C0541EA045170BD41F480114FF0000E013C90E645EA060E8DE60CEA135594EA0C0F08BF95EA0C0FB4
:402780003FF43BAF94EA0C0F0AD150EA01347FF434AF95EA0C0F7FF425AF104619462CE795EA0C0F06D152EA03353FF4FDAE1046194622E750EA410618BF52EA43067FF449
:4027C000C5AE50EA41047FF40DAF52EA43057FF4EBAE12E74FEA410212F5001215D211D56FF47873B3EB625212D94FEAC12343F0004343EA505311F0004F23FA02F018BFA9
:40280000404270474FF00000704750EA013005D111F0004008BF6FF0004070474FF00000704700BF80F0004002E000BF81F0004142001FBF5FEA410392EA030F7FEA226CE0
:402840007FEA236C6AD04FEA1262D2EB1363C1BFD218414048404140B8BF5B42192B88BF704710F0004F40F4000020F07F4018BF404211F0004F41F4000121F07F4118BF23
:40288000494292EA030F3FD0A2F1010241FA03FC10EB0C00C3F1200301FA03F100F0004302D5494260EB4000B0F5000F13D3B0F1807F06D340084FEA310102F10102FE2A4F
:4028C00051D2B1F1004F40EBC25008BF20F0010040EA03007047490040EB000010F4000FA2F10102EDD1B0FA80FCACF1080CB2EB0C0200FA0CF0AABF00EBC2505242184323
:40290000BCBFD0401843704792F0000F81F4000106BF80F400000132013BB5E74FEA41037FEA226C18BF7FEA236C21D092EA030F04D092F0000F08BF0846704790EA010F32
:402940001CBF0020704712F07F4F04D1400028BF40F00040704712F100723CBF00F50000704700F0004343F0FE4040F4000070477FEA226216BF08467FEA2363014642027D
:4029800006BF5FEA412390EA010F40F4800070474FF0000304E000BF10F0004348BF40425FEA000C08BF704743F0964301464FF000001CE050EA010208BF70474FF00003A1
:4029C0000AE000BF50EA010208BF704711F0004302D5404261EB41015FEA010C02BF84460146002043F0B64308BFA3F18053A3F50003BCFA8CF2083AA3EBC25310DB01FA0C
:402A000002FC634400FA02FCC2F12002BCF1004F20FA02F243EB020008BF20F00100704702F1200201FA02FCC2F1200250EA4C0021FA02F243EB020008BF20EADC707047DF
:402A40004FF0FF3C06E000BF4FF0010C02E000BF4FF0010C4DF804CD4FEA40024FEA41037FEA226C18BF7FEA236C11D001B052EA530C18BF90EA010F58BFB2EB030088BF9E
:402A8000C81738BF6FEAE17018BF40F0010070477FEA226C02D15FEA402C05D17FEA236CE4D15FEA412CE1D05DF8040B704700BF844608466146FFE70FB5FFF7C9FF002845
:402AC00048BF10F1000F0FBD4DF808EDFFF7F4FF0CBF012000205DF808FB00BF4DF808EDFFF7EAFF34BF012000205DF808FB00BF4DF808EDFFF7E0FF94BF012000205DF851
:402B000008FB00BF4DF808EDFFF7D2FF94BF012000205DF808FB00BF4DF808EDFFF7C8FF34BF012000205DF808FB00BF4FEA4002B2F1FE4F0FD34FF09E03B3EB12620DD9C0
:402B40004FEA002343F0004310F0004F23FA02F018BF404270474FF00000704712F1610F01D1420205D110F0004008BF6FF0004070474FF0000070470A22002100F00EB969
:402B8000014B1868704700BF4481FF1F0E4B70B51E460E4C0025E41AA410A54204D056F8253098470135F8E700F0B4FF084B094C1E46E41AA4100025A54204D056F82530A7
:402BC00098470135F8E770BD203B0000203B0000203B0000283B000010B5431E0A44914204D011F8014B03F8014FF8E710BD03460244934202D003F8011BFAE77047C9B279
:402C0000034610F8012B1AB19142F9D11846704700290CBF18460020704710F8012B11F8013B012A28BF9A42F7D0D01A7047034611F8012B03F8012B002AF9D1704730B56D
:402C400082B1451E013915F8013F11F8014FA34206D1EC431444E04201D0002BF3D11C46181B30BD104630BD034610B542B111F8014B013A03F8014B002CF7D11A4400E0EA
:402C800010BD934202D003F8014BFAE710BD00002DE9F0470F4680463F48D0F800903D4615F8014B09EB0400407800F0080000F0FF0608B12F46F2E72D2C03D1BD1C7C78EA
:402CC000012603E02B2C04BF7C78BD1C13B1102B0AD15BE0302C57D1287800F0DF0058284DD16C7810230235002E14BF4FF0004C6FF0004CBCFBF3FA0027384603FB1ACC8B
:402D000009EB040E9EF801E01EF0040F01D0303C0BE01EF0030E1BD0BEF1010F0CBF4FF0370E4FF0570ECEEB0404A34210DDB7F1FF3F0AD0504506D801D1644503DC03FBF3
:402D40000040012701E04FF0FF3715F8014BD7E77B1C0CD1002E4FF0220314BF4FF000406FF00040C8F800302AB9BDE8F08706B1404272B107B1691E1160BDE8F08730241C
:402D8000002BB1D10823AFE70A23ADE7302CA3D0AAE7BDE8F08700BFE080FF1F13460A46014602480068FFF773BF00BF4481FF1F10B59AB0009104916FF0004102910591C1
:402DC0004FF6FF714FF40274ADF80E106946ADF80C4000F013F9009B00221A701AB010BD13460A46014602480068FFF7E1BF00BF4481FF1F38B50546002944D051F8043C50
:402E00000C1F002BB8BFE41800F0C1FB1E4A1368114613B96360146030E0A3420DD92268A018834201BF18685B681218226063600C6023E0A24203D813465A68002AF9D14F
:402E400018681918A1420BD12168014458188242196013D110685268014419605A600DE002D90C232B6009E021686018824201BF106852680918216062605C602846BDE884
:402E8000384000F085BB38BDF481FF1F70B5CD1C25F0030508350C2D38BF0C25002D064601DBA94202D90C23336046E000F06FFB234B1C681A462146A1B10B685B1B0ED4E6
:402EC0000B2B03D90B60CC18CD501EE08C420BBF63684B681360636018BF0C4615E00C464968E9E7174C23681BB9304600F016FB20602946304600F011FB431C18D0C41C58
:402F000024F00304A0420DD12560304600F040FB04F10B00231D20F00700C31A0ED05A42E25070BD211A304600F0F8FA0130EBD10C233360304600F02BFB002070BD00BFA9
:402F4000F481FF1FF081FF1F2DE9F0478E6882469E420C46914698463ED88A8912F4906F3AD02568096902236F1A656905EB450595FBF3F57B1C43449D4238BF1D46530529
:402F80000FD52946FFF782FF064698B13A462169FFF722FEA38923F4906343F08003A38113E02A4600F0F5FA064670B921695046FFF720FF0C23CAF80030A3894FF0FF30DB
:402FC00043F04003A381BDE8F08726613E44266046466561ED1BA560464528BF464649463246206800F0B8FAA36800209B1BA36023681E442660BDE8F08700002DE9F04F36
:403000009DB003938B8980461C060D4616460DD50B695BB94021FFF739FF2860286118B90C23C8F80030CDE040236B610023099320238DF82930DFF89CB130238DF82A30F6
:4030400037463C4614F8013B1BB9B7EB060910D003E0252BF9D02746F3E74B46324629464046FFF771FF013000F0A780099B4B4409933B78002B00F0A08000234FF0FF3265
:4030800004930793059206938DF853301A930126052221784E4800F051FA671C049B38B14B4A3C46801A06FA00F018430490EFE7D90644BF20228DF853201A0744BF2B2244
:4030C0008DF8532022782A2A03D0079A00210A200BE0039A111D12680391002A10DA524243F00200079204900BE027463B780134303B092B03D800FB02320121F5E701B1C4
:4031000007923B782E2B1ED17B782A2B0AD1039B02371A1D1B680392002BB8BF4FF0FF33059310E0002319460593781C0A2407463A780130303A092A03D804FB012101234E
:40314000F5E703B1059103223978224800F0F6F940B14023CBEB000003FA00F0049B013718430490397806221B487E1C8DF8281000F0E4F988B1194B33B9039B073323F079
:4031800007030833039314E003AB00932A46144B04A94046AFF3008007E003AB00932A460F4B04A9404600F093F8B0F1FF3F824603D0099B5344099342E7AB895B0601D457
:4031C000099801E04FF0FF301DB0BDE8F08F00BFE13A0000E73A0000EB3A000000000000492F00002DE9F04791461F460A698B6806469342B8BF1346C9F8003091F8432099
:403200000C46DDF8208012B10133C9F800302368990642BFD9F800300233C9F80030256815F0060510D104F1190A07E00123524639463046C04701301AD00135E368D9F8EB
:4032400000209B1A9D42F1DB94F843302268003318BF012392060FD5E118302081F843005A1C94F845102244023382F8431003E04FF0FF30BDE8F08704F14302394630463B
:40328000C0470130F4D02268D9F80050E36802F00602042A08BF5D1B2269A3680CBF25EAE57500259342C4BF9B1AED184FF000091A344D4509D00123224639463046C0472B
:4032C0000130D5D009F10109F3E70020BDE8F0872DE9F04317460A7E85B06E2A984606460C460C9B01F1430E00F0AE8011D8632A22D009D8002A00F0BB80582A40F0CA80C5
:4033000081F84520834955E0642A1ED0692A1CD0C0E0732A00F0B08009D86F2A2ED0702A40F0B8800A6842F020020A603EE0752A24D0782A3AD0ADE01A6801F14205111DD9
:403340001960136884F84230A8E021681A6811F0800F02D0111D196008E011F0400F02F10401196002D0B2F9003000E01368002B3CDA2D225B4284F8432037E021681A68F0
:4033800011F0800F02D0111D196007E011F0400F02F10401196001D0138800E01368227E5C496F2A14BF0A2208221BE078225A4984F845202268186812F0800F00F10405E0
:4033C0001D6003D1550601D5038800E00368D00744BF42F0200222601BB9226822F0200222601022002084F8430001E049490A226568002DA56008DB206820F00400206003
:403400002BB9002D7DD175460CE0002B79D07546B3FBF2F002FB1033CB5C05F8013D03460028F5D1082A0BD12368DA0708D5236962689A42DEBF302305F8013C05F1FF3511
:40344000C5EB0E0323612EE008681A6810F0800F496903D0101D1860136808E010F0400F02F104001860136801D0198000E0196000232361754616E01A68111D19601568F1
:4034800000216268284600F059F808B1401B6060636804E004F1420584F8422001232361002384F84330CDF800803B4603AA21463046FFF797FE013002D14FF0FF3026E0C8
:4034C00023692A4639463046C0470130F5D023689B0710D5002504F1190907E001234A4639463046C0470130E7D00135E368039A9B1A9D42F2DBE068039B9842B8BF1846FD
:4035000005E00B7804F1420584F842308AE705B0BDE8F083F23A0000033B000038B5064C0023054608462360FEF7A8F8431C02D1236803B12B6038BDA895FF1F10B5C9B2B2
:4035400002449042034605D01C7801308C42F8D1184610BD002010BD884210B501EB020301D8421E0BE09842FBD28118D21AD34204D013F8014D01F8014DF8E710BD9942C1
:4035800004D011F8014B02F8014FF8E710BD70477047F8B5074615460E4621B91146BDE8F840FFF773BC1AB9FFF724FC2846F8BD00F015F885420ED929463846FFF766FCA6
:4035C000044650B131462A46FFF706FB31463846FFF710FC01E03046F8BD2046F8BD51F8040C0028BEBF091851F8043CC0180438704700000000000066640000626B00007A
:403600006C74000072740000494E56414C494420414E474C453A20256420287573652034352F39302F3133352F3138302F3232352F3237302F333135290D0A00766F7765B4
:403640006C0000004E4F4E4500000000286E6F74206D6164652079657429000043414D4552412054494D454F5554202D3E20766F77656C3D4E4F4E450D0A0000564F574556
:403680004C204E4F573A2025730D0A004E4F20564F57454C532044455445435445440D0A0000000043414D4552412044455445435445443A20410D0A0000000020000000AE
:4036C0007265706561740000574149545F524553554C5400534554544C494E47000000004D4F56494E47000052454144590000006D616B6500000000425553593A20636128
:403700006D3D25642825732920776169743D2564207768696C653D2564206964783D256420636E743D2564206D733D256C750D0A000000004D414B45205550444154453AE8
:40374000202573203D2025730D0A00004D414B45204E45573A202573203D2025730D0A005641524941424C453A202573203D2025730D0A005641524941424C45204E4F5464
:4037800020464F554E443A2025730D0A000000006966656C736500004946454C5345205155455545443A202573203D202573205B25735D205B25735D0D0A00007768696C99
:4037C000650000005748494C4520434D4420434F554E543D25640D0A000000005748494C453A202573203D3D2025730D0A0000005748494C4520424F44593D5B25735D0D3C
:403800000A00000041434345505445443A2063616D3D2564206D733D256C750D0A00000044454255473A20636F756E743D25640D0A00000051554555455B25645D3A20743F
:403840007970653D256320706172616D3D2564207265706561743D25640D0A00494620545255450D0A00000049462046414C53450D0A000055415254322052454144590D79
:403880000A00000053544152542E2E2E2E2E2E2E2E2E2E2E000000005748494C45204C4F4F5020414741494E0D0A00005748494C4520454E440D0A00414654455220574854
:4038C000494C453A206964783D256420636F756E743D25640D0A000057414954494E4720464F5220554152542E2E2E0D0A0000004946454C53453A202573203D3D20257350
:40390000203F2025640D0A005748494C4520545255450D0A000000005748494C452046414C53450D0A0000004D3D256420533D256420453D25642050574D5F733D2564201A
:4039400050574D5F6D3D25640D0A00004C54204D3D256420533D256420453D25642050574D5F733D25642050574D5F6D3D25640D0A0000005254204D3D256420533D2564F8
:4039800020453D25642050574D5F733D25642050574D5F6D3D25640D0A000000004F0040180000510040100030510040400000000140800A000B01400005001401400008B1
:4039C00000400140000A004C014000020050014020000000800A0140F80B0048800000202020202020202020282828282820202020202020202020202020202020202088B6
:403A00001010101010101010101010101010100404040404040404040410101010101010414141414141010101010101010101010101010101010101010110101010101004
:403A40004242424242420202020202020202020202020202020202020202101010102000000000000000000000000000000000000000000000000000000000000000000032
:403A80000000000000000000000000000000000000000000000000000000000000000000000000000000000000000000000000000000000000000000000000000000000006
:403AC000000000000000000000000000000000000000000000000000000000000000004300232D302B2000686C4C006566674546470030313233343536373839414243447D
:403B00004546003031323334353637383961626364656600F8B500BFF8BC08BC9E4670474D000000F9160000F8B500BFF8BC08BC9E46704729000000483B0000C880FF1F2C
:403B4000800000006814000000000000B095FF1F0000E02EC05D00001800000000366E01DE39000000000000000000000000000000000000000000000000000000000000E7
:403B800000000000DF3A00000000000000000000000000000000000000000000000000000000000000000000000000000000000000000000000000000000000000000000EC
:403BC00000000000E480FF1F000000000000000000000000000000000000000000000000000000000000000000000000000000000000000000000000000000000000000043
:403C00000000000000000000000000000000000000000000000000000000000000000000000000000000000000000000000000000000000000000000000000000000000084
:403C40000000000000000000000000000000000000000000000000000000000000000000000000000000000000000000000000000000000000000000000000000000000044
:403C80000000000000000000000000000000000000000000000000000000000000000000000000000000000000000000000000000000000000000000000000000000000004
:403CC00000000000000000000000000000000000000000000000000000000000000000000000000000000000000000000000000000000000000000000000000000000000C4
:020000040003F7
:0200000480007A
:40000000034F00400752004007640040036500400400014001010140040301405A0601404207014052080140470901401A0A01404C0B0140570C0140490D01404A0E01404A
:40004000330F01406E1401404515014046160140471701406218014047190140531A0140561B0140034001400741014007420140064301400B4501400746014006470140D9
:40008000014801400B4C0140084D014007500140015101400A4B0D10164B0804090410201101144061807C20860F8838890F8B0F8C728E728F38866F896F8B0F39023F0110
:4000C00059045F012102A902AD02E080EA04043106C60720083009040A400B080C310D020E4E0F1D111C1504165317081A081CAC1E431F032103251C2A8C2B102D103101DA
:4001000032F03502360F373C3A883F11540F580459045B045C035F0180DC8222841085CF86408730899E8B608C14930F941096AC99739A03A009A1FDA2D0A302A994AA20B5
:40014000AB60AC0CAD30AE71AFC9B41FB5FFB6E0BA80BB08BF10C004C504C9FFCA07CBFFCC40CD20CEF0CF05D008D280D804D904DA04DB04DC33DD03DF01E040E1A8E240AA
:40018000E320000202220504060509080A080C280E021048120115101A081B401C021D0C1E02210423042440254026102701280329112A202C012D042F64333134083541FE
:4001C0003702380439203B083D803E203F044008411148204A2050085C405D045E205F02700182018340840885048D049A02AE02C0EDC2E6C44BCAFDCCD5CE76D001D6F0A0
:40020000E00EE680EE08015C020403030561070E08011002131C14081561171618081B081E042201272328012C0830043203331A34083560370F380839203B883E013F10A1
:400240004002450449FF4A074BFF4C404D204EF04F05500854185604580459045A045B045C235D225F01604061A862406320830485048C018D028E069001920298029A01AB
:400280009B039F0CA801AA0AB004B101B304B403B508B608B702BA20BF44D280D40FD804D904DB04DC10DD10DF01018006880A440C010D140E0212081440158017101980CF
:4002C0001A441B101C081E201F0120442312240125A42F20302032803509362438463C013D0C3E0245204E204F04551056205720580A5AA05D01678A70018310840187020A
:400300008B408E0891A99308950499019A809E20A205A301A404A594A702AE04B208B431B580C051C2FAC4D2CA40CCECCECBD020D68FD8B0E010E680001C02E306E307013E
:4003400008820CFF1041141F16E018C31CF31E0C20082404280C30C0322C33013410360F3A883E10580459045C135F01002A030204100501062008010A210B040D800E20C6
:400380000F2010A815141602180219141AA11D011E081F44220424402540268027142D802F083404364037043A083C403E04454147104BC04E0A56825C085E205F417910AC
:4003C0007A047C027E40901091A9920493059460951098099C269D94A0B9A101A24BA319A404A514A680A702B001B210B501B684B730C07FC2AFC4EECA30CC50CE52D0B0D8
:40040000D230D6F0003F0110040C05080633080109180C020D801033113C120C13C2140315E717181A131B041C0F1DFF1E302008211C23E1240C27E3280429C02D44313851
:400440003220331F340F361C37C038083AA03B0856025711580459045B045C225D205F01856789679544972A99029B15AD21AFCAB180B360B507B718BF40C036C104C20564
:40048000C401C60CC7E0C824C9FFCAFFCBFFCC62CDA0CEF0CF41D00CD904DA04DC30DD03DF01E640E702E910EA30EB10ED10EE10EF12046007500C040E49162417011C142E
:4004C0001E012021210122142304240225012601271028012C042D802E012F203214350136083760380239293C403E2A40214108430248044B60500253805E2060086220AB
:400500006E846F08762E77018004824891A8934194049512960197209B609C029D949E109F10A0A9A232A311A402A51CA782A901C0F0C2F0C470CAF8CCF6CEF6D00BD20C85
:40054000D620E080030405180A010B230C020F40113F14021527171819081A021D1022022340251C272129042D3C2E012F023138320234013540371F38083B803E103F10F5
:4005800056025711580459045B045C335D305F0184019C01A801A901AC01AF02B201B302B501BB02BE04BF10C062C103C5E0C6C0C7BEC83AC9FFCAFFCBFFCEF0CF44D00C08
:4005C000D418D604D804D904DA04DB04DC20DD32DF01E6C0EA40EB02001003020404081009080E01100212C01750181019201E2020422280234426222760281029042A50BF
:400600002B802D802F0830A031083302384839023B2045144D104F01571959105C026401652169A870AC88018B04C023C286C4C9CA3FCC0FCE0FD060D220D684D8B00010DD
:400640000260040C05CA06020715081009CC0A200B230C070D77110313FC140C15851601171A1C281DBF1E111F40200B2204241026A02A0F3080324033F0340F3630370FAE
:400680003A804013410449FF4AFF4BFF4DA04F015018580459045A045C115F016040628064406540668068406A806C406D206E808D028F0490089102930C99049B029C0652
:4006C000A102A314A406A609A804AF01B001B108B204B306B408B501B602B710B888BB08BE14C013C104C52CC630C74EC83BC9FFCAFFCBFFCDAFCE07CF01D018D804D90498
:40070000DA04DC10DF01E040E280E440E540E680E840EA80EC40ED20EE800004014203080A020B100E400F0212A816201710180419021A021B081D481E4422C423102440FC
:40074000262827222E022F0132493722380439403B103C4041484341450847414F0656298140824087208A058C048E0291809302960497049A029B119D409E09A602A701AC
:40078000A901AA04AC90AE01AF10B204C00FC295C46ECA90CCABCE1ED0DBE002E401E604EA01EE010004056C07010D5B0F041002110813011537196C1B021E03270F2E0C80
:4007C0003001320233703404350F360839083E14540F580459045B045F058010826083408407853C87018810891C8A208B228C0F8D409005920A9423961C97D0980A99374D
:400800009A05A010A12BA2A0A314A80CA928AA03AB01AD20AF0FB00FB180B240B338B430B50FB680B740BA20BF40D804D904DF01004003980401080909200E400F0211227B
:400840001601184019111BA81C211E401F502008217823402404251026182710280929112F203108331034013618380639203B403C485C805D105E05660867047E0883013E
:400880008510870189019002920894049522978098019A029B019D519E049F10A602A802AC40AD10B001C01FC29EC48ACA4DCCE6CE5FD6F0D860DE20E604EC40EE090009AE
:4008C00002100410060C070108E00E0312A0168018101C141D0220402280240C261128E02C1C2E023260330234803501361F38083E143F044063410449FF4AFF4BFF4DA08C
:400900004F015018580459045A045C025D015F016040628064406540668068406A806C406D206E80800488018B048F03910293019503A203B001B202B304B404B502B7018D
:40094000BE11BF50C063C104C542C6C3C70EC81FC9FFCAFFCBFFCDAFCE07CF01D018D40FD804D904DA04DB04DC01DD11DF05E040E280E440E540E680E840EA80EC40ED20FD
:40098000EE8000100380056906080C010E100F2610801440150416021710181819041A401C041D401F082258262430303106354038403B203D08410242204502462047084A
:4009C00048A04B104F105040512858105A485B026128780881048B089104931496A0984199099A0A9B129C0AA301A420A688AB10AE10B040C0FAC2F0C4F8CC13CE4CD0C32D
:400A0000D224D60FD806DE02E224E604E880EC40000A0406051809200D030F2011081310140C15181704180C19031F0421142308290D2D1C2E01310232013320340E3501BA
:400A4000371C382039223F14580459045C115F01800781CF8330840185948602876088078D9E8E048F60913093C998049C109DFD9F02A207A573A608A801AA02AF0FB00FE4
:400A8000B410B5FFBE10BF10C061C102C5E0C6C0C70BC81AC9FFCAFFCBFFCEF0CF44D00CD401D804D904DA04DB04DC01DD33DF01E6C0EA40EB020360051006220740082072
:400AC00009040C800F04114016881704181019101B201D021E081F012040228423082704280829102B412E802F2130203104328236023740389039403A083E0A3F82440167
:400B000047104C804D21540857105D015E5880068104824083608602870488208A0A8C088D048E208F409084921094409608980199209B109C0A9F08A020A502A680A710F6
:400B4000AA34B390B404C0FCC2C6C471CA5DCC9FCEDED030D220D6F0E0A0E440E610E880EC0433103580CC308B0493049B049D80AB14AF04EAE05B045F04930497089B0492
:400B80009D80D6C019011F04898097089D80C63005100A040B4058405C028840C001C20AD401D601E0010404934099109C02B204C004EE0499109C02B340B404EA04EE02E6
:400BC000B50109200C105402813099109C02A002B402C203D604EC0270019002A801B010B402DC01E808EA04000F0A090C0F0E0C100F1A031C0F000F0000200002E7940080
:400C00000000400000440031000000000C01900E0000000028809100000000008D0010008DE7300000224051036040183C07808002002000000044046105040002000CE067
:400C400024FFFFFF62A0F0410C00000001000000040404042222000100000000000040020010301000101012000000000000000000000000000000008000008080008000FA
:400C8000000000002000000000000000C00000FF3F00040000000000200058272700210000000000000000000000000000000000000000000000000000000000000000002B
:400CC00000000000000000000000000000000000000000000000000000000000000000000000000000000000000000000000000000000000000000000000000000000000F4
:400D000000000000000000000000000000000000000000000000000000000000000000000000000000000000000000000000000000000000000000000000000000000000B3
:400D40000000000000000000000000000000000000000000000000000000000000000000000000000000000000000000000000000000000000000000000000000000000073
:400D80000000000000000000000000000000000000000000000000000000000000000000000000000000000000000000000000000000000000000000000000000000000033
:0200000490006A
:0400000000004005B7
:0200000490105A
:04000000BC90ACAF55
:0200000490303A
:02000000EAF91B
:0200000490402A
:4000000000000000000000000000000000000000000000000000000000000000000000000000000000000000000000000000000000000000000000000000000000000000C0
:400040000000000000000000000000000000000000000000000000000000000000000000000000000000000000000000000000000000000000000000000000000000000080
:400080000000000000000000000000000000000000000000000000000000000000000000000000000000000000000000000000000000000000000000000000000000000040
:4000C0000000000000000000000000000000000000000000000000000000000000000000000000000000000000000000000000000000000000000000000000000000000000
:0200000490501A
:0C00000000012E16106900012E2FFB627B
:00000001FF