:400000000080002011000000592800005928000008B5044B1A6803F53F5302331A6002F03BFC00BFFA46004010B5054C237833B9044B13B10448AFF300800123237010BD3C
:400040009881FF1F00000000947C0000084B10B51BB108490848AFF300800848036803B910BD074B002BFBD0BDE81040184700BF000000009C81FF1F947C0000C880FF1F42
:400080000000000038B50546002411E004EB8402D30029460948184404F044FF38B904EB8404E0001030054B1844043038BD0134034B1B689C42E9DB002038BD24C6FF1F36
:4000C000B481FF1F10B5052403E00130FFF7DAFF013C20B103783A2B01D1002CF5DC10BD30B108B5FFF7EEFF20B104F086FE08BD00207047002008BD2DE9F84306460C4618
:400100000846FFF7DFFF074600B9274600241CE004EB8402D30031461F48184404F002FF90B9A6003219D30010331B4D581913223946043004F025FF3444E3002B4400227E
:4001400083F82720BDE8F8830134144B1D68AC42DEDB092D1DDC4FEA850808EB0503DC00DFF834904C4413223146204604F009FF0026E674A8444FEAC8001030484413226A
:400180003946043004F0FDFE84F827600135034B1D60BDE8F88300BF24C6FF1FB481FF1F2DE9F0470C68944236DA1C4A55681D2D32DC0C4606464FEA850808EB05024FEAA6
:4001C000C20A174FBA4413221946504604F0D9FE4FF000098AF8139008EB0503D8001030384413220899043004F0CBFE8AF8279023681B016D22F254236806EB0313074980
:400200004A68501C48605A60206806EB00160123B360236801332360BDE8F087B481FF1F78A4FF1F38B50C46FFF72CFF054623783A2B03D1601CFFF725FF04463DB144B14B
:400240002146284604F06EFE28B9012038BD002038BD002038BD002038BD00BF0028B8BF4042B42817D006DC5A2822D087280FD02D281CD109E0B0F5877F12D040F23B1354
:40028000984211D0E12812D108E040F21450704740F6D860704741F25040704741F64610704741F67860704742F2F0307047002070474FF4166070470138132805D80029ED
:4002C00005DD142905DD0020704700207047002070470120704700BF10B505E00E49204604F094FA0D4B98600C4B9C680021204604F032FD0028F1D105E00749204604F02A
:4003000083FA064B9860054B9C680349204604F037FD0028F1D110BD0000B443B481FF1F0A38C0B204288CBF00200120704700BF2DE9F8430F4E4FF4C8794A46002130468D
:4003400004F097FD0C4C0A25256065600B4F4FF00008C7F80880012386F8BD304A463146074804F07BFDA560E560C7F80C80BDE8F88300BF30A0FF1FCC80FF1FB481FF1FCC
:4003800018C8FF1F08B54FF4C8720649064804F065FD064B1A689A605A68DA60044B9A68DA6008BD30A0FF1F18C8FF1FCC80FF1FB481FF1F2DE9F04F83B0044600913F4965
:4003C0003F4BD86804F02AFB3E4904F0DBFB064602F0F2FE02F0C4FE0546304602F084FE02F0BEFEC0F100090CB96D428146364BD3F808A005EB0A08DC6809EB0407394657
:400400004046FFF759FF034618B9304A00990A604FE07E1E08F1FF3B06EB860293002C4A134413F80B300193022B04D1294B009A136000233DE025B1B9F1000F03D1002357
:4004400002E0002300E00123CBB1013C04EB8404A2001F490A4412F80B20022A0AD00AF1FF3A06EB86018A0019490A4412F80A20022A04D1174B009A1360002319E043B116
:400480000198FFF74DFF20B1134B009A136000230FE00D4BC3F80880DF60019B43B906EB8606B3000A4A1A44012302F80B3000E00123184603B0BDE8F08F00BFDB0F4940FB
:4004C000B481FF1F00003443CC80FF1FB07C000018C8FF1FB87C0000C47C000070B588B0002548E06C1C002336E0591C2D4A1268914203D12B4A5268944225D005EB850043
:40050000820029480244D25C0E2A1BD8DFE802F0081E0A0C0E1A1A1A1A1A1012141618002E2214E0232212E0532210E044220EE061220CE065220AE0692208E06F2206E042
:40054000752204E03F2202E0542200E02A2208A8034403F8182C0B46132BC6DD0D238DF81C300A238DF81D3000238DF81E3002A802F09CFB2546132DB4DD0A4B5E681D68AE
:400580000A4C0B4B986804F00FFC009033462A460849204604F076FC204602F087FB08B070BD00BFCC80FF1F30A0FF1F28A9FF1FB481FF1FCC7C00002DE9F04F83B0DDF83D
:4005C00030A00C68944280F2BC80984691460C460546662B01D0622B63D1B8F1660F14BF4FF0000B4FF0010B574B01930026374606E001A95846FFF7DDFE18B10137013628
:400600005645F6DB574509D0504E019B3A465049304604F037FC304602F048FB002F40F390804C494C4BD86804F0F8F94B4904F0A9FA824602F0C0FD02F092FD0646504676
:4006400002F052FD02F08CFD1EB128B940F26C7104E040F26C7101E040F68C2100221AE023681B0105F80380236805EB0313B8F1660F01D1484200E008465860236805EB99
:40068000031301209860236805EB0313D8602368034423600244974253DD23689945DFDC4FE06C2B01D0722B4BD123681B0105F803805046FFF7D2FD236805EB0313B8F16E
:4006C0006C0F00D040425860236805EB031301229A60236805EB03150023EB60236813442360B8F16C0F05D1504604F043F900F1004103E0504604F03DF90146164CE068DB
:4007000004F084F8E06005E01549204604F07EF8114BD860104BDC680021204604F01CFB0028F1D105E00E49204604F06DF80A4BD860094BDC680A49204604F021FB002836
:40074000F1D103B0BDE8F08FC87E000028A9FF1FE87C0000DB0F4940B481FF1F000034430000B443002208E05B2B01D1013203E05D2B01D1013A04D001300378002BF3D197
:40078000002070472DE9F04F83B0063000E001300478202CFBD03A2C40F0B8800130634C24691D2C00F3B48015689D4280F2B280002607E00130C4EB04173B015C4F3B44E7
:4007C0009D5501360578202D02D00DB1122EF1D9C4EB04152B01564D2B4400259D5500E001300378202BFBD03D2B02D1013000E001300378202BFBD0222B00D10130002729
:4008000008E00130C4EB04163301494E33443B441D7501370578202D02D00DB1122FF0D9C4EB04152B01424D2B441F4400233B7500E001300378202BFBD05B2B6CD11546FF
:400840000E4600F10109FFF78DFF0746002865D0013000E001300378202BFBD05B2B5FD100F1010AFFF77EFF019000285AD0C9EB0707632F00D963274FEA0418C4EB08035C
:4008800018012830DFF8A8B03A464946584404F078FBC4EB08084FEA08139B445F44002387F82830019BCAEB0307632F00D963274FEA0418C4EB080213018833DFF87090F3
:4008C00003EB09003A465146043004F05AFBC4EB0804230199444F44002387F88C302B681B016922F2542B6806EB03130F490A69501C08615A602B6806EB03160123B36078
:400900002B6801332B60019801300CE000200AE0002008E0002006E0002004E0002002E0002000E0002003B0BDE8F08FB481FF1FF0A9FF1F10B5064C02460649204604F088
:40094000A1FA204602F0B2F9002002F0A3F910BD28A9FF1FF87C000038B50C46FFF792FB054623783A2B03D1601CFFF78BFB04463DB144B12146284604F0D4FA28B901205C
:4009800038BD002038BD002038BD002038BD00BF08B502490248FFF7DFFF08BD2482FF1FA8C9FF1F08B501460348FFF7A5FB034A53690133536108BDC47C0000B481FF1FD8
:4009C0002DE9F041804607786C2F01D0722F16D1D8F80400FFF742FC6C2F04D103F0CAFF00F1004102E003F0C5FF0146274CA06803F00CFFA060FFF76FFCBDE8F081662FAC
:400A000001D0622F40D1D8F80C30002B37DCBDE8F0811F491D4B986804F000F81D4904F0B1F8044602F0C8FB02F09AFB0546204602F05AFB02F094FB4342662F01D06D428B
:400A400000E01846144A13681D4415605368C418546021462846FFF72FFC70B1013C013D04EB840293000D4A13445B5D2BB904EB8404A300134401225A55013600E00026DA
:400A8000D8F80C309E42C4DBBDE8F081B481FF1FDB0F494000003443CC80FF1F30A0FF1F30B58DB04E2811D1204B03F11004204A92E80300186119752046FFF773FF2046F1
:400AC000FFF738FF1B4802F0DDFA2CE00446A0F16103DBB2192B02D8A0F12004E4B2412C07D0452C05D0492C03D04F2C01D0552C19D104F120038DF82C3000238DF82D30D5
:400B00000D4D0BA9284604F017FA2846FFF74AFF2846FFF70FFF2246084901A804F0B2F901A802F0AFFA0DB030BD00BFCC80FF1F207D0000287D0000DC80FF1F407D000084
:400B40002DE9F0474D4BDD691D2D00F38780053013681D2B01DD84E001300378202BFBD03A2B40F081800130002406E001308C26434F06FB0576335501340378202B02D0F3
:400B80000BB1122CF2D98C233D4E03FB056300261E5500E001300378202BFBD03D2B02D1013000E001300378202BFBD0222B00D10130002407E001308C23314F03FB057357
:400BC00023441E7501340678202E02D00EB1122CF1D98C232A4E03FB05631C440023237500E001300378202BFBD05B2B3FD11746884600F10109FFF7B5FD0446002839D038
:400C0000C9EB0006632E00D963268C2303FB05F505F12800DFF868A032464946504404F0B0F955443544002385F828303B681B01772208F803203B6808EB03130F49CA696F
:400C4000501CC8615A60396808EB011101238B603B6801333B60601CBDE8F0870020BDE8F0870020BDE8F0870020BDE8F0870020BDE8F0870020BDE8F08700BFB481FF1F28
:400C8000BCC9FF1F2DE9F0439DB004460E4615460AE101342378202BFBD0002B00F00A8105228649204604F057F948B92A4631462046FFF745FF0446002840F0F580F9E073
:400CC00006227F49204604F047F950B91E232A4631462046FFF756FD0446002840F0E480E8E004227749204604F036F900283FD1043400E001342378202BFBD0222B00D1F9
:400D00000134002305E001341CA9194401F8682C01332278202A02D00AB1122BF3D91CAA1344002203F8682C00E001342378202BFBD0222B00D10134002305E001341CA9FB
:400D4000194401F8342C01332278202A02D00AB1122BF3D91CAA1344002203F8342C0FAB009302AB1E2229463046FFF719FA9BE006225549204604F0EFF8002845D1063453
:400D800000E001342378202BFBD02046FFF7A8F9074600E001342378202B03D0002BF9D100E001342378202BFBD05B2B7CD12046FFF7D8FC814600287CD0611CC1EB00082B
:400DC000B8F1310F01D94FF03108424602A804F0D8F81CAB9844002408F8684C09E002A90FA804F0A9F82A4631460FA8FFF74AFF0134BC42F3DB09F1010455E01CA9194433
:400E000001F8342C0134013300E000232278202A02D00AB1082BF1DD1CAA1344002203F8342C00E001342378202BFBD02046FFF757F9074600E001342378202B01D0002B2B
:400E4000F9D122490FA804F06DF838B9009766231E2229463046FFF7AFFB25E01C490FA804F060F838B9009762231E2229463046FFF7A2FB18E017490FA804F053F838B9E6
:400E800000976C231E2229463046FFF795FB0BE011490FA804F046F830B9009772231E2229463046FFF788FB23781BB12B681D2B7FF7F0AE1DB0BDE8F08300BF587D0000B1
:400EC000607D0000687D0000707D0000787D00007C7D0000807D0000847D000008B5024A0249FFF7CFFE08BDD481FF1F509EFF1F2DE9F0438DB004460F461646FEE0013468
:400F00002378202BFBD0002B00F0FE8005228049204604F021F848B9324639462046FFF70FFE0446002840F0E980EDE006227949204604F011F850B91E23324639462046D7
:400F4000FFF720FC0446002840F0D880DCE006227149204604F000F898BB063400E001342378202BFBD02046FFF7BAF8804600E001342378202B03D0002BF9D100E0013476
:400F80002378202BFBD05B2B40F0BE8004F101092046FFF7E7FB0446002800F0B5800025057005E0324639464846FFF7A1FF0135454502DA33681D2BF4DD5D2304F8013B16
:400FC0009CE004225549204603F0C6FF002846D1043400E001342378202BFBD0222B00D10134002305E001340CA9194401F8282C01332278202A02D00AB1122BF3D90CAA03
:401000001344002203F8282C00E001342378202BFBD0222B00D10134002305E001340CA9194401F8142C01332278202A02D00AB1122BF3D90CAA1344002203F8142C07AB7D
:40104000009302AB1E2231463846FFF7A9F855E001340CA9194401F8142C013300E000232278202A02D00AB1082BF1DD0CAA1344002203F8142C00E001342378202BFBD0D6
:401080002046FFF72DF8054600E001342378202B01D0002BF9D1224907A803F043FF38B9009566231E2231463846FFF785FA25E01C4907A803F036FF38B9009562231E220F
:4010C00031463846FFF778FA18E0174907A803F029FF38B900956C231E2231463846FFF76BFA0BE0114907A803F01CFF30B9009572231E2231463846FFF75EFA23781BB1CD
:4011000033681D2B7FF7FCAE0DB0BDE8F08300BF587D0000607D0000707D0000687D0000787D00007C7D0000807D0000847D000008B5044A002342F8243F0349FFF7D8FEC5
:4011400008BD00BFB481FF1F3882FF1F10B308B5024603780BB3124909681944497811F0030113D04078202804D018B10D2801D00A280BD1022900D1203BD9B24139C9B265
:40118000132903D8DBB2A3F1400008BD104603F034FE08BD4FF0FF3070474FF0FF3008BDF880FF1F2DE9F04FA1B001F05DFDAC4B83F8280020B993F82930002B00F04F858D
:4011C0000D2804D00A2802D0002840F03D85A44B93F82930002B00F0428510B1A14801F065FD9F4B93F8293000219F4AD154012B21D953783A2B21D11578A5F15303DBB2CB
:40120000012B0ED9412D0ED0562D0ED00D46144616E00D2B01D00A2B01D120231370013204E0924A02E0914A00E0904A1378002BEFD18E4C04E000258B4C01E000258A4CFF
:40124000412D01D0562D05D10022854B83F8292000F005BD04228649204603F07DFE834610B9532D40F0B8847D4B00221A62DA621A615A60DA611A63FFF784F800F0ACBCCE
:4012800001342578202DFBD0002D00F0AC8406227849204603F060FE00283CD1063400E001342378202BFBD02046FEF719FF064600E001342378202B03D0002BF9D100E0C0
:4012C00001342378202BFBD05B2B40F08584671C2046FFF747FA0446002800F08484C51B312D00D931252A46394606A803F049FE20AB2B44002503F8685C07E006A913A80C
:4013000003F01AFE13A8FFF7E9FD0135B542F5DB013400F061BC04225549204603F01CFE002840D1043400E001342378202BFBD0222B00D10134002305E020A9194401F8E4
:40134000682C013401332278202A02D00AB1122BF3DD20AA1344002203F8682C00E001342378202BFBD0222B00D10134002305E020A9194401F8342C013401332278202A33
:4013800002D00AB1122BF3DD20AA1344002203F8342C13AB009306AB1E2237493748FEF7FFFE00F019BC3A2D2CD10134002305E020A9194401F8342C013401332278202A90
:4013C00002D00AB1122BF3DD20AA1344002203F8342C13A8FEF756FE034648B1284D13AA2849284603F04EFD284601F05FFCF3E3234D13AA2449284603F044FD284601F0F5
:4014000055FCE9E306222149204603F0A5FD002840F0D780063400E001342378202BFBD03A2B40F0D9830134002305E020A9194401F8682C013401332278202A02D00AB198
:40144000122BF3DD20AA1344002203F8682C00E001342378202BFBD03D2B1AD1013418E0B481FF1FB87F000078A3FF1F7AA3FF1F687D0000707D0000D481FF1F509EFF1FF8
:4014800028A9FF1F887D00009C7D0000607D000001342378202BFBD0222B00D10134002305E020A9194401F8342C013401332278202A02D00AB1122BF3DD20AA1344002258
:4014C00003F8342C00E001342378202BFBD05B2B40F08283631C1D4603932046FFF742F9002800F07983C5EB0009441C00E001342378202BFBD05B2B40F06E83631C1D4685
:4015000004932046FFF72EF90590002800F06483471BB9F1630F01D94FF06309632F00D96327B84B1D691D2D00F35D832E01731B1C01DFF824834444132206A9204603F042
:4015400020FD4FF0000A84F813A0721B1301103303EB0800132213A9043003F012FD84F827A0721B130103F128004A460399404403F007FDA14489F828A0761B3301883380
:4015800003EB08003A460499043003F0FAFC3C4484F88CA0059C01349A4B196A9A4A090169205054196A681C186102EB01114D60196A02EB0112012191601A6A0A441A626A
:4015C0000AE305229149204603F0C6FC002840F08780053400E001342378202BFBD03A2B11D10134002203E089498B54013401322378202B02D00BB1122AF5DD0021844B78
:40160000995400E001342378202BFBD03D2B02D1013400E001342378202BFBD0222B00D10134002203E07B498B54013401322378202B02D00BB1122AF5DD0021754B99540E
:4016400000E001342378202BFBD05B2B40F0C482651C2046FFF786F80746002800F0BC82441B632C00D963246B4E22462946304603F087FC00233355624C01216163226A15
:40168000614B120177209854226A03EB02124FF0FF305060226A03EB02139960236A0B4423623046FFF744FD5C4D626A5C49284603F0E8FB284601F0F9FA564B544A594915
:4016C000284603F0DFFB284601F0F0FA32465649284603F0D7FB284601F0E8FA7C1C7BE205225249204603F037FC30B90534FEF71FFE4F4801F0DAFA6EE207224D49204693
:4017000003F02AFC002834D1073400E001342378202BFBD0204603F06DFB03F021F8054604E04549284603F071F805460021284603F012FB0028F4D104E03F49284603F07A
:4017400063F805463C49284603F01AFB0028F4D12C4B9D60DD60284602F074FD2F4D02460B463649284603F08DFB284601F09EFA32E203223249204603F0EEFB00286DD189
:40178000033400E001342378202BFBD02046FFF7DDFC054600E001342378202B03D0002BF9D100E001342378202BFBD0204603F024FB064601462846FEF77EFD18B9214800
:4017C00001F074FA08E2204B1D605E609D60DE60731E691E9F00F81882001C480244012050543B449A001A4B1A4450540B4F33462A461849384603F045FB384601F056FA73
:40180000EAE100BFB481FF1F509EFF1F587D0000A8C9FF1F2482FF1FB4C7FF1F28A9FF1FB87D0000D07D0000E47D0000F87D0000007E0000107E00000000B443187E00001E
:40184000347E0000387E0000CC80FF1F30A0FF1F18C8FF1F547E0000F0A9FF1F0522A249204603F079FB18B90534FEF737FEB3E108229E49204603F06FFB60B106229C4988
:40188000204603F069FB30B104229A49204603F063FB002877D113AA9749204603F016FB13A803F051FB044400E001342378202BFBD02046FFF74AFC054600E001342378AE
:4018C000202B03D0002BF9D100E001342378202BFBD0204603F091FA064601462846FEF7EBFC18B9854801F0E1F975E17F4913A803F018FB78B9731E6A1E9F00F81881008C
:401900007F480144022088543B4403FA00F17D4B194488542BE0764913A803F003FB98B9794B1D605E609D60DE60731E6A1E9F00F818810072480144032088543B449900CF
:40194000704B1944885412E06A4913A803F0EAFA68B9731E6A1E9F00F818810068480144042088543B449900664B19448854674F00962B4613AA6649384603F083FA384646
:4019800001F094F928E105226249204603F0E4FA00286ED1053400E001342678202EFBD0013400E001342378202BFBD02046FFF7CDFB074600E001342378202B03D0002BC6
:4019C000F9D100E001342378202BFBD0204603F014FA8046504B1B6833445B7803F00303012B02D106F1200300E03346613B142B0CD8DFE803F0150B0B0B0D0B0B0B0F0B60
:401A00000B0B0B0B110B0B0B0B0B1300002508E00B2506E00C2504E00D2502E00E2500E00A2541463846FEF747FC00B11DB93B4801F03CF9D0E008F1FF33791E980000EB2F
:401A4000030E4FEA8E02DFF8B8E07244555403449A002C4B1A4455542C4DCDF800803B4632462F49284603F00DFA284601F01EF9B2E00A222B49204603F06EFA002855D111
:401A80000A3400E001342378202BFBD0224A12681A44517801F00301012902D103F1200200E01A46D2B2612A07D0652A05D0692A03D06F2A01D0752A0BD1022900D1203BE1
:401AC0008DF84C3000238DF84D3013A8FEF732FF82E0154801F0EAF87EE020A9194401F8342C0134013322E0707E0000787E0000847E00008C7E0000947E0000987E0000ED
:401B000030A0FF1F18C8FF1FCC80FF1F28A9FF1FB47E0000CC7E0000F880FF1FD47E0000F47E0000107F00001C7F000000232278202A02D00AB1082BCFD920AA13440022AE
:401B400003F8342C00E001342378202BFBD06BB1202B0DD02046FEF7C3FA054600E001342378202B05D0002BF9D102E0012500E001253C4913A803F0D5F938B900956623BA
:401B80001E2239493948FEF717FD25E0384913A803F0C8F938B900956C231E2232493348FEF70AFD18E0334913A803F0BBF938B9009562231E222C492C48FEF7FDFC0BE0BA
:401BC0002D4913A803F0AEF930B9009572231E2225492648FEF7F0FC237823B1274B1B6A1D2B7FF74EABBBF1000F28D0234B1B6A002B24DD214B1A6A214C2249204603F0FA
:401C000041F9204601F052F8002411E017492301CA18CB5C1A4D916801915268009222461949284603F02EF9284601F03FF80134124B1B6A9C42E9DB0122104B9A630022AB
:401C40000E4B83F829200AE00C4B93F82930FF2B05D0591C094A82F829100C4AD05421B0BDE8F08F787D0000D481FF1F509EFF1F807D00007C7D0000847D0000B481FF1F7B
:401C800028A9FF1F3C7F0000507F000078A3FF1F08B524E001F0C8F9A0F14103342B1ED8DFE803F01B1D1D1D1B1D1D1D1B1D1D1D1D1B1B1D1D1D1D1D1B1D1D1D1D1D1D1DFB
:401CC0001D1D1D1D1B1D1D1D1B1D1D1D1B1D1D1D1D1B1B1D1D1D1D1D1B00FEF7E1FE01F0B9F90028D6D108BD2DE9F04F87B062B600F0ACFF01F08AF9B54801F04BF9B5482E
:401D000001F0C0F9B449B548FEF7F6F9FEF710FBB34800F0CBFFB34800F0C8FF00F0A4FE00F0D8FE01F05AF801F08EF800F0AAFE054601F061F80446FFF7AAFFAA4B9B6B91
:401D400043B10022A84B9A6300F09CFE054601F053F8044600F096FE064601F04DF8761BC4EB0008322000F009FE9F4BDB6B002B56D09D4B5A691B6C9A42DDD99A4A01330E
:401D800013640023D363166B9E4238DDFEF700FE30B1954B00225A6401229A649A63CBE7013E4FF4CE6101FB06F7DFF8589207EB090A4FF4C86251468C4803F04FF8DAF825
:401DC0004036DFF82482C8F82430DAF844360133C8F8443007F5C9614944854803F0ACF807F5CB6149440431824803F0A5F8C8F830600123C8F84830C8F838309CE7FEF781
:401E0000C7FD30B1784B00225A6401229A649A6392E7754BDA6A0132DA6201229A638BE7714B9A6CB2B1596C5B6A994212DB002000F08CFD002000F095FD002000F056FFA7
:401E4000002000F05FFF684B00229A640121D9639A6171E7644BD96A1B6A99420CDB002000F074FD002000F07DFD002000F03EFF002000F047FF5FE72AB15B4B5F6C5B4B51
:401E800003EB071704E0584BDF6A5B4B03EB07173B78623B152B00F27383DFE813F088027103710371036F01710371030A0171037103FC0216007103710371037103ED014F
:401EC000710371037103710332007B689A00D118C8004A4E03461033991904313044FEF70BF9414B9B6C23B13F4A536C0133536403E03D4AD36A0133D36201223A4B9A63EB
:401F00001AE7002A00F08B807F688C2303FB07F33B4A03EB0208103313441E1D31464046FEF71AFD034600286ED02F4AD2F83090B9F1030F68DC4FF4CE6303FB09FB314BEE
:401F40000BEB030213464FF4C86228490593184602F084FFDFF890A0DAF824300599C1F84036DAF84430C1F844360BF5C9602049244B184402F0E0FF0BF5CB60214B184430
:401F8000DFF870B05946043002F0D6FF09F10103CAF830304146164802F0CEFF3146584602F0CAFF0026524642F8246F8C2303FB07F328330D4912481844FEF799FFCAF814
:401FC00044600123CAF84830CAF83830B4E600BFA5110000787F0000207D0000C47C0000887F0000B87F0000B481FF1F3882FF1FA8C9FF1F2482FF1F509EFF1F78A4FF1FD0
:40200000BCC9FF1F7C84FF1F23B1BD4B1B6B032B7FF792AEBA4A536C013353648CE67F68002F2FDB8C2606FB07F6B64B06EB0308103633441E1D31464046FEF78DFCE0B1A8
:402040004146B14802F078FF3146B04802F074FFAB4E4FF00008324642F8248F8C2303FB07F32833AA49A7481844FEF741FFC6F844800123B364B3635EE6A14AD36A013316
:40208000D36259E6FEF784FC48B1A24800F00EFE9B4B00225A6401229A649A634CE69E4800F004FE964B00229A64DA6A0132DA6242E67E683201931B4FEA0318974B9844B5
:4020C000921B170110371F44043739464046FEF7A9F88146DFF85CA200903B4642469049504602F0CFFE504600F0E0FDB9F1000F19D08C4800F0DAFD814B9B6C53B1C6EB10
:40210000061633012833884A814984481844FEF7B9FD23E0C6EB0616330128337F481844FEF7DCFE1AE0814800F0C0FD744B9B6C5BB1C6EB061633018833784A98187A4A00
:4021400073490430FEF79EFD08E0C6EB061633018833724A98180430FEF7C0FE684B9B6C23B1674A536C0133536403E0644AD36A0133D3620122624B9A63DDE5D7F804A0C6
:4021800000F03AFE00F07EFCC8EB060B584602F047F857A3D3E9002302F0A8F856A3D3E9002301F0F1FE02F0B3FA8146FF2801DD4FF0FF09B9F1000F01DA4FF00009E62043
:4021C00000F0C6FD5FFA89F000F008FC534642465749584802F056FED04516DB554F334642465549384602F04DFE384600F05EFD002000F0ABFB012000F0B4FB002000F06C
:4022000075FD012000F07EFD96E5DFF828A1E6230293CDF80490CDF800B0334642464749504602F02FFE504600F040FD002000F08DFB002000F096FB002000F057FD002053
:4022400000F060FD3846FEF7BBFB2D4B9B6C23B12B4A536C013353640AE0294BDA6A0132DA62DA6A1B6A9A4202DB0022244B1A620122234B9A635FE5D7F804B000F0BCFDD8
:4022800000F000FCC8F1000AC6EB0A0A504601F0C7FF17A3D3E9002302F028F816A3D3E9002301F071FE02F033FA8146FF2801DD4FF0FF09B9F1000F01DA4FF00009E620A6
:4022C00000F046FD5FFA89F000F088FBD84537DD012000F03BFB002000F044FB002000F005FD012000F00EFD26E500BFAFF30080333333333333C33F0000000000C06C40E5
:40230000B481FF1FBCC9FF1FA8C9FF1F2482FF1F3882FF1F9C7F0000AC7F0000F0A9FF1FBC7F0000D47F0000D881FF1FE07F0000EC7F000028A9FF1F108000001C80000095
:40234000DFF878B2E6230293CDF80490CDF800A0334642469649584602F094FD584600F0A5FC002000F0F2FA002000F0FBFA002000F0BCFC002000F0C5FC3846FEF720FBA8
:402380008C4B9B6C23B18B4A536C013353640AE0884BDA6A0132DA62DA6A1B6A9A4202DB0022844B1A620122824B9A63C4E4D7F804A000F021FD00F065FBC6EB080B5846C5
:4023C00001F02EFF76A3D3E9002301F08FFF76A3D3E9002301F0D8FD02F09AF98146FF2801DD4FF0FF09B9F1000F01DA4FF00009E62000F0ADFC5FFA89F000F0EFFAD045B7
:4024000012DC334642466C496C4802F03BFD012000F09CFA002000F0A5FA012000F066FC002000F06FFC87E4DFF890A1E6230293CDF80490CDF800B03346424660495046B7
:4024400002F020FD504600F031FC002000F07EFA002000F087FA002000F048FC002000F051FC3846FEF7ACFA524B9B6C23B1514A536C013353640AE04E4BDA6A0132DA62C4
:40248000DA6A1B6A9A4202DB00224A4B1A620122484B9A6350E4D7F804A000F0ADFC00F0F1FA06EB080B584601F0BAFE3CA3D3E9002301F01BFF3CA3D3E9002301F064FD75
:4024C00002F026F98146FF2801DD4FF0FF09B9F1000F01DA4FF00009E62000F039FC5FFA89F000F07BFAD04512DA334642463249324802F0C7FC002000F028FA012000F08B
:4025000031FA012000F0F2FB002000F0FBFB13E4DFF8A8A0E6230293CDF80490CDF800B0334642462749504602F0ACFC504600F0BDFB002000F00AFA002000F013FA0020BA
:4025400000F0D4FB002000F0DDFB3846FEF738FA184B9B6C23B1174A536C013353640AE0144BDA6A0132DA62DA6A1B6A9A4202DB0022104B1A6201220E4B9A63FFF7DCBB49
:40258000002000F0E3F9002000F0ECF9002000F0ADFB002000F0B6FBFFF7CEBBAFF30080333333333333C33F0000000000C06C4040800000B481FF1F1080000028A9FF1FEE
:4025C0001C80000068800000FEE700BFF0B40022174611E050F82760F3B226F0FF0608E001EB420511F812406D78A5550132013BDBB2002BF4D10137242FEBD9F0BC70471D
:40260000064B1B78DBB203F00701054A11701B09013213704422034B1A707047CF0100496E5800407658004008B50A46002102F020FC08BD38B517222A4B1A8018232A497E
:402640000B7002310A80294A13704FF49C7204310A8002310B7002310A80254A13700222244B1A7008224FF040231A70032103F500731970204B1B78DBB220490B70204B5A
:402680001A8041F25122023B1A80002419250CE01C4B1B7803F0010343EA440404F003044FF4F07000F010FD013D0DB1032CEFD115B90320FFF788FF134B4FF480721A802E
:4026C00007221A70002211490A704820023108701A700222033B1A700D4A137843F00F03137038BD8040004082400040864000408E4000400043004008010049A1460040F7
:4027000022420040254200400440004006400040A243004008B502F0A1FB08BD38B572B6394A137843F00403137000240CE0374D630019194A0011462A4408469188285810
:40274000FFF772FF0134E4B2082CF0D900240BE02E49A3001819420088188022C16B806BFFF7D8FF0134E4B2002CF1D028494FF09040FFF72BFF274A274B1A60274A03F54A
:4027800020731A60264A137843F0020313701032137843F002031370224C237843F040032370A2F58632513A137843F0100313700A221D491D48FFF7ADFF08221C491D4801
:4027C000FFF7A8FF0A221C491C48FFF7A3FF0A221B491C48FFF79EFF1B4A137843F0080313701A4D61232B70FFF724FF81232B700122174B1A70FFF703FF0E22214615489E
:40280000FFF788FF38BD00BFE8460040908000009400004804040044581601400404048403500140A0430040780C0048C0510040840C0048F25100408C0C004810510040D2
:40284000980C004820510040224300400048004004000840B043004008B502F0D3FA03680C2B00D1FEE7FEE708B5094B1A681044084BC31A802B02DC054B186005E002F017
:40288000C1FA0C2303604FF0FF32104608BD00BFE480FF1F28DAFF1F08B5104E104D16E029686B68AC68002204E051F8040B43F8040B0432A242F8D1E868002203E00021F8
:4028C00043F8041B04328242F9D11035013E002EE6D102F09DFAFFF707FAFEE701000000F087000008B5104A104B1A60104A136843F40073136000230AE0032B03D80D4A29
:4029000052F8231000E00C490C4A42F8231001332F2BF2D90A4B1A780A4B1A70074A0A4B1A60FFF7FBFE08BD0004FA050CED00E014ED00E000000000592800000080FF1F53
:40294000BC760040C080FF1F08ED00E0044A137803F0DF03400100F0200018431070704710510040044A137803F0EF03000100F010001843107070471051004010B504467F
:4029800005E0084B186800F09FFBA4F50044B4F5004FF6D8034B586800FB04F000F094FB10BD00BFE880FF1F084A137843F0010313701032137843F00103137002F64D320F
:4029C000137843F001031370704700BFA3430040014B1880704700BF044F0040014B1880704700BF064F0040014B1870704700BF034F004008B5194A137843F002031370D8
:402A00000232137803F08F0343F010031370144B1A7802F0CF021A701A7842F030021A701A7802F0F0021A701A7842F00F021A70FF20FFF7CDFFFF20FFF7D0FF0020FFF791
:402A4000D3FF084A137843F00103137002F65E32137843F00103137008BD00BF004F00400B4F0040A343004008B5054B1B7823B9FFF7C0FF0122024B1A70FFF795FF08BDD3
:402A80001082FF1F08B500F051F8A0F5004000B208BD00BF024B187800F00F00704700BF66640040014B1870704700BF8664004008B50F20FFF7F6FFFFF7ECFF00F00CFBE6
:402AC000034A137843F01003137000F009FB08BD9664004008B500F07BF84FF4004000F01FF8044B1B7813B90122024B1A70FFF7DFFF08BD1182FF1F024A137843F0800319
:402B00001370704777640040014B1870704700BF86650040014B1878704700BF66650040014B1880704700BF086A0040024B1B78024B188880B2704704650040886A0040D1
:402B4000014B188880B27047886A0040014B1880704700BF486A0040014B1880704700BF686A004008B501E0FFF7EAFFFFF7D2FF10F0400FF8D108BD08B5134B1A7802F0D6
:402B8000F8021A701A7802F0FC021A70FFF7EAFF4FF40040FFF7DAFF4FF40040FFF7C0FF0020FFF7B1FFFFF7B5FF4FF40040FFF7D3FF00F091FA054A137843F01003137043
:402BC00000F08EFA08BD00BF776400409665004008B5054B1B7823B9FFF7CEFF0122024B1A70FFF789FF08BD1282FF1F7222084B1A70202201331A700622683B1A70472226
:402C000010331A70002203F5AA731A70704700BF8E64004010B500F05FFA04460A4A137843F0200313700132137843F010031370FC32137843F01003137000F049F82046AE
:402C400000F04EFA10BD00BF9E64004008B5054B1B7823B9FFF7CAFF0122024B1A70FFF7D9FF08BD1382FF1F084B1B78DBB213F0200F06D0064A1078C0B213F01E0F02D10B
:402C80007047002070470020704700BF6F6400404D640040034B1B7813F0040FFAD1024B187070476B6500404B65004038B5074B1B782BB938BDFFF7EDFF0134A4B201E0A5
:402CC00005460024285D0028F5D138BD1382FF1F054A137843F0080313701032137843F008031370704700BFA2430040044A137803F0FB03800000F00400184310707047B6
:402D000020510040044A137803F0FD03400000F0020018431070704720510040084A137843F0020313701032137843F00203137002F65932137843F001031370704700BF43
:402D4000A3430040014B1880704700BF104F0040014B1880704700BF124F0040014B1870704700BF0F4F004008B5194A137843F0020313700232137803F08F0343F0100361
:402D80001370144B1A7802F0CF021A701A7842F030021A701A7802F0F0021A701A7842F00F021A70FF20FFF7CDFFFF20FFF7D0FF0020FFF7D3FF084A137843F0020313702E
:402DC00002F66A32137843F00103137008BD00BF0C4F0040174F0040A343004008B5054B1B7823B9FFF7C0FF0122024B1A70FFF795FF08BD1582FF1F08B500F051F8A0F555
:402E0000004000B208BD00BF024B187800F00F00704700BF69640040014B1870704700BF8964004008B50F20FFF7F6FFFFF7ECFF00F052F9034A137843F01003137000F0C2
:402E40004FF908BD9964004008B500F07BF84FF4004000F01FF8044B1B7813B90122024B1A70FFF7DFFF08BD1682FF1F024A137843F080031370704779640040014B1870AF
:402E8000704700BF89650040014B1878704700BF69650040014B1880704700BF106A0040024B1B78024B188880B2704708650040906A0040014B188880B27047906A00404E
:402EC000014B1880704700BF506A0040014B1880704700BF706A004008B501E0FFF7EAFFFFF7D2FF10F0400FF8D108BD08B5134B1A7802F0F8021A701A7802F0FC021A70BA
:402F0000FFF7EAFF4FF40040FFF7DAFF4FF40040FFF7C0FF0020FFF7B1FFFFF7B5FF4FF40040FFF7D3FF00F0D7F8054A137843F01003137000F0D4F808BD00BF79640040AE
:402F40009965004008B5054B1B7823B9FFF7CEFF0122024B1A70FFF789FF08BD1782FF1F014B1B681864704708ED00E04001C0B2014B1870704700BF00E400E00122014BD9
:402F80001A60704700E100E00122014B1A60704780E100E010B50446FFF7F6FF2046FFF7DFFF0720FFF7E2FFFFF7E8FF10BD00BF7222074B1A702022043B1A700622603B65
:402FC0001A70472210331A70002253331A7070478C64004010B500F07FF804460A4A137843F020031370043A137843F0100313700332137843F01003137000F055F820460C
:4030000000F06EF810BD00BF9C64004008B5054B1B7823B9FFF7CCFF0122024B1A70FFF7D9FF08BD1882FF1F084B1B78DBB213F0200F06D0064A1078C0B213F01E0F02D124
:403040007047002070470020704700BF686400404B640040044B1B7813F0200F01D0012070470020704700BF68640040034B1B7813F0040FFAD1024B187070476B64004075
:403080004F64004038B5074B1B782BB938BDFFF7EDFF0134A4B201E005460024285D0028F5D138BD1882FF1F054A137843F0040313701032137843F004031370704700BFFE
:4030C000A2430040000000000230800803D000BF01380046FCD17047EFF3108072B6704780F31088704700BF00B51C4A20F00043934283B018DDB3F1FF4F05DB014601F015
:4031000083FB03B05DF804FB694600F093F800F00302012A15D0022A0CD0CAB101220199009800F00DFEECE7002100F0F5F903B05DF804FB0199009800F0EEF900F10040F5
:40314000DFE70199009800F0FBFD00F10040D8E70199009800F0E0F9D3E700BFD80F493F10B5C0F3C7540028A4F17F02B4BF4FF0FF3101211E2A0CDC002A17DBC0F31603AF
:40318000162A43F4000307DD963CA34001FB03F010BD01F009FE10BD4FF4800010410344C2F11702D34001FB03F010BD01320CBF0846002010BD00BF00B51D4A20F000431E
:4031C000934283B019DDB3F1FF4F05DB014601F01BFB03B05DF804FB694600F02BF800F00300012818D002280ED0D0B10199009800F092F900F10040EBE70022002100F078
:403200009FFD03B05DF804FB01220199009800F097FD00F10040DCE70199009800F07CF9D7E701220199009800F08AFDD1E700BFD80F493F2DE9F04FAA4A20F000449442A4
:4032400089B067DDA84A0D469442074601461CDC0028A64940F3EA8001F0D6FAA44B24F00F049C42064663D0A24901F0CDFA01463046296001F0C8FA9E4901F0C5FA0123EB
:403280006860184609B0BDE8F08F9B4A944261DDB4F1FF4F46DAE615863EA4EBC654204601F082FD01F066FB034620461946059301F0AAFA4FF0874101F0B0FB804601F0DA
:4032C00073FD01F057FB044640462146069401F09BFA4FF0874101F0A1FB0021079001F031FD002800F0C3802046002101F02AFD002814BF0123022380480221019000910E
:403300003246294605A800F0CBF9002FC0F2A580034603E0002208604A600023184609B0BDE8F08F01F070FA002368602860F5E7734901F069FA7349044601F065FA01462A
:403340002046296001F060FA6E4901F05DFA01236860E3E700F06AFD6B49804601F05EFB4FF07C5101F052FA01F01EFD064601F001FB5E49834601F051FB0146404601F04A
:4033800043FA5C498146584601F048FB1F2E82460146484618DC5D4B721E53F8223024F0FF029A4210D001F02FFA8046C5F800804146484601F028FA514601F025FA002FF3
:4033C000686056DB3346A9E701F01EFAE215C0F3C753D31A082B8046E8DD49495846039201F01CFB80460146484601F00DFA01460446484601F008FA414601F005FA8046A4
:403400004049584601F00AFB414601F0FDF901468246204601F0F8F9039AC0F3C753D21A192A804641DC2860A146C1E701F0EEF92F4B24F00F049C42064623D02D4901F01A
:40344000E5F901463046296001F0DEF9294901F0DDF94FF0FF33686060E795E80C0002F1004103F10042296043426A6056E7032342E708F1004800F10040C5F800806860D9
:4034800073424BE71E4901F0C1F91E49044601F0BDF901462046296001F0B6F9194901F0B5F94FF0FF33686038E71949584601F0B5FA01468046204601F0A6F901468146DB
:4034C000204601F0A1F9414601F09EF904461149584601F0A3FA214601F096F982460146484660E7D80F493FE3CB1640800FC93FD00FC93F43443537800F4943548100005D
:403500000044353708A3852E84F9223FD480000000A3852E32318D242DE9F84320F00044B4F1485F06460F4649DA01F03DFC002800F09D803146304601F070FA05464E49A3
:4035400001F06CFA4D4901F061F9294601F066FA4B4901F059F9294601F060FA494901F055F9294601F05AFA474901F04DF9294601F054FA454901F049F9294601F04EFA5F
:4035800080464FF07C51284601F048FA41460446284601F043FA39460546304601F03EFA0146284601F030F90146204601F02CF901464FF07E5001F027F9BDE8F883014664
:4035C00001F02CFA05462C4901F028FA2B4901F01DF9294601F022FA294901F015F9294601F01CFA274901F011F9294601F016FA254901F009F9294601F010FA234901F000
:4036000005F9294601F00AFA214B80469C42B8DD204B9C4227DC04F17F4421464FF07E5001F0F2F881464FF07C51284601F0F6F9214601F0E9F841460446284601F0EEF9BF
:4036400039460546304601F0E9F90146284601F0DBF80146204601F0D7F80146484601F0D3F8BDE8F883DFF834900B4CDBE74FF07E50BDE8F88300BF4ED747ADF6740F313D
:403680007CF29334010DD037610BB63AABAA2A3D9999993E0000483F0000903E0000383F2DE9F04F1C46DFB00891611E01910A936899BB4B029053F821300793D31E48BF7F
:4036C000131DDB1023EAE37319460B930133A2EBC3030693019A079B8D1A9C1815D42C44013421AE699F08E057F8250001F042F90135A54246F8040F07D0002DF4DA013534
:403700000020A54246F8040FF7D1079B002B2ADB079B0A9A19469346019E49AF01EB0208019B002BC0F2A18122ABCBEB060503EB8505029B4FF00009A3F1040A22AB03EBA9
:4037400086045AF8041F54F8040901F067F90146484601F05BF8AC428146F2D10136464547F8049FDCD1079B0EA91E4603F18043023B9B001A1D0A440B440D920C935EAB57
:4037800003EB8603002E53F8508C23DD5EAB03EB8604543C0DAD49AF4FF06E51404601F03DF901F001FB01F0E5F84FF08741814601F034F90146404601F026F801F0F4FA6D
:4037C00054F8041945F8040F484601F01FF8BC428046E1D14046DDF81880414600F070FB4FF07851044601F019F900F023FB4FF0824101F013F90146204601F005F80446E8
:4038000001F0D2FA074601F0B5F801462046444600F0FAFF002C054640F30E81701E0EAB53F82030C8F1080243FA02F101FA02F29B1AC8F1070A0EAA42F820300F4443FA72
:403840000AFABAF1000F30DD002E07F1010740F34D82002214460DA907E0C3F580700BB108600124013296420BDD51F8043F002CF3D00132C3F1FF0396420B604FF0010465
:40388000F3DC069B002B0DDD012B00F0DD80022B08D1721E0EAB53F822300EA903F03F0341F82230BAF1020F7CD00021284601F049FA002800F09080079B741EA34210DCAF
:4038C00006F180430EAA013B0D9802EB8303002253F80419834242EA0102F9D1002A40F0DE80079B0EAA013B52F82330002B40F0FB810C9B012753F804290137002AFAD085
:40390000F219731C9342099240DC0B9AB90003EB02080A9A08F1804803916999164408F1FF38B20001EB880822A99B00049201EB020A4AAA02EB0309043B0593002658F82A
:40394000040F01F017F8019B4AF8040B002B1FDB049B0027F418059BF51822AB1C441D44029BA3F1040B5BF8041F54F8040901F055F80146384600F049FFAC420746F2D1CD
:40398000039B04369E4249F8047BD8D1099EF6E6039B043600279E4249F8047BCFD1F5E76C84000029464FF07E5000F02DFF0546002C3FF47AAF06994FF07E5000F080FAD7
:4039C0000146284600F020FF05460021284601F0B9F900287FF470AF0297069F2846794200F06EFA4FF08741044601F0C9F9002800F081814FF06E51204601F00FF801F0A2
:403A0000D3F900F0B7FF4FF08741054601F006F80146204600F0F8FE01F0C6F90EAB43F82600284601F0C0F93B460833741C06930EAB43F8240047E010D1731E0EAA52F8C6
:403A400023304FEA232AFCE6721E0EAB53F822300EA903F07F0341F8223023E74FF07C5101F08EF950B982461FE701364FF00009464547F8049F7FF453AE74E6002E07F1A9
:403A80000107C8BF4FF0020A3FF7E3AE29464FF07E5000F0B9FE4FF0020A054605E7069A0EAB53F82430083A0297069263B904F18043013B0EA901EB830353F80419013C77
:403AC000083A0029F9D0069206994FF07E5000F0F7F9002C0546C0F21881A3004AAA1F1D02EB030901930EAB1F4409F1040657F8040D00F03FFF294600F090FF4FF06E51B2
:403B000046F8040D284600F089FF0EAB9F420546EDD1A346DDF81C80A9F104090027CDF80CA0B8F1000FB8BF002615DB824CCA4682480026002503E0AF420DDB54F8040FC1
:403B40005AF8041F00F06AFF0146304600F05EFE0135A8450646EFDA5EAB03EB8703A9F1040943F8A06C48AB994507F10107D8D1689B5C46DDF80CA0032B5AD8DFE803F00D
:403B80008D5F5F02002C40F3BE80019A5EA98B1836AE53F8A07CB51855F8049C3946484600F034FE80460146484600F02DFE394600F02CFE286045F8048DAE424746EBD1C4
:403BC000012C40F3A080019B5EAAF418254602EB030858F8A06C0DF1DC0955F8048C3046414600F013FE07460146404600F00CFE314600F00BFE286045F8047DA9453E46DC
:403C0000EBD10020043438AD54F8041D00F0FEFDA542F9D1BAF1000F6AD0369A379B00F1004002F1004203F10043089CA06022606360029B03F007005FB0BDE8F08F019DFE
:403C400036AE04353544002055F8041D00F0DEFDB542F9D1BAF1000F39D0089A00F1004301461360369800F0CFFD002C0BDD36AE0125013556F8041F00F0C8FDAC42F8DA7D
:403C8000BAF1000F50D0089A00F100435360029B03F007005FB0BDE8F08F019B5EAA13440020A3F19C05013C55F8041D00F0AEFD631CF8D1BAF1000F01D000F10040089B9A
:403CC0001860029B03F007005FB0BDE8F08F089B01461860369800F097FD002CD8BF0346C5DC089A5360D2E7012709E60024C8E5369A379B99E7204601F056F80EAB344631
:403D000043F82600E0E6002084E7689B032B90D801A252F823F000BF353D0000313D0000313D0000073D00000346089A5360AEE700208FE70020BDE7788400000000C93F56
:403D40002DE9F84320F00043B3F1485F04460F46904603DA01F028F8002858D02146204600F05CFE05460146204600F057FE29490646284600F052FE274900F045FD2946D0
:403D800000F04CFE254900F041FD294600F046FE234900F039FD294600F040FE214900F035FD8146B8F1000F22D04FF07C51384600F034FE49468046304600F02FFE014683
:403DC000404600F021FD294600F028FE394600F01BFD15490546304600F020FE0146284600F014FD0146204600F00EFDBDE8F8830146284600F012FE0B4900F005FD314606
:403E000000F00CFE214600F001FDBDE8F8832046BDE8F883D3C92E2F342FD7321BEF3836010D50398988083CABAA2A3E20F00040704700BF2DE9F04120F00047FC0D7F3CDF
:403E4000162C054613DC002C80461BDB194F2741384214D0184900F0D9FC002100F09AFF68B1002D1BDB28EA0700BDE8F081B7F1FF4F04D3014600F0C9FCBDE8F081284628
:403E8000BDE8F0810C4900F0C1FC002100F082FF0028F4D0002D08DB0020BDE8F0814FF4000343FA04F4A044DDE7002FE7D00348BDE8F081FFFF7F00CAF24971000080BF8A
:403EC00030F0004238B5034616D0B2F1FF4F0FD2B2F5000F0D4610D30446D20D2A44FE2A2EDC002A1DDD24F0FF4444EAC25038BD014600F08BFC38BD38BD4FF0984100F05D
:403F00008DFD184A0346954207DBC0F3C7520446193AE3E7144800F02BF8134900F07EFD38BD12F1160F13DA4CF2503295421946F0DD0E4800F01CF80C4900F06FFD38BD5D
:403F400019460A4800F014F8084900F067FD38BD193224F0FF4040EAC2504FF04C5100F05DFD38BDB03CFFFF6042A20DCAF2497101F0004120F000400843704781F000411E
:403F800002E000BF83F0004330B54FEA41044FEA430594EA050F08BF90EA020F1FBF54EA000C55EA020C7FEA645C7FEA655C00F0E2804FEA5454D4EB5555B8BF6D420CDD6F
:403FC0002C4480EA020281EA030382EA000083EA010180EA020281EA0303362D88BF30BD11F0004F4FEA01314FF4801C4CEA113102D0404261EB410113F0004F4FEA03336C
:404000004CEA133302D0524263EB430394EA050F00F0A780A4F10104D5F1200E0DDB02FA0EFC22FA05F2801841F1000103FA0EF2801843FA05F359410EE0A5F120050EF1FB
:40404000200E012A03FA0EFC28BF4CF0020C43FA05F3C01851EBE37101F0004507D54FF0000EDCF1000C7EEB00006EEB0101B1F5801F1BD3B1F5001F0CD349085FEA300075
:404080004FEA3C0C04F101044FEA445212F5800F80F09A80BCF1004F08BF5FEA500C50F1000041EB045141EA050130BD5FEA4C0C404141EB010111F4801FA4F10104E9D106
:4040C00091F0000F04BF01460020B1FA81F308BF2033A3F10B03B3F120020CDA0C3208DD02F1140CC2F10C0201FA0CF021FA02F10CE002F11402D8BFC2F1200C01FA02F12A
:4041000020FA0CFCDCBF41EA0C019040E41AA2BF01EB0451294330BD6FEA04041F3C1CDA0C340EDC04F11404C4F1200220FA04F001FA02F340EA030021FA04F345EA030191
:4041400030BDC4F10C04C4F1200220FA02F001FA04F340EA0300294630BD21FA04F0294630BD94F0000F83F4801306BF81F480110134013D4EE77FEA645C18BF7FEA655C8A
:4041800029D094EA050F08BF90EA020F05D054EA000C04BF1946104630BD91EA030F1EBF0021002030BD5FEA545C05D14000494128BF41F0004130BD14F580043CBF01F5A9
:4041C000801130BD01F0004545F0FE4141F470014FF0000030BD7FEA645C1ABF194610467FEA655C1CBF0B46024650EA013406BF52EA033591EA030F41F4002130BD00BF39
:4042000090F0000F04BF0021704730B54FF4806404F132044FF000054FF0000150E700BF90F0000F04BF0021704730B54FF4806404F1320410F0004548BF40424FF0000134
:404240003EE700BF42004FEAE2014FEA31014FEA02701FBF12F07F4393F07F4F81F06051704792F0000F14BF93F07F4F704730B54FF4607401F0004521F0004120E700BF64
:4042800050EA010208BF704730B54FF000050AE050EA010208BF704730B511F0004502D5404261EB41014FF4806404F132045FEA915C3FF4DCAE4FF003025FEADC0C18BFD2
:4042C00003325FEADC0C18BF033202EBDC02C2F1200300FA03FC20FA02F001FA03FE40EA0E0021FA02F11444C1E600BF70B54FF0FF0C4CF4E06C1CEA11541DBF1CEA1355F6
:4043000094EA0C0F95EA0C0F00F0DEF82C4481EA030621EA4C5123EA4C5350EA013518BF52EA033541F4801143F4801338D0A0FB02CE4FF00005E1FB02E506F00042E0FB74
:4043400003E54FF00006E1FB03569CF0000F18BF4EF0010EA4F1FF04B6F5007F64F5407404D25FEA4E0E6D4146EB060642EAC62141EA55514FEAC52040EA5E504FEACE2ED8
:40438000B4F1FD0C88BFBCF5E06F1ED8BEF1004F08BF5FEA500E50F1000041EB045170BD06F0004646EA010140EA020081EA0301B4EB5C04C2BFD4EB0C0541EA045170BDB1
:4043C00041F480114FF0000E013C00F3AB8014F1360FDEBF002001F0004170BDC4F10004203C35DA0C341BDC04F11404C4F1200500FA05F320FA04F001FA05F240EA020089
:4044000001F0004221F0004110EBD37021FA04F642EB06015EEA430E08BF20EAD37070BDC4F10C04C4F1200500FA04F320FA05F001FA04F240EA020001F0004110EBD3706A
:4044400041F100015EEA430E08BF20EAD37070BDC4F1200500FA05F24EEA020E20FA04F301FA05F243EA020321FA04F001F0004121FA04F220EA020000EBD3705EEA430EC2
:4044800008BF20EAD37070BD94F0000F0FD101F00046400041EB010111F4801F08BF013CF7D041EA060195F0000F18BF704703F00046520043EB030313F4801F08BF013D76
:4044C000F7D043EA0603704794EA0C0F0CEA135518BF95EA0C0F0CD050EA410618BF52EA4306D1D181EA030101F000414FF0000070BD50EA410606BF1046194652EA4306B8
:4045000019D094EA0C0F02D150EA013613D195EA0C0F05D152EA03361CBF104619460AD181EA030101F0004141F0FE4141F470014FF0000070BD41F0FE4141F4780170BD13
:4045400070B54FF0FF0C4CF4E06C1CEA11541DBF1CEA135594EA0C0F95EA0C0F00F0A7F8A4EB050481EA030E52EA03354FEA013100F088804FEA03334FF0805545EA131306
:4045800043EA12634FEA022245EA111545EA10654FEA00260EF000419D4208BF964244F1FD0404F5407402D25B084FEA3202B61A65EB03055B084FEA32024FF480104FF452
:4045C000002CB6EB020E75EB030E22BFB61A754640EA0C005B084FEA3202B6EB020E75EB030E22BFB61A754640EA5C005B084FEA3202B6EB020E75EB030E22BFB61A754689
:4046000040EA9C005B084FEA3202B6EB020E75EB030E22BFB61A754640EADC0055EA060E18D04FEA051545EA16754FEA06164FEAC30343EA52734FEAC2025FEA1C1CC0D1B3
:4046400011F4801F0BD141EA00014FF000004FF0004CB6E711F4801F04BF01430020B4F1FD0C88BFBCF5E06F3FF6AFAEB5EB030C04BFB6EB020C5FEA500C50F1000041EBA2
:40468000045170BD0EF0004E4EEA113114EB5C04C2BFD4EB0C0541EA045170BD41F480114FF0000E013C90E645EA060E8DE60CEA135594EA0C0F08BF95EA0C0F3FF43BAF64
:4046C00094EA0C0F0AD150EA01347FF434AF95EA0C0F7FF425AF104619462CE795EA0C0F06D152EA03353FF4FDAE1046194622E750EA410618BF52EA43067FF4C5AE50EA5A
:4047000041047FF40DAF52EA43057FF4EBAE12E74FEA410212F5001215D211D56FF47873B3EB625212D94FEAC12343F0004343EA505311F0004F23FA02F018BF40427047BD
:404740004FF00000704750EA013005D111F0004008BF6FF0004070474FF00000704700BF4FEA4102B2F1E04324BFB3F5001CDCF1FE5C0DD901F0004C4FEAC0024CEA5070CB
:40478000B2F1004F40EB830008BF20F00100704711F0804F21D113F13872BCBF01F00040704741F480114FEA5252C2F11802C2F1200C10FA0CF320FA02F018BF40F001008B
:4047C0004FEAC1234FEAD32303FA0CFC40EA0C0023FA02F34FEA4303CCE77FEA625307D150EA01331EBF4FF0FE4040F44000704701F0004040F0FE4040F40000704700BFBC
:4048000080F0004002E000BF81F0004142001FBF5FEA410392EA030F7FEA226C7FEA236C6AD04FEA1262D2EB1363C1BFD218414048404140B8BF5B42192B88BF704710F0E7
:40484000004F40F4000020F07F4018BF404211F0004F41F4000121F07F4118BF494292EA030F3FD0A2F1010241FA03FC10EB0C00C3F1200301FA03F100F0004302D5494205
:4048800060EB4000B0F5000F13D3B0F1807F06D340084FEA310102F10102FE2A51D2B1F1004F40EBC25008BF20F0010040EA03007047490040EB000010F4000FA2F101025F
:4048C000EDD1B0FA80FCACF1080CB2EB0C0200FA0CF0AABF00EBC25052421843BCBFD0401843704792F0000F81F4000106BF80F400000132013BB5E74FEA41037FEA226CD1
:4049000018BF7FEA236C21D092EA030F04D092F0000F08BF0846704790EA010F1CBF0020704712F07F4F04D1400028BF40F00040704712F100723CBF00F50000704700F0BD
:40494000004343F0FE4040F4000070477FEA226216BF08467FEA23630146420206BF5FEA412390EA010F40F4800070474FF0000304E000BF10F0004348BF40425FEA000CA1
:4049800008BF704743F0964301464FF000001CE050EA010208BF70474FF000030AE000BF50EA010208BF704711F0004302D5404261EB41015FEA010C02BF84460146002017
:4049C00043F0B64308BFA3F18053A3F50003BCFA8CF2083AA3EBC25310DB01FA02FC634400FA02FCC2F12002BCF1004F20FA02F243EB020008BF20F00100704702F1200273
:404A000001FA02FCC2F1200250EA4C0021FA02F243EB020008BF20EADC7070474FF0FF0C1CEAD0521EBF1CEAD15392EA0C0F93EA0C0F6FD01A4480EA010C400218BF5FEAF1
:404A400041211ED04FF0006343EA501043EA5111A0FB01310CF00040B1F5000F3EBF490041EAD3715B0040EA010062F17F02FD2A1DD8B3F1004F40EBC25008BF20F0010037
:404A8000704790F0000F0CF0004C08BF49024CEA502040EA51207F3AC2BFD2F1FF0340EAC250704740F400004FF00003013A5DDC12F1190FDCBF00F000407047C2F10002D7
:404AC000410021FA02F1C2F1200200FA02FC5FEA310040F1000053EA4C0308BF20EADC70704792F0000F00F0004C02BF400010F4000F013AF9D040EA0C0093F0000F01F0F1
:404B0000004C02BF490011F4000F013BF9D041EA0C018FE70CEAD15392EA0C0F18BF93EA0C0F0AD030F0004C18BF31F0004CD8D180EA010000F00040704790F0000F17BF4E
:404B400090F0004F084691F0000F91F0004F14D092EA0C0F01D142020FD193EA0C0F03D14B0218BF084608D180EA010000F0004040F0FE4040F40000704740F0FE4040F4FA
:404B8000400070474FF0FF0C1CEAD0521EBF1CEAD15392EA0C0F93EA0C0F69D0A2EB030280EA010C49024FEA402037D04FF0805343EA111143EA10130CF000408B4238BF78
:404BC0005B0042F17D024FF4000C8B4224BF5B1A40EA0C00B3EB510F24BFA3EB510340EA5C00B3EB910F24BFA3EB910340EA9C00B3EBD10F24BFA3EBD10340EADC001B01C7
:404C000018BF5FEA1C1CE0D1FD2A3FF650AF8B4240EBC25008BF20F0010070470CF0004C4CEA50207F32C2BFD2F1FF0340EAC250704740F400004FF00003013A37E792F04E
:404C4000000F00F0004C02BF400010F4000F013AF9D040EA0C0093F0000F01F0004C02BF490011F4000F013BF9D041EA0C0195E70CEAD15392EA0C0F08D142027FF47DAF88
:404C800093EA0C0F7FF470AF084676E793EA0C0F04D14B023FF44CAF08466EE730F0004C18BF31F0004CCAD130F000427FF45CAF31F000437FF43CAF5FE700BF4FF0FF3C28
:404CC00006E000BF4FF0010C02E000BF4FF0010C4DF804CD4FEA40024FEA41037FEA226C18BF7FEA236C11D001B052EA530C18BF90EA010F58BFB2EB030088BFC81738BFA0
:404D00006FEAE17018BF40F0010070477FEA226C02D15FEA402C05D17FEA236CE4D15FEA412CE1D05DF8040B704700BF844608466146FFE70FB5FFF7C9FF002848BF10F170
:404D4000000F0FBD4DF808EDFFF7F4FF0CBF012000205DF808FB00BF4DF808EDFFF7EAFF34BF012000205DF808FB00BF4DF808EDFFF7E0FF94BF012000205DF808FB00BFF4
:404D80004DF808EDFFF7D2FF94BF012000205DF808FB00BF4DF808EDFFF7C8FF34BF012000205DF808FB00BF4FEA4002B2F1FE4F0FD34FF09E03B3EB12620DD94FEA002384
:404DC00043F0004310F0004F23FA02F018BF404270474FF00000704712F1610F01D1420205D110F0004008BF6FF0004070474FF000007047002100F0FBBE0A22002100F020
:404E000085BF0000014B1868704700BF5C81FF1F0E4B70B51E460E4C0025E41AA410A54204D056F8253098470135F8E703F0CEFC084B094C1E46E41AA4100025A54204D031
:404E400056F8253098470135F8E770BDD8870000D8870000D8870000E087000010B5431E0A44914204D011F8014B03F8014FF8E710BD03460244934202D003F8011BFAE755
:404E8000704700000EB400B54FF402719CB0ADF814106FF00041049107914FF6FF711DAB02900690084853F8042BADF81610006802A9019301F006FF029B00221A701CB040
:404EC0005DF804EB03B070475C81FF1F0EB430B59CB01FAC4FF4017254F8045BADF814200290069000F030F80B4B03900B9300230F9314934FF6FF7307900848ADF8163055
:404F00002A46234602A90068019402F02BF81CB0BDE8304003B07047214F00005C81FF1F0020704710F8012B11F8013B012A28BF9A42F7D0D01A7047034611F8012B03F806
:404F4000012B002AF9D17047034613F8012B002AFBD1181A0138704730B582B1451E013915F8013F11F8014FA34206D1EC431444E04201D0002BF3D11C46181B30BD10466A
:404F800030BD034610B542B111F8014B013A03F8014B002CF7D11A4400E010BD934202D003F8014BFAE710BD2DE9F0410F46904601F09EFC04460D46B8F1000F11D0C7F3A4
:404FC0000A53C3F16B03002B0BDD1B0503F17F55002405F5401522462B46FFF787F9BDE8F08120462946BDE8F0810000000000002DE9F04F82460C469DB000231392189345
:405000004FF000084FF000091791179B1A780D2A05D8092A13D2002A00F0AD8112E02B2A04D02D2A04D0202A0CD108E0002200E001220C925A1C17925B782BB99BE10133E3
:405040001793E2E700230C93179D2B78302B5CD16B78582B01D0782B4CD10C9BA84A019318AB009317A919AB504600F0A4FE10F00706044600F08585062E05D10135002342
:4050800017950C9300F07DBD189A3AB135211AA801F015FD1899504601F099F9062E22D8DFE806F0040D08181D0D04004FF00009C84618E0DDF86880DDF86C9013E01B9B2A
:4050C000199A23F4801302F23342DDF8688043EA025908E0DFF82C924FF0000803E06FF000494FF0FF38210740F14B8549F0004900F047BD179B5A1C17925B78302BF9D079
:40510000002B00F03E85012300E000230593179B0A22069300239B4602930493179D2E78A6F13003D9B2092911D8BBF1080FD5BF0499029902FB013302FB013305F1010574
:40514000D4BF049302930BF1010B1795E6E7504601F004F90768504601F000F90068FFF7F3FE394602462846FFF7F6FE074628B1002033465D46024601465AE0504601F05C
:40518000EDF80068FFF7E0FE179B1A1817921B5CBBF1000F45D15846302B05D1179B01305A1C17925B78F7E7A3F13102082A46D8179A0692024600200546303B00F1010106
:4051C00029D00A44294605EB000C0A2661450FD0013101F1FF3EBEF1080F03DC049F77430497F3E71029DEBF029F77430297EDE72844082800F1010505DC04980A2101FB9B
:405200000033049306E0102DDFBF02980A2101FB003302930021179B581C17905B78084602E05D4638463A46A3F130010929C4D90121652B01D0452B4FD16DB904E0652B87
:4052400040F0AD840022012128B9059B002B00F09280054600E00025179C631C179363782B2B06D02D2B02D00026039606E0012300E000230393A31C1793A378A3F13006CE
:40528000092E29D8302B04D1179B5E1C17965B78F8E7A3F13106082E1FD8A3F1300E179B1F46179B5E1C17965B78A3F1300CBCF1090F05D80A2606FB0E3EAEF1300EF0E7CB
:4052C000F61B082E44F61F6602DC7645A8BF7646039F1FB1764201E017940026002D52D1002840F04E84059A002A40F04A84002941D14E2B20D007DC492B0AD03BE000BF20
:40530000C88500000000F07F692B02D06E2B13D031E0AA4917A800F07FFF60B3179BA849013B17A8179300F077FF10B9179B01331793DFF8A8921AE0A24917A800F06CFF74
:40534000C8B1179B1B78282B0FD11AAA9E4917A800F075FF052808D11B9BDDF8688043F0FF4949F4E00900F00CBCDFF874924FF0000800F006BC139B1794002B00F00C84C2
:4053800000230C93FFE32C46BBF1000F08BFAB460498102DA8BF1024B71AFEF731FF092C8046894613DD894B03EBC40353E91223FEF79CFF804602988946FEF721FF02462A
:4053C0000B4640464946FEF7DFFD804689460F2D33DC002F00F0D58322DD162F07DC7B4D424605EBC7014B46D1E9000113E0C5F125039F4221DC754CC5F10F0504EBC501B5
:405400007D1B4246D1E900014B4604EBC504FEF76DFFD4E90023FEF769FF80468946B0E317F1160F09DB694D4046A5EBC703D3E900234946FFF784F8EFE72C1B3C44002C32
:405440005DDD14F00F010AD0604B424603EBC101D1E900014B46FEF749FF8046894634F00F0400F0C180B4F59A7F0FDD4FF0000BCDF808B0CDF814B0CDF810B02223CAF811
:405480000030DFF858914FF0000889E14046494600234F4E24110293012C0CDDE20704D5D6E90023FEF722FF0123029A6410013202920836F0E70BB180468946444B029A50
:4054C000A9F1547903EBC201D1E9000142464B46FEF70CFF21F0004389460A461B0D3D491B058B428046C1D8A1F580118B4286BFDFF8F0904FF0FF3802F1547974E073D0F6
:40550000644214F00F020AD0304B404603EBC2034946D3E90023FFF713F880468946241162D01F2C08DD4FF0000BCDF808B0CDF814B0CDF810B02CE14046494614F0100F6D
:405540000CBF00236A23244E03930023002C09DDE20704D5D6E90023FEF7C8FE012364100836F3E70BB180468946039BEBB1C9F30A53C3F16B03002B494616DD1F2B0EDDBC
:40558000342BDEBF203B4FF0FF3202FA03F34FF00008CCBF4FF05C7903EA010905E04FF0FF3202FA03F303EA0808002200234046494602F01DFB0028B5D117E0BC850000C7
:4055C000BF850000C5850000A885000010860000E88600000000A07CE08500000000F07F0000F8FFFFFFEF7F00230393049B5A46009306992B46504600F03BFF0590002881
:405600003FF434AF002FC7F10003A8BF00230D934FF0000B27EAE7731293CDF808B0059B5046596800F09EFE049000283FF426AF059B0C301A6903F10C0102329200FFF706
:405640000DFC1AAB019319AB009342464B465046CDE9088901F0BDF9189000283FF40EAF0121504600F090FF029000283FF406AF199B0399002BACBF0D9A129A1A9CACBFE1
:40568000D618D21AA3EB01032344B14903F1FF33ACBF129A0D9E8B42C4F1360480F28580C91A1F29C8BFAB4D4FF00107D4BF07FA01F3ED1AA4EB0104D9BF0793002507FA96
:4056C00005F507973719039BBE4214441C443346A8BF3B46A342A8BF2346002BC2BFFF1AE41AF61A0D9B002B63D1002F7ADC129B002B40F08180002C00F38880002E00F3A6
:405700008F80049A1899504601F093F8834600283FF4B4AEC3680024C4600299069301F06CF8A04280F28B80069B002B40F00282B8F1000F40F0FE81C9F31303002B40F004
:40574000F98129F000431B0D1B05B3F1D66F40F2F181DBF81430002B6CD059460122504600F0FAFF0299834601F047F8002840F3E18129F00043039A1B0D1B05002A00F013
:405780008D80B3F1D66F00F38980B3F15C7F00F3D38122234FF000084FF00009CAF80030059B002B40F0D981EBE101230025079388E71A460299504600F080FF029000283E
:4057C0003FF45CAE0146189A504600F0E6FE069000283FF453AE1899504600F0F8FD069B189382E73A461899504600F0B5FF189000287FF47CAF41E6129A0499504600F067
:405800005DFF049000287FF476AF37E622460499504600F0A1FF049000287FF46FAF2DE632460299504600F097FF029000287FF468AF23E6DBF81030012B8EDC7AE161D15E
:40584000069AC9F3130322B343494A468B422ED1039B414663B1414B1340B3F1D46F07D81B0DC3F16B034FF0FF3000FA03F301E04FF0FF338B421AD139498A4202D1013314
:405880003FF4FCAD354B4FF00008134003F5801950E163B9B8F1000F09D16AE7A3F580136FEA13594FF0FF386FEA095942E115B115EA090F02E0079B13EA080F00F03A81CD
:4058C000069B039A4046494653B1FFF76DFB02460B46DDE90801FEF757FB8046894629E1FFF762FB02460B46DDE90801FEF74AFB002200238046894602F07AF900287FF4D6
:4059000048AF17E10299584601F0B1F800224FF0804306460F4602F07FF900283FD0069B13B100260F4F10E0B8F1000F03D1C9F313033BB91AE0B8F1010F03D1B9F1000FD4
:405940003FF427AF084F00260024064D3CE000BF02FCFFFFE2FBFFFFFFFF0F000000F07FFFFFEF7F0000F03F0000F0BF00229A4B3046394602F046F940B90022974B304612
:405980003946FEF7B3FC04460D4601E0069C934D05F1004314941593DDE9146714E08F4B002230463946FEF7A1FC069B04460D4623B901F100430E900F9303E002460B4678
:4059C000CDE90E23DDE90E6729F000431B0D1B050793079A824B9A422BD1DDE90823A9F1547940464946CDE90A2300F081FF02460B4630463946FEF779FC42464B46FEF73B
:405A0000C3FA21F000431B0D764A1B05934280460CD9754B0B9A9A4203D10A9B01333FF42DADDFF8C4914FF0FF3872E001F1547939E0039B3BB3079BB3F1D46F23D85EA3F5
:405A4000D3E900232046294602F0E6F8B8B12946204602F0FFF8002808BF0120FEF7D0FB069B04460D4623B901F100431090119303E002460B46CDE91023DDE91067079AD5
:405A800007F1D6639F1ADDE9080100F031FF02460B4630463946FEF729FCDDE90823FEF773FA80468946039B9BBB29F000431B0D079A1B059A424E462BD129462046FEF70E
:405AC00027FEFEF7ADFB0B46024629462046FEF759FA069B04460D462BB9B8F1000F02D1C9F313067EB136A3D3E900232046294602F088F888BB34A3D3E9002320462946B0
:405B000002F09EF804E032A3D3E9002302F07AF818BB1899504600F05AFC0499504600F056FC0299504600F052FC5946504600F04EFC74E5039B83B12C4B40460B93002345
:405B40000A934946DDE90A23FEF7D0FB8046894619B910B92223CAF800301899504600F036FC0499504600F032FC0299504600F02EFC0599504600F02AFC5946504600F06B
:405B800026FC139B13B1179B139A13600C9B1BB1424609F1004307E042464B4604E000252A460121FFF747BB104619461DB0BDE8F08F00BFAFF300800000C0FFFFFFDF4150
:405BC0009535A094FFFFDF3F35E5AF350000E03F9535A094FFFFCF3F0000F03F0000E03F0000E07FFFFF9F7CFFFFEF7F00005039024B0A4601461868FFF7FAB95C81FF1FA1
:405C00002DE9F0470F4680463F48D0F800903D4615F8014B09EB0400407800F0080000F0FF0608B12F46F2E72D2C03D1BD1C7C78012603E02B2C04BF7C78BD1C13B1102BB3
:405C40000AD15BE0302C57D1287800F0DF0058284DD16C7810230235002E14BF4FF0004C6FF0004CBCFBF3FA0027384603FB1ACC09EB040E9EF801E01EF0040F01D0303CF0
:405C80000BE01EF0030E1BD0BEF1010F0CBF4FF0370E4FF0570ECEEB0404A34210DDB7F1FF3F0AD0504506D801D1644503DC03FB0040012701E04FF0FF3715F8014BD7E74A
:405CC0007B1C0CD1002E4FF0220314BF4FF000406FF00040C8F800302AB9BDE8F08706B1404272B107B1691E1160BDE8F0873024002BB1D10823AFE70A23ADE7302CA3D044
:405D0000AAE7BDE8F08700BFF880FF1F13460A46014602480068FFF773BF00BF5C81FF1FF0B506694B11B34200F1140527DA11F01F0105EB860605EB830201D1294616E024
:405D4000141D55F823202B46C1F1200ECA40B44209D2276807FA0EF73A4343F8042B54F8042BCA40F3E71A6052B1043308E0B2420B4605D252F8043B41F8043BF7E72B4653
:405D80005B1B9B10036103B94361F0BDA0F13003092B01D820380AE0A0F16103052B01D8473804E0A0F14103052B02D82738C0B27047002070472DE9F04F8BB08A46904669
:405DC0000693029000F0CAFA03684FF0000B18460393FFF7B9F8039B0190034413F8013C0793DAF8003002331F4613F8010B302802D10BF1010BF7E7FFF7C8FF0446E0B9B8
:405E0000019A03993846FFF7A7F8002834D1019BF85CFE18FFF7BAFF80B3334618781F46302803F10103F9D0FFF7B0FFB0FA80F534466D094FF0010B01E000252C463A4685
:405E4000164630780132FFF7A1FF0028F8D1019A03993046FFF780F850B954B9019BF4182246164630780132FFF790FF0028F8D134B1A41BA40003E03E4600E00446012577
:405E80003378502B01D0702B2AD173782B2B08D02D2B03D0711C4FF0000905E04FF0010901E04FF00009B11C0878FFF76FFF431EDBB2182B14D8A0F1100211F8010FFFF765
:405EC00065FF431EDBB2182B04D80A2303FB0202103AF2E7B9F1000F00D05242144400E03146CAF800102DB1BBF1000F14BF002006207CE12946F31B013B072B02DD013136
:405F00005B10FAE7029800F02DFA4FF000090546CB46019B00F1140AC3F10103CDF810A00893B7422FD2731E0593079A16F8013C93420BD0BBF1200F16D1049BC3F80090E2
:405F400004334FF000090493CB460DE0059B089A13449F42EED81846019A03990993FEF7FBFF099B68B1E5E716F8010CFFF70EFF00F00F0000FA0BF0059B49EA00090BF13A
:405F8000040B1E46CDE7049840F8049BCAEB0000801028614701484600F0A9FAD8F80060381AB04226DD871B3946284600F0A1FDC8B17B1E591103F01F024FF001095AF851
:405FC000211009FA02F20A420ED04B4502DC4FF0020909E0B91E284600F08BFD0028F6D04FF0030900E0814639462846FFF798FE3C440CE009DA371A29463A46029800F07F
:40600000ABFB0546E41B00F1140A4FF00009D8F808309C4208DD0298294600F0D8F9149A00231360A320E2E0D8F80400844253DA041BA6422EDCD8F80C30022B1AD0032B92
:406040001CD0012B1DD1A6421BD1012E0BDCD8F80430069A6220136001232B61CAF80030149B1D60C3E0711E284600F042FD0028EDD106E0159B002BE9D002E0159B002BDD
:40608000E5D10298294600F0A2F9149A002313605020ACE0671EB9F1000F06D13FB13946284600F026FD814601E04FF001097A11012307F01F0703FA07F75AF8223021468E
:4060C0001F42284618BF49F00209361BFFF728FE0227D8F8044000E00127B9F1000F00F08180D8F80C30022B0ED0032B10D0012B76D119F0020F73D0DAF8000049EA000957
:4061000019F0010F07D16BE0159BC3F101031593159B002B64D0D5F810A005F114034FEA8A0903EB090100201A68B2F1FF3F02D001321A6020E043F8040B9942F4D8AB68B0
:406140009A4512DB69680298013100F00BF983462A6905F10C01023292000C30FEF77EFE2946029800F033F95D462B695A1C2A6105EB830301225A61022F05F1140211D120
:40618000D8F80030013B9E4227D17111012306F01F0603FA06F652F821301E420CBF022701271AE02B699A450ADA01212846FFF7B7FDD8F8083001349C423FF72CAF0BE058
:4061C00016F01F0608D0914459F8040C00F08FF9C6F12006B042E8DB012747F0200701E047F010073846149B1D60069B1C600BB0BDE8F08FC2F10802920070B5C2F12006B4
:406200004368056803FA06F42C43D340046040F8043F8842F4D370BD30B5036811F8014B01334CB11A78A2F14105192D98BF2032A242F3D0002030BD0360012030BD0B6868
:406240002DE9F04F5E1102EB860613F01F0318BF0436351F174600228246A8462C46914685B0D0F800B0019346F8042C00921BF8011F00293CD0084603920291FFF786FD41
:40628000039A00BB0299202916D8009B9945EEDD444505D2072A03DC41462046FFF7AAFFBC4223D90023A4F1040844F8043CCDF8009044461A46DAE7292948D10BF10103CF
:4062C000CAF8003014E00132082A09F1010906DDBC42CCD9002344F8043C0122043C216800F00F0040EA01102060C0E70822BEE7B9F1000F2BD0444505D2072A03DC414663
:406300002046FFF777FFBC420CD93B4654F8042BA54243F8042BF9D2002243F8042B9D42FBD20BE0019B4BB1C3F120024FF0FF33D34056F8042C134046F8043C2B6843B99D
:40634000BD4202D101232B6003E0043DF6E7042000E0052005B0BDE8F08F0000004870476081FF1F70B5456A04460E463DB9102001F038FB6062456085600560C560656A3A
:40638000EB6843B1636ADB6853F8260078B1026843F8262017E021220421204600F0CBFB636AE860DB68002BECD1002070BD012101FA06F56A1D9200204600F0BCFB002893
:4063C000F3D04660856000230361C36070BD70B5446A06460D463CB9102001F003FB7062446084600460C4603DB1736A6A68DB6853F82210296043F8225070BD2DE9F04109
:4064000006460C460D691F4601F1140E0023DEF80000013381B202FB0171000C0F0C02FB007089B201EB00419D424FEA10474EF8041BECDCD7B1A3689D4212DB61683046CA
:406440000131FFF78FFF8046226904F10C01023292000C30FEF702FD21463046FFF7B7FF444604EB850301355F6125612046BDE8F0812DE9F843064615461F4609220833D8
:406480000C4693FBF2F3002101229A4202DA52000131FAE73046FFF765FF089B092D43614FF00103036111DD04F10908C1462C4419F8013B0146303B0A223046FFF79EFF23
:4064C000A145F5D108EB0504083C01E00A3409252D1B63199F4208DD14F8013B0146303B0A223046FFF78AFFF3E7BDE8F883030C1B0413B90004102300E0002310F07F4FC2
:4065000004BF0002083310F0704F04BF0001043310F0404F04BF80000233002803DB420003D5581C70471846704720207047036813F007020BD0D90722D49A074BBF5B080D
:406540009B08036003604CBF01200220704799B209B91B0C102213F0FF0F04BF1B0A0832190704BF1B090432990704BF9B080232D90702D45B0805D001320360104670470C
:40658000002070472020704710B50C460121FFF7E9FE01224461026110BD2DE9F74F14460A69236988469A42BEBF0B46A0461C46D8F81070D4F81090D8F80830D8F80410E2
:4065C00007EB09069E42C8BF0131FFF7CBFE00F114052B4605EB860C0022634502D243F8042BFAE704F1140208F1140102EB890301EB87070093009B0192934257D9B2F8E0
:4066000000B0BBF1000F23D08946AE464FF0000859F8044BBEF800A0A3B20BFB03A34FEA144ADEF8004043444FEA14480BFB0A84F24604EB13449BB243EA04434F454FEA92
:4066400014484AF8043B01D9D646E1E7CEF80480019B0432B3F802A0BAF1000F21D02C4689462B684FF00008B9F800E0B4F802B09BB20AFB0EBEA346F04443EA08434BF86B
:40668000043B59F8043BB4F804E01B0C0AFB03E34F4503EB18434FEA134801D95C46E3E763600435A7E75CF8043D13B9013E002EF9DC066103B0BDE8F08F00002DE9F843F6
:4066C000154612F0030206460F4607D0214C013A002354F82220FFF791FE0746AD1036D0746A3CB9102001F07DF97062446084600460C460D6F82480D8F808404CB940F2C5
:4067000071213046FFF740FF04460023C8F8080003604FF00008EB070AD5394622463046FFF73BFF814639463046FFF750FE4F466D100CD0206808B10446ECE722462146C4
:406740003046FFF72AFF2060C0F80080F4E73846BDE8F883D88600002DE9F0470C460746914626694FEA621A56444968A368751CAB4202DA01315B00FAE73846FFF7F2FD6D
:40678000002380461A4600F11401534503DA41F823200133F9E72AEAEA73206901EB830319F01F0904F1140101EB800E14D0C9F1200C002208689A4600FA09F0024343F8B5
:4067C000042B51F8042B8E4522FA0CF2F2D8CAF8042042B1B51C06E0043B51F8042B8E4543F8042FF9D8013D3846C8F810502146FFF7EDFD4046BDE8F08703690A6910B579
:406800009B1A11D192001430143183180A4453F8044D52F8041D8C4202D007D3012010BD9842F4D3002010BD184610BD4FF0FF3010BD2DE9F8430C46074611462046154652
:40684000FFF7DBFF061E08D131463846FFF78AFD012303614661BDE8F883BCBF23462C4638466168BABF1D4601260026FFF77AFD2B69C660266905F1140904F1140101EB05
:40688000860709EB830800F114054FF0000C51F8042B59F8044B93B29C44A3B2240CC3EB0C03C4EB124202EB23429BB24FEA224CC84543EA02428E4645F8042BE7D8BE452F
:4068C0000ED25EF8041B8AB26244131403EB114392B242EA03424FEA234C45F8042BEEE755F8043D0BB9013EFAE70661BDE8F883104B0B40A3F15073002B02DD00201946DB
:4069000070475B421B15132B4FF000004FF0000104DC4FF4002242FA03F17047143B1E2B4FF00102CEBF1346C3F11F0302FA03F3184670470000F07FF8B5056900F11406B8
:4069400006EB850555F8044C2F1F2046FFF7CFFDC0F120030A280B6014DCC0F10B0E24FA0EF1BE4241F07F5334BF55F8081C0021153004FA00F021FA0EF143F4401340EAB8
:40698000010223E0BE423ABFA5F1080755F8081C00210B3815D08440C0F1200544F07F5444F44014B74221FA05FE44EA0E038CBF57F8044C002401FA00F0EC4040EA0402A1
:4069C00004E00A4644F07F5343F4401310461946F8BD2DE9F3411C4601219046089E099DFFF7C0FCC4F31302C4F30A5407460CB142F480120192B8F1000F19D002A840F8FE
:406A0000088DFFF794FD009B48B1019AC0F1200102FA01F10B43C2407B61019200E07B61019B002B14BF02210121BB61396107E001A8FFF77CFD019B01217B6139612030B8
:406A400034B1A4F2334404443460C0F1350009E0A0F2324007EB810330601869FFF747FDC0EB41102860384602B0BDE8F0812DE9F743884669468146FFF75EFF0D46044666
:406A800001A94046FFF758FF0F460646D9F81030D8F8102020469A1A9DE80A00C91A01EB4213002BCCBF05EB0355A7EB035732463B462946FDF744FD03B0BDE8F08301394E
:406AC00010B549111469013102F1140300EB810103EB8404A342024604D253F8042B40F8042BF7E700238A4202D242F8043BFAE710BD00F1140200694B11984210B50CDBDD
:406B00000CDD11F01F0109D052F8234024FA01F000FA01F18C420CD100E0034602EB8303934204D953F8041D0029F9D001E0002010BD012010BD38B502FB01F4214600F081
:406B400009F8054618B122460021FEF792F9284638BD000070B5CD1C25F0030508350C2D38BF0C25002D064601DBA94202D90C23336046E000F067FF234B1C681A462146B9
:406B8000A1B10B685B1B0ED40B2B03D90B60CC18CD501EE08C420BBF63684B681360636018BF0C4615E00C464968E9E7174C23681BB9304600F01EFE20602946304600F066
:406BC00019FE431C18D0C41C24F00304A0420DD12560304600F038FF04F10B00231D20F00700C31A0ED05A42E25070BD211A304600F000FE0130EBD10C233360304600F099
:406C000023FF002070BD00BF2082FF1F1C82FF1F2DE9F0478E6882469E420C46914698463ED88A8912F4906F3AD02568096902236F1A656905EB450595FBF3F57B1C434435
:406C40009D4238BF1D4653050FD52946FFF782FF064698B13A462169FEF700F9A38923F4906343F08003A38113E02A4600F03AFF064670B92169504600F0E8FE0C23CAF834
:406C80000030A3894FF0FF3043F04003A381BDE8F08726613E44266046466561ED1BA560464528BF464649463246206800F0B0FEA36800209B1BA36023681E442660BDE83F
:406CC000F08700002DE9F04F9DB003938B8980461C060D4616460DD50B695BB94021FFF739FF2860286118B90C23C8F80030CDE040236B610023099320238DF82930DFF8AD
:406D00009CB130238DF82A3037463C4614F8013B1BB9B7EB060910D003E0252BF9D02746F3E74B46324629464046FFF771FF013000F0A780099B4B4409933B78002B00F09C
:406D4000A08000234FF0FF3204930793059206938DF853301A930126052221784E4800F049FE671C049B38B14B4A3C46801A06FA00F018430490EFE7D90644BF20228DF87C
:406D800053201A0744BF2B228DF8532022782A2A03D0079A00210A200BE0039A111D12680391002A10DA524243F00200079204900BE027463B780134303B092B03D800FBC7
:406DC00002320121F5E701B107923B782E2B1ED17B782A2B0AD1039B02371A1D1B680392002BB8BF4FF0FF33059310E0002319460593781C0A2407463A780130303A092A8E
:406E000003D804FB01210123F5E703B1059103223978224800F0EEFD40B14023CBEB000003FA00F0049B013718430490397806221B487E1C8DF8281000F0DCFD88B1194B3B
:406E400033B9039B073323F007030833039314E003AB00932A46144B04A94046AFF3008007E003AB00932A460F4B04A9404600F043FAB0F1FF3F824603D0099B5344099364
:406E800042E7AB895B0601D4099801E04FF0FF301DB0BDE8F08F00BF10870000168700001A87000000000000116C00004B1C70B50E46144602D14FF0FF3070BD9389CDB20A
:406EC00023F020039381536B526883B1A36B9A4207DA23685A1E226003F8016C636801331FE0214600F044FD0028F2D0E3E72169236851B1994208D213F8011C8D4204D102
:406F0000013B0132236062600CE0E36304F1440363630323A3632346226403F8466F236001236360284670BD10B50C46496B69B104F14403994201D000F088FD236C0020A8
:406F40006063636013B1E36B236010BD23694FF0FF30236000236360A38943F02003A38110BD00002DE9F04FDFF89C9207460D46CA46ADF5257D01930023469347939E4BB2
:406F80000DF10C08A2939D4BDFF874B2CDF82081A3931478002C00F02781D9F8003023445B7803F0080303F0FF01F3B16B68002B10DD2B68DAF800001978014449780C07EF
:406FC00010D5479901330131479169682B6001396960EBE7A39B2946384600929847009A0028E6D0561C3246D3E7252C02F1010652D14391459153782A2B02BF1023961CC7
:4070000043930A2231783446A1F13003092B06F1010605D8459B02FB0313303B4593F1E70322774800F0E6FC40B134460123CBEB000003FA00F0439B03434393661C247849
:40704000672C16D8652C7FD2472C07D8452C7BD2002C00F0CB80252C1ED077E05B2C51D002D8582C3ED071E0632C57D0642C3FD06CE0702C32D007D86E2C55D03AD8692CB7
:4070800064D1002344933BE0752C31D0782C29D0732C5BD102233FE06B68002B0DDD2B681A78944240F0A08001336A682B60479B013A01336A60479395E7A39B29463846D8
:4070C00098470028EBD04698002800F08F80AB8913F0400F18BF4FF0FF3089E0439B43F020034393439B43F400734393102302E00A2300E008236E2C449301DD04230BE07F
:40710000032309E03146404600F084FB0646439B43F040034393012349931BE0439B43F0400343930023F7E7439AD0063FF55BAF12F0010F019A479B02F1040101911268B4
:4071400014BF138013604EE70523E5E7032349930A2344936B68002B03DD439B590611D518E0A39B2946384698470028F5D0AAE7479A013247926A68013A002A6A6013DDA8
:4071800001332B602B68DAF800101A780A4452781207EDD4499B022B0DDC01AB2A4643A9384600F0CFF919E0A39B2946384698470028E7D087E7042B06DC01AB2A4643A976
:4071C000384600F025FA09E00E4B002B3FF40BAF01AB2A4643A93846AFF30080012803D002287FF400AF6EE7469801E04FF0FF300DF5257DBDE8F08FAD6E0000296F0000BB
:407200001687000000000000F880FF1F2DE9F04791461F460A698B6806469342B8BF1346C9F8003091F843200C46DDF8208012B10133C9F800302368990642BFD9F8003083
