:4000000000800020110000009D1700009D17000008B5044B1A6803F53F5302331A6001F0DDFB00BFFA46004010B5054C237833B9044B13B10448AFF300800123237010BD36
:400040004881FF1F00000000CC370000084B10B51BB108490848AFF300800848036803B910BD074B002BFBD0BDE81040184700BF000000004C81FF1FCC370000C880FF1FFC
:4000800000000000024A136801331360704700BF6481FF1F10B584B07E238DF80430FF238DF8053006238DF806308DF8070000248DF808408DF809108DF80A2000F2051372
:4000C0000B4413449BB25B429BB21A0A8DF80B208DF80C30EF238DF80D3006E004AB234413F80C0C02F06EF80134092CF6DD04B010BD00BF08B5024600210620FFF7CAFFBB
:4001000008BD00BF08B5024600210320FFF7C2FF08BD00BF08B5413814281FD8DFE800F00B1E1E1E0F1E1E1E131E1E1E1E1E171E1E1E1E1E1B000120FFF7E4FF08BD022077
:40014000FFF7E0FF08BD0320FFF7DCFF08BD0420FFF7D8FF08BD0520FFF7D4FF08BD00BF0028B8BF4042B42817D006DC5A2822D087280FD02D281CD109E0B0F5877F12D084
:4001800040F23B13984211D0E12812D108E040F21450704740F6D860704741F25040704741F64610704741F67860704742F2F0307047002070474FF41660704708B502F039
:4001C000A1FD0E4A80FB0223C218C317C3EB22234FF4B47202FB1303002B00DA1344074883FB00015818DA17C2EBA0105A2202FB1030003018BF012008BD00BFB7600BB621
:400200000FB410B582B004AA52F8041B0192064C204602F0D1FE204601F078FD02B0BDE8104004B0704700BF2087FF1F08B5002001F02EFB002001F037FB002001F086FDB1
:40024000002001F08FFD08BD38B5054C00252571FFF7ECFF2368A360E56001F037FF38BD6481FF1FF8B504460F46164600E001342578202DFBD0022E2CDD022221492046B1
:4002800002F0C9FD28B102221F49204602F0C3FD10BB1E4B1868A37803445B7813F0040F1CD004F1020E734600E001331A788118497811F0040FF8D1202A00D082B93D7081
:4002C00063787B700023BB707046F8BDBB540134013206E0002204E0002202E0002200E000222378202B03D013B1711E8A42EDDB0023BB5400E001342378202BFBD02046F6
:40030000F8BD00BFD0370000D4370000E080FF1F70B50C6894425EDA1E460C4605460B6800EB031301229A600B6800EB03130022DA602B49304602F05CFD20B129493046C2
:4003400002F057FD98B9327823681B01662A01D1114600E06221E954206805EB0015662A02D1049B5B4200E0049B6B602EE01E49304602F03EFD20B11C49304602F039FDDA
:4003800058BB0498FFF7ECFE024628B904991848FFF736FF002070BD3378216809016C2B01D1184600E072206854216805EB01116C2B00D152424A60206805EB00156C2B88
:4003C00002D1049B5B4200E0049BEB60236801332360012070BD002070BD002070BD00BFD0370000D4370000D8370000DC370000E037000038B50546002411E004EB84022E
:40040000D30029460948184402F0F3FC38B904EB8404E0001030054B1844043038BD0134034B1B699C42E9DB002038BDA093FF1F6481FF1F38B5044601F0E6FE05460D48D1
:40044000FFF7D8FF60B103464E2C05D10A4A1068186012791A7103E02034047000224270064B0122DA6002221A71284601F0D0FE38BD00BF143800001C3800006481FF1F4B
:4004800070B586B06C46594D0FCD0FC495E8030044F8040B2170564B1B79DBB2022B02D101F014FEA0E0524B1B79DBB2032B04D04F4B1B7913F0FF0F12D101F007FE4C4BCA
:4004C0001B7913F0FF0F40F08F80494A136892689B1A632B40F288800122454B1A7183E0434B1B79DBB2012B21D1414A136892689B1A40F63302934219D901F085FE044680
:400500003C48FFF777FF034620B13B4A1068186012791A71364B0122DA6002221A711A689A60204601F074FE344801F0EFFB01F0C1FD002858D001F0A7FD0446A0F161032A
:40054000DBB2192B02D8A0F12004E4B2284B1B79DBB2012B05D0264B1B7D9C4203D0012302E0012300E00023DDB2A4F14103142B3AD8DFE803F00B3939390B3939390B39E6
:40058000393939270B39393939390B002046FFF751FF8DF8114015B1684601F0B5FD144B1C751448FFF726FF064608B9144900E001461448FFF724FEB6B1ADB12046FFF710
:4005C000A9FD11E02046FFF735FF15B10E4801F09BFD074B1C750748FFF70CFF014600B907490848FFF70CFE06B070BD7C3800006481FF1F143800001C38000034380000B6
:4006000024380000543800006438000070B50C46FFF7F0FE90B1054623783A2B06D1661C3046FFF7E7FE044600B934462146284602F0DFFBB0FA80F0400970BD002070BDAA
:4006400010B58AB0044617E00A2202A92046FFF709FE9DF80830ABB114220DEB0201FFF701FE044605A802F073FB009002AB1E2205490648FFF74CFE23781BB1044B9B6947
:400680001D2BE1DD0AB010BD7C81FF1FDC84FF1F6481FF1F002208E05B2B01D1013203E05D2B01D1013A04D001300378002BF3D1002070472DE9F0479CB004460F4616462A
:4006C0001D4660E001342378202BFBD0002B5FD006223149204602F09EFB00283FD1063400E001342378202BFBD0204602F030FB804600E001342378202B03D0002BF9D140
:4007000000E001342378202BFBD05B2B3BD12046FFF7C0FF814600283AD0611CC1EB000ABAF1310F01D94FF0310A524602A802F087FB1CAB9A4400240AF8684C0AE002A911
:400740000FA802F060FB2B46324639460FA8FFF7B1FF01344445F2DB09F1010413E00A2202A92046FFF77EFD14220FA9FFF77AFD04460FA802F0ECFA009002AB2A4631462D
:400780003846FFF7C5FD237813B13368AB429ADB1CB0BDE8F08700BF9838000008B502490248FFF733FF08BDF881FF1F9495FF1F70B50646FFF748FD3F4BDD6925B11A6A3D
:4007C0003E4B03EB02130DE03B4B5B6A2BB13A4B9A6A3B4B03EB021304E0374BDA6A394B03EB02131A78662A01D0622A0CD132490A6B01320A635B68002BB8BF5B429A424C
:4008000002DA01224A6370BD2B4C00232363304602F0AEF90146A06B02F0F6F8A06305E02949204602F0F0F8234B9863224B9C6B0021204602F03EFA0028F1D105E022491C
:40084000204602F0DFF81C4B98631B4B9C6B1E49204602F043FA0028F1D1ADB1164A136A01331362D26B934222DB134B0022DA61DA6A0132DA62DA6A9B699A4218DB0E4BC3
:400880000022DA629A6113E00B4B5B6A23B10A4A936A013393620BE0074BDA6A0132DA62DA6A9B699A4203DB034B00229A61DA620122014B5A6370BD6481FF1FEC83FF1F01
:4008C0000C82FF1FDC84FF1F0000B4430000000008B501F0F3FD08A3D3E9002301F054FE02F064F8E630FF2800DDFF20002800DA002008BDAFF30080333333333333C33FA8
:4009000010B58AB004460022114B1A6417E00A2202A92046FFF7A6FC9DF80830ABB114220DEB0201FFF79EFC044605A802F010FA009002AB1E2207490748FFF7E9FC237837
:400940001BB1034B1B6C1D2BE1DD0AB010BD00BF6481FF1FA481FF1F0C82FF1FF0B5A9B001F0B2F9954B83F84400002800F0458301F0C0F9914B93F844300D2B02D00A2BBB
:4009800040F030838D4B93F84530002B00F035838B4801F0BBF9894B93F8453089480022C2540422884902F036FAD8B9FFF73EFC002211461620FFF76DFB804C0025A56176
:4009C000E5622564A5626562E5632562E561A564E5606563022323717C4801F097F984F845500AE304227A49764802F014FA734B1B79DBB2022B0AD1704B9B6C3BB96F4B34
:400A00005B6A23B96D4BDA6A9B699A4228DA6B4B1979C9B21B7913F0FF0F0BD0674B1B79DBB2012B08D0654B1B79DBB2022B05D1684A04E0684A02E0684A00E0684A5F4C30
:400A4000A36CE06AA5692668039602950190606A00906448FFF7D4FB002384F84530CCE218B1564B00229A61DA62564C8BE201342578202DFBD0002D00F08C8206225A4981
:400A8000204602F0C8F900283CD1063400E001342378202BFBD0204602F05AF9064600E001342378202B03D0002BF9D100E001342378202BFBD05B2B40F0658201345D2118
:400AC000204602F088F90746002800F06382051B312D00D931252A4621460EA802F0B0F928AB2B44002503F8685C07E00EA91BA802F089F91BA8FFF7A3FD0135B542F5DBAD
:400B00007C1C40E204223249204602F084F9002840F09980043400E001342378202BFBD0222B00D10134002305E028A9194401F8682C013401332278202A02D00AB1122BE9
:400B4000F3DD28AA1344002203F8682C00E001342378202BFBD0222B00D10134002305E028A9194401F8342C013401332278202A02D00AB1122BF3DD28AA1344002503F8F3
:400B8000345C38E005EB8502D3000EA91748184402F02FF970BB05EB8505EB001033134A98181BA9043002F02EF91BAA0EA91048FFF726FB0123014AD36021E06481FF1F35
:400BC000E03A0000BC86FF1FC8380000D0380000E4380000C0380000AC380000A0380000B8380000EC38000098380000A093FF1F283900000135AA4B1B699D42C2DB0023BF
:400C0000002B40F0C081A64B1D69092D00F3BB81AE007319D800A34F0EA9384402F0F3F82E44F3001033D8191BA9043002F0EBF89B4E013535611BAA0EA99B48FFF7E0FADE
:400C40000123F3609FE13A2D22D10134002305E028A9194401F8342C013401332278202A02D00AB1122BF3DD28AA1344002203F8342C1BA8FFF7BEFB024620B11BA98B48B0
:400C8000FFF7BEFA7FE11BA98948FFF7B9FA7AE106228849204602F0BEF8002840F0BF80063400E001342378202BFBD03A2B40F06A810134002305E028A9194401F8902C4F
:400CC000013401332278202A02D00AB1122BF3DD28AA1344002203F8902C00E001342378202BFBD03D2B02D1013400E001342378202BFBD0222B00D10134002305E028A9E3
:400D0000194401F87C2C013401332278202A02D00AB1122BF3DD28AA1344002203F87C2C00E001342378202BFBD05B2B40F02B81661C2046FFF7AEFC0546002800F0238129
:400D4000841B224631460EA802F07AF828AB1C44002304F8683C6C1C00E001342378202BFBD05B2B40F00F81661C2046FFF792FC0546002800F00781841B224631461BA8B9
:400D800002F05EF828AB1C44002304F8343C6C1C434B9B691D2B00F3F680414DAA69464B120169219954AA6903EB021200215160AA6903EB021201209060AA6903EB02137F
:400DC000D960A86964263D4F04A906FB007002F01AF8A86906FB00F01030384409A9043002F011F8A86906FB00F028300EA9384402F009F8AB6906FB03F34033D8191BAE1A
:400E00003146063001F0FFFF00960EAB09AA04A92B48FFF7F5F9AB690133AB61B3E005222849204601F0F7FF002840F09380053400E001342378202BFBD03A2B11D101345E
:400E4000002303E02049CA54013401332278202A02D00AB1122BF5DD00211B4AD15400E001342378202BFBD03D2B02D1013400E001342378202BFBD0222B00D101340022E0
:400E800003E012498B54013401322378202B02D00BB1122AF5DD00210C4B995419E000BF6481FF1FA093FF1F40390000543900006839000084390000DC84FF1FE887FF1F4B
:400EC0008C390000B03900009495FF1FF881FF1F01342378202BFBD05B2B54D1671C2046FFF7D8FB064600284DD0C41B632C00D96324434D22463946284601F0A1FF00222C
:400F00002A55404C0120E064A1693F4B090177275F54A16903EB01114A60A16903EB01118860A16903EB0113DA60A3690344A3612846FFF7E5FC216C3448FFF761F9344AF3
:400F400034493548FFF75CF929463448FFF758F9741C18E00A220EA92046FFF783F90446037843B114221BA9FFF77CF904461BA801F0EEFE00E0012000900EAB1E222849B4
:400F80002148FFF7C5F9237823B11E4B9B691D2B7FF76EAD1B4B9B69002B1EDD194C217922682048FFF72CF9A1691F48FFF728F900240BE0144A2301D118D25C4B688968EF
:400FC000009121461948FFF71BF901340D4B9B699C42EFDB01220B4B5A630022094B83F845200AE0074A92F84520622A05D8501C044981F845000E498B5429B0F0BD00BF44
:401000003095FF1F6481FF1FDC84FF1FB8390000F881FF1F9495FF1FD0390000E43900007C81FF1FF8390000143A0000283A0000BC86FF1F2DE9F04762B600F037FE01F080
:4010400015F801F0B1F80A20FFF754F8A04801F05BF8A04800F0CEFF9F4800F057FE9F4800F054FE00F032FD00F066FD00F0E6FE00F01AFFE62000F0E3FCE62000F098FE87
:4010800000F032FD064600F0E7FE054600F0A8FC9349002000F0B2FCFFF7D6F8914B1C68FFF7EEF98F4B1B7913F0FF0FF8D08D4B1B79DBB2012BF3D08A4B9B6C002B2CD044
:4010C000884BDB68002BEBD0864B00229A64DA60FFF764FB48B1844800F018FE814B00229A6201225A625A63DAE7804800F00EFE7C4BDA6A0132DA62DA6A9B699A4203DB22
:40110000784B0022DA629A61764B01225A63D96A9A697748FFF774F8C2E7724B1B681B1B632BBDD96F4B1C685B6B43B100226D4B5A6300F0D9FC064600F08EFE054600F0F1
:40114000D3FC074600F088FEBF1BC5EB0009654B5A6A92B1996A1B6C99420EDBFFF766F8604B00225A6201229A64DB680BB9FFF76BF8604800F0CAFD92E75A4BD96A9B6923
:40118000994202DBFFF752F88AE7564BDB692BB1544B1A6A584B03EB02180BE02AB1514B9A6A564B03EB021804E04E4BDA6A544B03EB021898F80030662B05D0622B03D03A
:4011C0006C2B01D0722B09D1D8F804201AB90020FFF7EEFA64E70321424A1171623B152B00F27781DFE813F01C01750175017501C20075017501160075017501F7007501A1
:401200007501750175017501510175017501750175019600334B1B6D2BB90122314B1A65FFF712F83CE72F4B00221A65D3F82C90642202FB09F2334B02EB030810321344BC
:401240001F1D39464046FFF7E1F9824603463A4641462D48FEF7D4FFBAF1000F01D02B4800E02B4800F052FDBAF1000F06D0642000FB09F02830234B184406E0642000FBE9
:4012800009F040301F4B18440630164F3A46002342F83C3F0F231849FFF70CFAFB6B002B05DD0122FA61002139627A63F8E60D4BDA6A0132DA62DA6A9B699A4203DB094BB4
:4012C0000022DA629A610122064B5A63E8E600BF683A00005D090000783A0000E03A0000850000006481FF1F8C3A0000A03A0000AC3A0000CC3A0000EC83FF1F0C82FF1FB6
:40130000DC84FF1FE887FF1FE43A0000503A00005C3A0000704B5B6D2BB901226E4B5A65FEF792FFBCE600226B4B5A65FFF736FA48B16A4800F0EAFC674B00229A62012209
:401340005A625A63ACE6664800F0E0FC624B00225A62DA6A0132DA62DA6A9B699A42FFF69FAE5D4B0022DA629A6199E65A4B986BFEF724FF10B140F68C2201E040F26C726E
:40138000D8F80430002B02DA4FF0FF3300E0012303FB02F8C9EB0700FFF79AFA0746E62000F006FDF8B200F04BFBC1450CDB002000F06EFA012000F077FA002000F0C6FC91
:4013C000012000F0CFFC6BE64648FEF719FF0020FFF7EEF964E6D8F804A0C9F10000C01BFFF776FA0746E62000F0E2FCF8B200F027FBD1450CDB012000F04AFA002000F030
:4014000053FA002000F0A2FC012000F0ABFC47E63548FEF7F5FED8F80C00FFF7C9F93FE62D4B986BFEF7CAFE10B140F68C2201E040F26C72D8F80430002B02DA4FF0FF3364
:4014400000E0012303FB02F8C7EB0900FFF740FA0746E62000F0ACFCF8B200F0F1FAC1450CDC012000F014FA002000F01DFA012000F06CFC002000F075FC11E61B48FEF798
:40148000BFFE0020FFF794F90AE6D8F804A007EB0900FFF71DFA0746E62000F089FCF8B200F0CEFAD1450CDC002000F0F1F9012000F0FAF9012000F049FC002000F052FC86
:4014C000EEE50B48FEF79CFED8F80C00FFF770F9E6E5FEF7ABFEE3E56481FF1FFC3A00000C3B00001C3B0000D8370000243B0000DC370000FEE700BFF0B40022174611E0BB
:4015000050F82760F3B226F0FF0608E001EB420511F812406D78A5550132013BDBB2002BF4D10137262FEBD9F0BC7047064B1B78DBB203F00701054A11701B090132137011
:401540004422034B1A707047CF0100496E5800407658004008B50A46002101F034FC08BD38B517222C4B1A8018232C490B7002310A802B4A13704FF49C7204310A800231DB
:401580000B7002310A8002310B7002310A80254A13700222244B1A7008224FF040231A70032103F500731970204B1B78DBB220490B70204B1A8041F25122023B1A800024F6
:4015C00019250CE01C4B1B7803F0010343EA440404F003044FF4F07000F00EFE013D0DB1032CEFD115B90320FFF784FF134B4FF480721A8007221A70002211490A7048202E
:40160000023108701A700222033B1A700D4A137843F01F03137038BD804000408240004086400040924000400043004008010049A1460040224200402542004004400040F5
:4016400006400040A243004008B501F0B1FB08BD38B572B63C4A137843F00403137000240CE03A4D630019194A0011462A44084691882858FFF76EFF0134E4B2072CF0D971
:4016800000240BE03149A3001819420088188022416B006BFFF7D8FF0134E4B2002CF1D02B494FF09040FFF727FF2A4A2A4B1A6002F1404203F5C0731A60284A137843F061
:4016C000020313701032137843F002031370244C237843F040032370A2F58632513A137843F0100313700A221E491F48FFF7ACFF08221E491E48FFF7A7FF0A221D491E4872
:40170000FFF7A2FF0A221D491D48FFF79DFF0A221C491D48FFF798FF1C4A137843F0080313701B4D61232B70FFF71AFF81232B700122184B1A70FFF7F9FE0E22214616488D
:40174000FFF782FF38BD00BFE84600402C3B00009C00004804040484D80A014003500140A0430040A80F0048C0510040B40F0048F2510040BC0F004810510040C80F00486A
:4017800020510040D40F004830510040224300400048004004000840B043004008B501F0DBFA03680C2B00D1FEE7FEE708B5094B1A681044084BC31A802B02DC054B1860B8
:4017C00005E001F0C9FA0C2303604FF0FF32104608BD00BFCC80FF1FB095FF1F08B5104E104D16E029686B68AC68002204E051F8040B43F8040B0432A242F8D1E8680022C4
:4018000003E0002143F8041B04328242F9D11035013E002EE6D101F0A5FAFFF70BFCFEE701000000C03C000008B5104A104B1A60104A136843F40073136000230AE0032B95
:4018400003D80D4A52F8231000E00C490C4A42F8231001332F2BF2D90A4B1A780A4B1A70074A0A4B1A60FFF7F3FE08BD0004FA050CED00E014ED00E0000000009D17000065
:401880000080FF1FBC760040C080FF1F08ED00E0044A137803F0DF03400100F0200018431070704710510040044A137803F0EF03000100F0100018431070704710510040C1
:4018C00001BE704770B504460E46074B1D680F2802D90020FFF7F4FF04F00F0455F8240045F8246070BD00BF08ED00E0024A136843F002031360704710E000E008B5FFF717
:40190000F5FF034A136843F00103136008BD00BF10E000E020F07F40014B1860704700BF14E000E0012805D1054A136843F0040313607047024A136823F0040313607047D8
:4019400010E000E0024B1868C0F30040704700BF10E000E010B5FFF7F5FF01280BD107E0054B03EB84035B6803B19847013400E00024042CF4D910BDC881FF1F0022014B03
:401980001A60704718E000E008B5002305E00F4A02EB8302002151600133042BF7D90C490F20FFF78FFF0120FFF7BCFF094BDB680948A0FB03308009FFF7ACFFFFF7DEFFFC
:4019C0004FF40042054B1A6008BD00BFC881FF1F55190000D080FF1FD34D621000E100E008B5054B9B6923B9FFF7CEFF0122024B9A61FFF783FF08BDC881FF1F024B03EB84
:401A00008003586859607047C881FF1F084A137843F0010313701032137843F00103137002F64D32137843F001031370704700BFA3430040014B1880704700BF044F004029
:401A4000014B1880704700BF064F0040014B1870704700BF034F004008B5194A137843F0020313700232137803F08F0343F010031370144B1A7802F0CF021A701A7842F026
:401A800030021A701A7802F0F0021A701A7842F00F021A70FF20FFF7CDFFFF20FFF7D0FF0020FFF7D3FF084A137843F00103137002F65E32137843F00103137008BD00BF76
:401AC000004F00400B4F0040A343004008B5054B1B7823B9FFF7C0FF0122024B1A70FFF795FF08BDE481FF1F08B500F051F8A0F5004000B208BD00BF024B187800F00F00BD
:401B0000704700BF69650040014B1870704700BF8965004008B50F20FFF7F6FFFFF7ECFF00F072FB034A137843F01003137000F06FFB08BD9965004008B500F07BF84FF433
:401B4000004000F01FF8044B1B7813B90122024B1A70FFF7DFFF08BDE581FF1F024A137843F08003137070477A650040014B1870704700BF8B640040014B1878704700BFA8
:401B80006B640040014B1880704700BF146A0040024B1B78024B188880B270470A650040946A0040014B188880B27047946A0040014B1880704700BF546A0040014B18800C
:401BC000704700BF746A004008B501E0FFF7EAFFFFF7D2FF10F0400FF8D108BD08B5134B1A7802F0F8021A701A7802F0FC021A70FFF7EAFF4FF40040FFF7DAFF4FF400404D
:401C0000FFF7C0FF0020FFF7B1FFFFF7B5FF4FF40040FFF7D3FF00F0F7FA054A137843F01003137000F0F4FA08BD00BF7A6500409B64004008B5054B1B7823B9FFF7CEFFB1
:401C40000122024B1A70FFF789FF08BDE681FF1F7222074B1A702022033B1A700622653B1A70472210331A7000224D331A7070478D64004010B500F0C7FA04460A4A1378ED
:401C800043F020031370033A137843F010031370083A137843F01003137000F049F8204600F0B6FA10BD00BF9D64004008B5054B1B7823B9FFF7CCFF0122024B1A70FFF7F3
:401CC000D9FF08BDE781FF1F084B1B78DBB213F0200F06D0064A1078C0B213F01E0F02D17047002070470020704700BF6A64004049640040034B1B7813F0040FFAD1024BCB
:401D000018707047626400404264004038B5074B1B782BB938BDFFF7EDFF0134A4B201E005460024285D0028F5D138BDE781FF1F054A137843F0100313701032137843F07F
:401D400010031370704700BFA2430040044A137803F0FB03800000F0040018431070704720510040044A137803F0FD03400000F0020018431070704720510040084A137893
:401D800043F0020313701032137843F00203137002F65932137843F001031370704700BFA3430040014B1880704700BF104F0040014B1880704700BF124F0040014B1870B4
:401DC000704700BF0F4F004008B5194A137843F0020313700232137803F08F0343F010031370144B1A7802F0CF021A701A7842F030021A701A7802F0F0021A701A7842F0DA
:401E00000F021A70FF20FFF7CDFFFF20FFF7D0FF0020FFF7D3FF084A137843F00203137002F66A32137843F00103137008BD00BF0C4F0040174F0040A343004008B5054BF1
:401E40001B7823B9FFF7C0FF0122024B1A70FFF795FF08BDE981FF1F08B500F051F8A0F5004000B208BD00BF024B187800F00F00704700BF6F640040014B1870704700BFBD
:401E80008F64004008B50F20FFF7F6FFFFF7ECFF00F0BAF9034A137843F01003137000F0B7F908BD9F64004008B500F07BF84FF4004000F01FF8044B1B7813B90122024B83
:401EC0001A70FFF7DFFF08BDEA81FF1F024A137843F080031370704778640040014B1870704700BF8C640040014B1878704700BF6C640040014B1880704700BF186800405D
:401F0000024B1B78024B188880B270470C64004098680040014B188880B2704798680040014B1880704700BF58680040014B1880704700BF7868004008B501E0FFF7EAFF95
:401F4000FFF7D2FF10F0400FF8D108BD08B5134B1A7802F0F8021A701A7802F0FC021A70FFF7EAFF4FF40040FFF7DAFF4FF40040FFF7C0FF0020FFF7B1FFFFF7B5FF4FF472
:401F80000040FFF7D3FF00F03FF9054A137843F01003137000F03CF908BD00BF786400409C64004008B5054B1B7823B9FFF7CEFF0122024B1A70FFF789FF08BDEB81FF1F43
:401FC000014B1B681864704708ED00E04001C0B2014B1870704700BF00E400E00122014B1A60704700E100E00122014B1A60704780E100E010B50446FFF7F6FF2046FFF7B1
:40200000DFFF0720FFF7E2FFFFF7E8FF10BD00BF7222074B1A70202202331A700622A0331A70472210331A700022B43B1A7070478564004010B500F0E7F804460A4A1378F7
:4020400043F0200313700232137843F010031370043A137843F01003137000F067F8204600F0D6F810BD00BF9564004008B5054B1B7823B9FFF7CCFF0122024B1A70FFF708
:40208000D9FF08BDEC81FF1F084B1B78DBB213F0200F06D0064A1078C0B213F01E0F02D17047002070470020704700BF676400404B640040044B1B7813F0200F01D001200C
:4020C00070470020704700BF6764004008B500F09BF8064B1A7842F001021A701A7802F0FE021A7000F094F808BD00BF9B640040034B1B7813F0040FFAD1024B187070470B
:40210000636400404764004038B5074B1B782BB938BDFFF7EDFF0134A4B201E005460024285D0028F5D138BDEC81FF1F054A137843F0040313701032137843F00403137031
:40214000704700BFA24300407222084B1A70202204331A700622A3F5B1731A70472210331A70002250331A70704700BF8465004010B500F049F804460A4A137843F0200369
:4021800013700432137843F010031370A2F58172137843F01003137000F020F8204600F037F810BD9465004008B5054B1B7823B9FFF7CAFF0122024B1A70FFF7D9FF08BDD9
:4021C000EE81FF1F034B1B7813F0040FFAD1024B187070476664004046650040054A137843F0080313701032137843F008031370704700BFA24300400230800803D000BFFF
:4022000001380046FCD17047EFF3108072B6704780F31088704700BF81F0004102E000BF83F0004330B54FEA41044FEA430594EA050F08BF90EA020F1FBF54EA000C55EA91
:40224000020C7FEA645C7FEA655C00F0E2804FEA5454D4EB5555B8BF6D420CDD2C4480EA020281EA030382EA000083EA010180EA020281EA0303362D88BF30BD11F0004F62
:402280004FEA01314FF4801C4CEA113102D0404261EB410113F0004F4FEA03334CEA133302D0524263EB430394EA050F00F0A780A4F10104D5F1200E0DDB02FA0EFC22FA02
:4022C00005F2801841F1000103FA0EF2801843FA05F359410EE0A5F120050EF1200E012A03FA0EFC28BF4CF0020C43FA05F3C01851EBE37101F0004507D54FF0000EDCF1B6
:40230000000C7EEB00006EEB0101B1F5801F1BD3B1F5001F0CD349085FEA30004FEA3C0C04F101044FEA445212F5800F80F09A80BCF1004F08BF5FEA500C50F1000041EBED
:40234000045141EA050130BD5FEA4C0C404141EB010111F4801FA4F10104E9D191F0000F04BF01460020B1FA81F308BF2033A3F10B03B3F120020CDA0C3208DD02F1140C2B
:40238000C2F10C0201FA0CF021FA02F10CE002F11402D8BFC2F1200C01FA02F120FA0CFCDCBF41EA0C019040E41AA2BF01EB0451294330BD6FEA04041F3C1CDA0C340EDC64
:4023C00004F11404C4F1200220FA04F001FA02F340EA030021FA04F345EA030130BDC4F10C04C4F1200220FA02F001FA04F340EA0300294630BD21FA04F0294630BD94F08A
:40240000000F83F4801306BF81F480110134013D4EE77FEA645C18BF7FEA655C29D094EA050F08BF90EA020F05D054EA000C04BF1946104630BD91EA030F1EBF00210020DA
:4024400030BD5FEA545C05D14000494128BF41F0004130BD14F580043CBF01F5801130BD01F0004545F0FE4141F470014FF0000030BD7FEA645C1ABF194610467FEA655C37
:402480001CBF0B46024650EA013406BF52EA033591EA030F41F4002130BD00BF90F0000F04BF0021704730B54FF4806404F132044FF000054FF0000150E700BF90F0000F07
:4024C00004BF0021704730B54FF4806404F1320410F0004548BF40424FF000013EE700BF42004FEAE2014FEA31014FEA02701FBF12F07F4393F07F4F81F06051704792F056
:40250000000F14BF93F07F4F704730B54FF4607401F0004521F0004120E700BF50EA010208BF704730B54FF000050AE050EA010208BF704730B511F0004502D5404261EB0E
:4025400041014FF4806404F132045FEA915C3FF4DCAE4FF003025FEADC0C18BF03325FEADC0C18BF033202EBDC02C2F1200300FA03FC20FA02F001FA03FE40EA0E0021FA21
:4025800002F11444C1E600BF70B54FF0FF0C4CF4E06C1CEA11541DBF1CEA135594EA0C0F95EA0C0F00F0DEF82C4481EA030621EA4C5123EA4C5350EA013518BF52EA0335CE
:4025C00041F4801143F4801338D0A0FB02CE4FF00005E1FB02E506F00042E0FB03E54FF00006E1FB03569CF0000F18BF4EF0010EA4F1FF04B6F5007F64F5407404D25FEAAF
:402600004E0E6D4146EB060642EAC62141EA55514FEAC52040EA5E504FEACE2EB4F1FD0C88BFBCF5E06F1ED8BEF1004F08BF5FEA500E50F1000041EB045170BD06F00046C2
:4026400046EA010140EA020081EA0301B4EB5C04C2BFD4EB0C0541EA045170BD41F480114FF0000E013C00F3AB8014F1360FDEBF002001F0004170BDC4F10004203C35DA98
:402680000C341BDC04F11404C4F1200500FA05F320FA04F001FA05F240EA020001F0004221F0004110EBD37021FA04F642EB06015EEA430E08BF20EAD37070BDC4F10C0433
:4026C000C4F1200500FA04F320FA05F001FA04F240EA020001F0004110EBD37041F100015EEA430E08BF20EAD37070BDC4F1200500FA05F24EEA020E20FA04F301FA05F250
:4027000043EA020321FA04F001F0004121FA04F220EA020000EBD3705EEA430E08BF20EAD37070BD94F0000F0FD101F00046400041EB010111F4801F08BF013CF7D041EA4F
:40274000060195F0000F18BF704703F00046520043EB030313F4801F08BF013DF7D043EA0603704794EA0C0F0CEA135518BF95EA0C0F0CD050EA410618BF52EA4306D1D14F
:4027800081EA030101F000414FF0000070BD50EA410606BF1046194652EA430619D094EA0C0F02D150EA013613D195EA0C0F05D152EA03361CBF104619460AD181EA030123
:4027C00001F0004141F0FE4141F470014FF0000070BD41F0FE4141F4780170BD70B54FF0FF0C4CF4E06C1CEA11541DBF1CEA135594EA0C0F95EA0C0F00F0A7F8A4EB0504D0
:4028000081EA030E52EA03354FEA013100F088804FEA03334FF0805545EA131343EA12634FEA022245EA111545EA10654FEA00260EF000419D4208BF964244F1FD0404F52A
:40284000407402D25B084FEA3202B61A65EB03055B084FEA32024FF480104FF4002CB6EB020E75EB030E22BFB61A754640EA0C005B084FEA3202B6EB020E75EB030E22BF2F
:40288000B61A754640EA5C005B084FEA3202B6EB020E75EB030E22BFB61A754640EA9C005B084FEA3202B6EB020E75EB030E22BFB61A754640EADC0055EA060E18D04FEA0B
:4028C000051545EA16754FEA06164FEAC30343EA52734FEAC2025FEA1C1CC0D111F4801F0BD141EA00014FF000004FF0004CB6E711F4801F04BF01430020B4F1FD0C88BFDC
:40290000BCF5E06F3FF6AFAEB5EB030C04BFB6EB020C5FEA500C50F1000041EB045170BD0EF0004E4EEA113114EB5C04C2BFD4EB0C0541EA045170BD41F480114FF0000E1A
:40294000013C90E645EA060E8DE60CEA135594EA0C0F08BF95EA0C0F3FF43BAF94EA0C0F0AD150EA01347FF434AF95EA0C0F7FF425AF104619462CE795EA0C0F06D152EAEA
:4029800003353FF4FDAE1046194622E750EA410618BF52EA43067FF4C5AE50EA41047FF40DAF52EA43057FF4EBAE12E74FEA410212F5001215D211D56FF47873B3EB625247
:4029C00012D94FEAC12343F0004343EA505311F0004F23FA02F018BF404270474FF00000704750EA013005D111F0004008BF6FF0004070474FF00000704700BF80F0004020
:402A000002E000BF81F0004142001FBF5FEA410392EA030F7FEA226C7FEA236C6AD04FEA1262D2EB1363C1BFD218414048404140B8BF5B42192B88BF704710F0004F40F432
:402A4000000020F07F4018BF404211F0004F41F4000121F07F4118BF494292EA030F3FD0A2F1010241FA03FC10EB0C00C3F1200301FA03F100F0004302D5494260EB40001B
:402A8000B0F5000F13D3B0F1807F06D340084FEA310102F10102FE2A51D2B1F1004F40EBC25008BF20F0010040EA03007047490040EB000010F4000FA2F10102EDD1B0FAA0
:402AC00080FCACF1080CB2EB0C0200FA0CF0AABF00EBC25052421843BCBFD0401843704792F0000F81F4000106BF80F400000132013BB5E74FEA41037FEA226C18BF7FEA17
:402B0000236C21D092EA030F04D092F0000F08BF0846704790EA010F1CBF0020704712F07F4F04D1400028BF40F00040704712F100723CBF00F50000704700F0004343F0A5
:402B4000FE4040F4000070477FEA226216BF08467FEA23630146420206BF5FEA412390EA010F40F4800070474FF0000304E000BF10F0004348BF40425FEA000C08BF7047B7
:402B800043F0964301464FF000001CE050EA010208BF70474FF000030AE000BF50EA010208BF704711F0004302D5404261EB41015FEA010C02BF84460146002043F0B64387
:402BC00008BFA3F18053A3F50003BCFA8CF2083AA3EBC25310DB01FA02FC634400FA02FCC2F12002BCF1004F20FA02F243EB020008BF20F00100704702F1200201FA02FCC4
:402C0000C2F1200250EA4C0021FA02F243EB020008BF20EADC7070474FF0FF3C06E000BF4FF0010C02E000BF4FF0010C4DF804CD4FEA40024FEA41037FEA226C18BF7FEA89
:402C4000236C11D001B052EA530C18BF90EA010F58BFB2EB030088BFC81738BF6FEAE17018BF40F0010070477FEA226C02D15FEA402C05D17FEA236CE4D15FEA412CE1D091
:402C80005DF8040B704700BF844608466146FFE70FB5FFF7C9FF002848BF10F1000F0FBD4DF808EDFFF7F4FF0CBF012000205DF808FB00BF4DF808EDFFF7EAFF34BF012095
:402CC00000205DF808FB00BF4DF808EDFFF7E0FF94BF012000205DF808FB00BF4DF808EDFFF7D2FF94BF012000205DF808FB00BF4DF808EDFFF7C8FF34BF012000205DF8B7
:402D000008FB00BF4FEA4002B2F1FE4F0FD34FF09E03B3EB12620DD94FEA002343F0004310F0004F23FA02F018BF404270474FF00000704712F1610F01D1420205D110F017
:402D4000004008BF6FF0004070474FF0000070470A22002100F00EB9014B1868704700BF4481FF1F0E4B70B51E460E4C0025E41AA410A54204D056F8253098470135F8E772
:402D800000F08CFF084B094C1E46E41AA4100025A54204D056F8253098470135F8E770BDA83C0000A83C0000A83C0000B03C000010B5431E0A44914204D011F8014B03F833
:402DC000014FF8E710BD03460244934202D003F8011BFAE77047C9B2034610F8012B1AB19142F9D11846704700290CBF18460020704710F8012B11F8013B012A28BF9A42ED
:402E0000F7D0D01A7047034611F8012B03F8012B002AF9D1704730B582B1451E013915F8013F11F8014FA34206D1EC431444E04201D0002BF3D11C46181B30BD104630BD95
:402E4000034610B542B111F8014B013A03F8014B002CF7D11A4400E010BD934202D003F8014BFAE710BD00002DE9F0470F4680463F48D0F800903D4615F8014B09EB0400C4
:402E8000407800F0080000F0FF0608B12F46F2E72D2C03D1BD1C7C78012603E02B2C04BF7C78BD1C13B1102B0AD15BE0302C57D1287800F0DF0058284DD16C781023023587
:402EC000002E14BF4FF0004C6FF0004CBCFBF3FA0027384603FB1ACC09EB040E9EF801E01EF0040F01D0303C0BE01EF0030E1BD0BEF1010F0CBF4FF0370E4FF0570ECEEB33
:402F00000404A34210DDB7F1FF3F0AD0504506D801D1644503DC03FB0040012701E04FF0FF3715F8014BD7E77B1C0CD1002E4FF0220314BF4FF000406FF00040C8F8003070
:402F40002AB9BDE8F08706B1404272B107B1691E1160BDE8F0873024002BB1D10823AFE70A23ADE7302CA3D0AAE7BDE8F08700BFE080FF1F13460A46014602480068FFF756
:402F800073BF00BF4481FF1F10B59AB0009104916FF00041029105914FF6FF714FF40274ADF80E106946ADF80C4000F013F9009B00221A701AB010BD13460A46014602485A
:402FC0000068FFF7E1BF00BF4481FF1F38B50546002944D051F8043C0C1F002BB8BFE41800F0C1FB1E4A1368114613B96360146030E0A3420DD92268A018834201BF18685F
:403000005B681218226063600C6023E0A24203D813465A68002AF9D118681918A1420BD12168014458188242196013D110685268014419605A600DE002D90C232B6009E03D
:4030400021686018824201BF106852680918216062605C602846BDE8384000F085BB38BDF481FF1F70B5CD1C25F0030508350C2D38BF0C25002D064601DBA94202D90C2323
:40308000336046E000F06FFB234B1C681A462146A1B10B685B1B0ED40B2B03D90B60CC18CD501EE08C420BBF63684B681360636018BF0C4615E00C464968E9E7174C236880
:4030C0001BB9304600F016FB20602946304600F011FB431C18D0C41C24F00304A0420DD12560304600F040FB04F10B00231D20F00700C31A0ED05A42E25070BD211A30463E
:4031000000F0F8FA0130EBD10C233360304600F02BFB002070BD00BFF481FF1FF081FF1F2DE9F0478E6882469E420C46914698463ED88A8912F4906F3AD0256809690223F6
:403140006F1A656905EB450595FBF3F57B1C43449D4238BF1D4653050FD52946FFF782FF064698B13A462169FFF722FEA38923F4906343F08003A38113E02A4600F0F5FAC6
:40318000064670B921695046FFF720FF0C23CAF80030A3894FF0FF3043F04003A381BDE8F08726613E44266046466561ED1BA560464528BF464649463246206800F0B8FAD7
:4031C000A36800209B1BA36023681E442660BDE8F08700002DE9F04F9DB003938B8980461C060D4616460DD50B695BB94021FFF739FF2860286118B90C23C8F80030CDE0D2
:4032000040236B610023099320238DF82930DFF89CB130238DF82A3037463C4614F8013B1BB9B7EB060910D003E0252BF9D02746F3E74B46324629464046FFF771FF0130A5
:4032400000F0A780099B4B4409933B78002B00F0A08000234FF0FF3204930793059206938DF853301A930126052221784E4800F051FA671C049B38B14B4A3C46801A06FA5D
:4032800000F018430490EFE7D90644BF20228DF853201A0744BF2B228DF8532022782A2A03D0079A00210A200BE0039A111D12680391002A10DA524243F002000792049059
:4032C0000BE027463B780134303B092B03D800FB02320121F5E701B107923B782E2B1ED17B782A2B0AD1039B02371A1D1B680392002BB8BF4FF0FF33059310E0002319463B
:403300000593781C0A2407463A780130303A092A03D804FB01210123F5E703B1059103223978224800F0F6F940B14023CBEB000003FA00F0049B013718430490397806226B
:403340001B487E1C8DF8281000F0E4F988B1194B33B9039B073323F007030833039314E003AB00932A46144B04A94046AFF3008007E003AB00932A460F4B04A9404600F009
:4033800093F8B0F1FF3F824603D0099B5344099342E7AB895B0601D4099801E04FF0FF301DB0BDE8F08F00BF693C00006F3C0000733C000000000000213100002DE9F04760
:4033C00091461F460A698B6806469342B8BF1346C9F8003091F843200C46DDF8208012B10133C9F800302368990642BFD9F800300233C9F80030256815F0060510D104F1E9
:40340000190A07E00123524639463046C04701301AD00135E368D9F800209B1A9D42F1DB94F843302268003318BF012392060FD5E118302081F843005A1C94F845102244E8
:40344000023382F8431003E04FF0FF30BDE8F08704F1430239463046C0470130F4D02268D9F80050E36802F00602042A08BF5D1B2269A3680CBF25EAE57500259342C4BF0E
:403480009B1AED184FF000091A344D4509D00123224639463046C0470130D5D009F10109F3E70020BDE8F0872DE9F04317460A7E85B06E2A984606460C460C9B01F1430E78
:4034C00000F0AE8011D8632A22D009D8002A00F0BB80582A40F0CA8081F84520834955E0642A1ED0692A1CD0C0E0732A00F0B08009D86F2A2ED0702A40F0B8800A6842F0BF
:4035000020020A603EE0752A24D0782A3AD0ADE01A6801F14205111D1960136884F84230A8E021681A6811F0800F02D0111D196008E011F0400F02F10401196002D0B2F988
:40354000003000E01368002B3CDA2D225B4284F8432037E021681A6811F0800F02D0111D196007E011F0400F02F10401196001D0138800E01368227E5C496F2A14BF0A223D
:4035800008221BE078225A4984F845202268186812F0800F00F104051D6003D1550601D5038800E00368D00744BF42F0200222601BB9226822F0200222601022002084F849
:4035C000430001E049490A226568002DA56008DB206820F0040020602BB9002D7DD175460CE0002B79D07546B3FBF2F002FB1033CB5C05F8013D03460028F5D1082A0BD13F
:403600002368DA0708D5236962689A42DEBF302305F8013C05F1FF35C5EB0E0323612EE008681A6810F0800F496903D0101D1860136808E010F0400F02F104001860136821
:4036400001D0198000E0196000232361754616E01A68111D1960156800216268284600F059F808B1401B6060636804E004F1420584F8422001232361002384F84330CDF8D3
:4036800000803B4603AA21463046FFF797FE013002D14FF0FF3026E023692A4639463046C0470130F5D023689B0710D5002504F1190907E001234A4639463046C047013078
:4036C000E7D00135E368039A9B1A9D42F2DBE068039B9842B8BF184605E00B7804F1420584F842308AE705B0BDE8F0837A3C00008B3C000038B5064C002305460846236034
:40370000FEF754F8431C02D1236803B12B6038BDA895FF1F10B5C9B202449042034605D01C7801308C42F8D1184610BD002010BD884210B501EB020301D8421E0BE0984294
:40374000FBD28118D21AD34204D013F8014D01F8014DF8E710BD994204D011F8014B02F8014FF8E710BD70477047F8B5074615460E4621B91146BDE8F840FFF773BC1AB9AB
:40378000FFF724FC2846F8BD00F015F885420ED929463846FFF766FC044650B131462A46FFF706FB31463846FFF710FC01E03046F8BD2046F8BD51F8040C0028BEBF09187A
:4037C00051F8043CC0180438704700000000000066640000626B00006C74000072740000494E56414C494420414E474C453A20256420287573652034352F39302F31333529
:403800002F3138302F3232352F3237302F333135290D0A00766F77656C0000004E4F4E4500000000286E6F74206D6164652079657429000043414D4552412054494D454FB9
:403840005554202D3E20766F77656C3D4E4F4E450D0A0000564F57454C204E4F573A2025730D0A004E4F20564F57454C532044455445435445440D0A0000000043414D456D
:4038800052412044455445435445443A20410D0A00000000200000007265706561740000574149545F524553554C5400534554544C494E47000000004D4F56494E47000013
:4038C000524541445900000073746F7000000000454D455247454E43592053544F500D0A000000006D616B6500000000425553593A2063616D3D25642825732920776169F5
:40390000743D2564207768696C653D2564206964783D256420636E743D2564206D733D256C750D0A000000004D414B45205550444154453A202573203D2025730D0A00007F
:403940004D414B45204E45573A202573203D2025730D0A005641524941424C453A202573203D2025730D0A005641524941424C45204E4F5420464F554E443A2025730D0AA1
:40398000000000006966656C736500004946454C5345205155455545443A202573203D202573205B25735D205B25735D0D0A00007768696C650000005748494C4520434DAE
:4039C0004420434F554E543D25640D0A000000005748494C453A202573203D3D2025730D0A0000005748494C4520424F44593D5B25735D0D0A000000414343455054454485
:403A00003A2063616D3D2564206D733D256C750D0A00000044454255473A20636F756E743D25640D0A00000051554555455B25645D3A20747970653D256320706172616D3C
:403A40003D2564207265706561743D25640D0A00494620545255450D0A00000049462046414C53450D0A000055415254322052454144590D0A00000053544152542E2E2E99
:403A80002E2E2E2E2E2E2E2E000000005748494C45204C4F4F5020414741494E0D0A00005748494C4520454E440D0A004146544552205748494C453A206964783D25642015
:403AC000636F756E743D25640D0A000057414954494E4720464F5220554152542E2E2E0D0A0000004946454C53453A202573203D3D202573203F2025640D0A005748494C5A
:403B00004520545255450D0A000000005748494C452046414C53450D0A0000006664203100000000626B203100000000004F0040180000510040100040510040300000002C
:403B40000140001080140140800700400140000A004C0140000200500140200000140140280F00488000002020202020202020202828282828202020202020202020202031
:403B8000202020202020208810101010101010101010101010101004040404040404040404101010101010104141414141410101010101010101010101010101010101017D
:403BC000010110101010101042424242424202020202020202020202020202020202020202021010101020000000000000000000000000000000000000000000000000004F
:403C00000000000000000000000000000000000000000000000000000000000000000000000000000000000000000000000000000000000000000000000000000000000084
:403C40000000000000000000000000000000000000000000000000000000000000000000000000000000004300232D302B2000686C4C0065666745464700303132333435E3
:403C800036373839414243444546003031323334353637383961626364656600F8B500BFF8BC08BC9E4670474D00000029180000F8B500BFF8BC08BC9E467047290000007A
:403CC000D03C0000C880FF1F800000006814000000000000B095FF1F0000E02EC05D00001800000000366E01663B000000000000000000000000000000000000000000006A
:403D0000000000000000000000000000673C0000000000000000000000000000000000000000000000000000000000000000000000000000000000000000000000000000E0
:403D4000000000000000000000000000E480FF1F000000000000000000000000000000000000000000000000000000000000000000000000000000000000000000000000C1
:403D80000000000000000000000000000000000000000000000000000000000000000000000000000000000000000000000000000000000000000000000000000000000003
:403DC00000000000000000000000000000000000000000000000000000000000000000000000000000000000000000000000000000000000000000000000000000000000C3
:403E00000000000000000000000000000000000000000000000000000000000000000000000000000000000000000000000000000000000000000000000000000000000082
:403E40000000000000000000000000000000000000000000000000000000000000000000000000000000000000000000000000000000000000000000000000000000000042
:020000040003F7
:0200000480007A
:40000000034F0040085200400A640040036500405502014043030140540401404A0501405B0601404E0701405C08014056090140500A0140540B01405E0C0140510D0140F4
:40004000510E0140360F01401614014054150140651601404F1701404D1801404A1901406A1A01404F1B0140044001400341014008420140064301400945014008460140EB
:400080000447014009480140074901400A4C0140074D014008500140015101400A4B0D10164B080409041120144019021C0161807C20820F830F8572860F87388A388B6FE9
:4000C0008C6F8D728F0F84728838890F0072011C020C03020514060D09400A700C070E581110130C180719091A381B101D201F03250C271129102A2032033320346835402E
:40010000363C371F38083AA03E043F144043410245CB46E0480B49FF4AFF4BFF4EF04F44500C5401580459045A045B045C445D445F0166C06A406B02800382048420860510
:4001400087018C138E0C900A9214930298139A04A040A608AF02B00FB240B430B502B701B820BA02BE04BF10D401D804D904DB04DC14DD20DF01004001090441051806202C
:40018000070109200B800E041080122013021404184019141C011D281E061F4020042140268827082B012C042E042F083302351036A037013B083C213F0445204620470173
:4001C0004C404D014F04541059045AA05B025E415F287E107F1080408320870490029940A002A803AD40C0FDC24AC44CCA68CCB1CEE2D0E0D6FFE608EA04EE0C00C3019EEF
:400200000360081C0AE30C0F0EF0108211FD130214F31594160C176018FF1B0F1C411DCF1F30217322D32404280C29302BC92C083020320F341C35FF36C0380239083A082C
:400240003F14580459045C025F0181108401880189088D7F913C9341953C974299189F43A304A504A967AB18AC01B158B31FB401B720BB0ABF40C003C704C9FFCA07CBFFAE
:40028000CC40CD20CEF0CF05D008D602D713D804D904DA04DB04DC22DD24DF01E040E1A8E240E3200002020A0714080109100A100B021281132815401A121B121D102010AB
:4002C0002120260E2702288029202E112F203006314032103686372038023C603E8245084D0857085F026D406F1474107603772881108290831084018E109086918092040B
:4003000096C0972099409B019D08A002A108A201A480A70AAA08AF01B010B201C06BC20FC48FCAE5CCFFCEB1D040D680E005E202E404E601E804EE080031020E0640083116
:400340000A060E40120C142C160318401E40204026082D012E133040320F3501363038803A083E413F104001464049FF4A074BFF4C404D204EF04F05500854015804590445
:400380005A045B045C035D335F01604061A86240632088208A038B018C108F01901C92029410960C9B019D01A00CA211A409A610A814A901B21FB620B701BB02BE40BF4075
:4003C000C062C101C6CEC70BC81CC9FFCAFFCBFFCEF0CF44D00CD418D604D804D904DA04DB04DC22DD22DF01E6C0EA40EB02009004800518078008080B800D020E16101843
:4004000012801621170118101B801D801E50204022402708280829202E80302031203280334038203B804120434045804680470249205098531056215A025D105F4A600463
:400440006202630283908C408D40908491809206944096C0972099089B059C04A201A310A480A930AA80AC81AE01B120B410B721C0F3C2FCC4BECA14CC0CCE0CD01CD2047D
:40048000D6F1D80DE405EA18EE0B04010610080609080B040D040F08100411011202130214111504171819011A081B021D021E081F01210122112322240226042C062D0474
:4004C0002F0830063103320833203401350C361037103B223E545280580459045B045C125D105F0182018404850189018D0192029B02A204A602AB02B101B204B302B4020F
:40050000B601BB20BE14BF04C015C102C206C403C50CC6E0C809C9FFCAFFCBFFCC62CDA0CEF0CF41D00CD804D904DA04DC40DD04DF01E640E702E910EA30EB10ED10EE10F9
:40054000EF12000A0604071409020C400D800E400F2810801210142016011701180419801A201C801D501E401F042110220A2541276829202E802F403020360437623994AC
:400580003D803E20401041104201482049204A025210650C750281808C018E8090109194920193809406952096209704982099209A019B029C409D0A9EC89F4CA084A102EA
:4005C000A204A314A440A511A633AB40AE88AF08B220B420B540C06CC2F8C4BCCA94CCF4CE3ED00ED20CE040E414EA40EC8004080E021A091B011E041F022A023008320684
:400600003401350237013E0554185604580459045B045C105D405F0180048437850788018A028D048E078F0A950798619A029D029E809F15A060A204A608A857AD01AF2A71
:40064000B00FB270B320B518B680B707B808BF10C061C105C204C402C50CC7E0C821C9FFCAFFCBFFCC62CDA0CEF0CF41D00CD40FD804D904DA04DB04DC21DD02DF05E640C3
:40068000E702E910EA30EB10ED10EE10EF12032204400504074809100A020E040F0110041620171118101A401B301C401D041F4920082303252026882D40308031103680C6
:4006C00037043C803D084440452046024C094F08540159015D085E6260846240660867047E2080888104820384408C088F019194920795209620980499319B119C089D0694
:400700009E809F08A080A102A204A302A401A501A602A708AC01B004B510B621C0F5C2C3C472CA10CC5CCE50D0B0D230D6F1D86DDE40E240E804040108080A04120C140C9C
:4007400017031C031D0128032F04300231023208330434043501360138823E543F104034410249FF4AFF4BFF4DA04F015018540F580459045A045B045C115D115F056040BF
:40078000628064406540668068406A806C406D206E80830389018C248E129411962A9C029E05A437A837B030B302B408B501B607BF10C035C102C53EC6C0C742C83BC9FF07
:4007C000CAFFCBFFCDAFCE07CF01D018D602D712D804D904DA04DB04DC14DD41DF01E040E280E440E540E680E840EA80EC40ED20EE8003020504062808040A020E400F110C
:400800001114160417201A021B121E601F5020082310262427402E803608374039023A403B9040084108440845084648488049084B815101521C5A085C845E025F20650832
:40084000661069947028714078407B027C047E107F088884920D95209602972099219B119C449D429E209F08A10AA428A501A612A710AB30AE80B080B310B721C061C2B5C1
:40088000C446CA10CC50CE05D0E6D208D6F2D860DE20E6080167031804FF053C0741080C097F0CF30D3C0E0C0F42101C12E31303140F151816F0180419081C081D102082CE
:4008C00024C32704284129042EF330C03140322C3320341C360F371F39023A883B803F04580459045C445F018158820183A184EC881889778A208C9C8E20900191CC9332BB
:40090000953097CF989499FB9A489B049E07A5ACA751A878AA84AC08AEF0B002B201B3F0B4F0B61CB70FBE04D40FD804D904DB04DC11DD10DF0101800210030804040502D5
:4009400006200709081009800AA00E4610441104120216021710180219A11A211B041D081E461F20214222442680273128042B102F20303831C0320233083719380239A048
:400980003A103B043D023E223F0C5C845E205F0189048A01C0F7C2DFC4CFCA46CCEFCEAFD6F08408863088228A098B058C049411960AA43FA704A83FAB02B004B238B30698
:4009C000B403B701BF04D804D904DC33DF010084010205100620070108100A010B200F2010201728180419221A011C201D111E401F2421A0222323122402271029012B10ED
:400A00002E202F2430803120320D38AA3B403F2041804240431049044A084B40521058205C205F106B2970947108720480808310860187408C048D068E809080920893209E
:400A40009644978098109C809D209E109F02A060A490A508A6AAA720AA40B110B349B404C0EDC227C464CA63CC0FCE2FD00DD20CD604E008EC010053020403200514085341
:400A800009DC0A0C0B220C200E4512081303140A165419101BAC1C031D0C1E441F71208029102B402D092FD0303031E03240340F3680371F38023A203B023E444021410409
:400AC000450B460E47C0482549FF4AFF4BFF4EF04F44500C580459045A045C335D035F0166C06A406B028301844288638B028C738E0C9263940C98049B029C21A008A40CF5
:400B0000A673A87FAC0FAE70B00FB210B502B660B701B808BA22BF10C002C540C9FFCA07CBFFCC40CD20CEF0CF05D008D804D904DA04DC03DD02DF01E040E1A8E240E3209B
:400B400000200322051006010780088009080A440D020E100F021080122A1701188019801A281B021D321E021F0920042240250127812E202F0132103510378138023A10C8
:400B80003E123F0440084521460348404F04514056805701802081408201841889808B028C0192109320951097C09A219C109D309E809F80A460A502A680AB04AC04AE02CC
:400BC000AF01C0D7C2BFC41FCA30CCB4CEE5D0B4E001E208E60AE811EA08EC40EE0801030308041C0C1C1602180119021D031E011F04200822102602282029042A04300275
:400C000031043201330234303508360C370138A039883E453F0554185604580459045B045C025D305F018101830285B086018740884289C08A0C8B2090679210946595026C
:400C4000960A97F1985E99709A219D019F06A1C0A310A406A678A83BA980AB10AD01AF0AB078B104B3F0B407B503B708BB20D40FD804D904DB04DF01000401200304050824
:400C800006010A400B180D200F2210241210132015041644180419021A401D041F912181231825202609270129822A102F08301031803304341036A03720380839023B1808
:400CC0003F02580659505D016620678278087A10820487D089058C088E80970499D09D049E089F11A401A510A631AA04AE20AF0CB248C0A6C2EEC476CA2DCC3ECE87D68F60
:400D0000D8B0E020E240E480E810EC40000102020711090C0C010D0C0E02110115061801190A1A062320240226012E082F0130083110330E340335203604370139083A2047
:400D40003F404016410249FF4AFF4BFF4DA04F0150185280580459045A045B045F016040628064406540668068406A806C406D206E8084738513872C8830891A8AC98B2529
:400D800090CF9230949E96609770989499779A60A380A4FDA57FA602A945AA0FAB0AAD0CAF43B3F0B50FB6FFBE40C016C102C52CC640C73EC83BC9FFCAFFCBFFCDAFCE07B8
:400DC000CF01D018D804D904DA04DF01E040E280E440E540E680E840EA80EC40ED20EE8001820520072809200C200E440F1010221504171419821A041F4021682201232040
:400E000024082624271429022A802D642E402F403108322136043720380439403B103E043F104140435047504A084E884F0455105608570172808002822086408D088E01CF
:400E40008F10900492409310940897049B089C029D289E499F30A002A208A420A510A680A711AB08B003B620C069C272C465CAF9CC67CE6ED03CD224E050E440EC4030028C
:400E800032403720CC7096809F20A4025B025F02824096809F20A402D6C0E68019011C109F20A402B702C63006020A21500462088602C001C20AD404D80205029408AA0854
:400EC000B201B610C004EA02EE0180019408B502EA0282408402A402AF20B410B501E210E680EA4003405A8083409280C010D480E48009200C4054029002A002B406C20369
:400F0000D604E808EC0270019002B040B120DC01EA01EE01001F08160A1C0C170E12100D1A0D1C0D003F000061008E04611896000008000000E70818003C00C160FF80003F
:400F4000007C1C825C108300000000C30004A30000000000000000001A980020F01F0F580000A2220000000454060100020CE00009FFFFFF62A0F0410C000000000002114D
:400F8000040404043233000100000000000040020010301000101012000000000000000000000000000000008000008080008000000000002000000000000000C00000FF18
:400FC0003F000400000000002000582727002100000000000200010202000200000000000000000000000000000000000000000000000000000000000000000000000000BE
:4010000000000000000000000000000000000000000000000000000000000000000000000000000000000000000000000000000000000000000000000000000000000000B0
:401040000000000000000000000000000000000000000000000000000000000000000000000000000000000000000000000000000000000000000000000000000000000070
:401080000000000000000000000000000000000000000000000000000000000000000000000000000000000000000000000000000000000000000000000000000000000030
:4010C00000000000000000000000000000000000000000000000000000000000000000000000000000000000000000000000000000000000000000000000000000000000F0
:0200000490006A
:0400000000004005B7
:0200000490105A
:04000000BC90ACAF55
:0200000490303A
:02000000ACD37F
:0200000490402A
:4000000000000000000000000000000000000000000000000000000000000000000000000000000000000000000000000000000000000000000000000000000000000000C0
:400040000000000000000000000000000000000000000000000000000000000000000000000000000000000000000000000000000000000000000000000000000000000080
:400080000000000000000000000000000000000000000000000000000000000000000000000000000000000000000000000000000000000000000000000000000000000040
:4000C0000000000000000000000000000000000000000000000000000000000000000000000000000000000000000000000000000000000000000000000000000000000000
:0200000490501A
:0C00000000012E16106900012E31BD3CDD
:00000001FF